{
	"data": {
		"bytecode": {
			"linkReferences": {},
			"object": "60806040526001600c55348015610014575f80fd5b506040518060400160405280600a81526020017f56656869636c654e4654000000000000000000000000000000000000000000008152506040518060400160405280600481526020017f5648434c00000000000000000000000000000000000000000000000000000000815250815f908161008f919061046e565b50806001908161009f919061046e565b5050505f60075f6101000a81548160ff0219169083151502179055506100cd5f801b336100d360201b60201c565b5061053d565b5f6100e483836101c960201b60201c565b6101bf57600160065f8581526020019081526020015f205f015f8473ffffffffffffffffffffffffffffffffffffffff1673ffffffffffffffffffffffffffffffffffffffff1681526020019081526020015f205f6101000a81548160ff02191690831515021790555061015c61022d60201b60201c565b73ffffffffffffffffffffffffffffffffffffffff168273ffffffffffffffffffffffffffffffffffffffff16847f2f8788117e7eff1d82e926ec794901d17c78024a50270940304540a733656f0d60405160405180910390a4600190506101c3565b5f90505b92915050565b5f60065f8481526020019081526020015f205f015f8373ffffffffffffffffffffffffffffffffffffffff1673ffffffffffffffffffffffffffffffffffffffff1681526020019081526020015f205f9054906101000a900460ff16905092915050565b5f33905090565b5f81519050919050565b7f4e487b71000000000000000000000000000000000000000000000000000000005f52604160045260245ffd5b7f4e487b71000000000000000000000000000000000000000000000000000000005f52602260045260245ffd5b5f60028204905060018216806102af57607f821691505b6020821081036102c2576102c161026b565b5b50919050565b5f819050815f5260205f209050919050565b5f6020601f8301049050919050565b5f82821b905092915050565b5f600883026103247fffffffffffffffffffffffffffffffffffffffffffffffffffffffffffffffff826102e9565b61032e86836102e9565b95508019841693508086168417925050509392505050565b5f819050919050565b5f819050919050565b5f61037261036d61036884610346565b61034f565b610346565b9050919050565b5f819050919050565b61038b83610358565b61039f61039782610379565b8484546102f5565b825550505050565b5f90565b6103b36103a7565b6103be818484610382565b505050565b5b818110156103e1576103d65f826103ab565b6001810190506103c4565b5050565b601f821115610426576103f7816102c8565b610400846102da565b8101602085101561040f578190505b61042361041b856102da565b8301826103c3565b50505b505050565b5f82821c905092915050565b5f6104465f198460080261042b565b1980831691505092915050565b5f61045e8383610437565b9150826002028217905092915050565b61047782610234565b67ffffffffffffffff8111156104905761048f61023e565b5b61049a8254610298565b6104a58282856103e5565b5f60209050601f8311600181146104d6575f84156104c4578287015190505b6104ce8582610453565b865550610535565b601f1984166104e4866102c8565b5f5b8281101561050b578489015182556001820191506020850194506020810190506104e6565b868310156105285784890151610524601f891682610437565b8355505b6001600288020188555050505b505050505050565b613b7c8061054a5f395ff3fe608060405234801561000f575f80fd5b50600436106101e3575f3560e01c80635c975abb1161010d578063a217fddf116100a0578063c87b56dd1161006f578063c87b56dd14610565578063d547741f14610595578063e985e9c5146105b1578063eb1a6e40146105e1576101e3565b8063a217fddf146104df578063a22cb465146104fd578063ad59eff314610519578063b88d4fde14610549576101e3565b80638456cb59116100dc5780638456cb591461046957806391d148541461047357806395d89b41146104a3578063a20e7d47146104c1576101e3565b80635c975abb146103cd5780636352211e146103eb57806370a082311461041b57806375794a3c1461044b576101e3565b80632f2ff15d116101855780633f4ba83a116101545780633f4ba83a1461036f578063409224201461037957806342842e0e14610395578063459b9bcf146103b1576101e3565b80632f2ff15d146102ff57806336568abe1461031b57806336de59961461033757806337b3d3c714610353576101e3565b8063095ea7b3116101c1578063095ea7b3146102655780631c2760ee1461028157806323b872dd146102b3578063248a9ca3146102cf576101e3565b806301ffc9a7146101e757806306fdde0314610217578063081812fc14610235575b5f80fd5b61020160048036038101906101fc91906127ad565b610611565b60405161020e91906127f2565b60405180910390f35b61021f610632565b60405161022c919061287b565b60405180910390f35b61024f600480360381019061024a91906128ce565b6106c1565b60405161025c9190612938565b60405180910390f35b61027f600480360381019061027a919061297b565b6106dc565b005b61029b60048036038101906102969190612ae5565b6106f2565b6040516102aa93929190612dc2565b60405180910390f35b6102cd60048036038101906102c89190612e0c565b610a5c565b005b6102e960048036038101906102e49190612e8f565b610b5b565b6040516102f69190612ec9565b60405180910390f35b61031960048036038101906103149190612ee2565b610b78565b005b61033560048036038101906103309190612ee2565b610b9a565b005b610351600480360381019061034c9190612f20565b610c15565b005b61036d60048036038101906103689190612f4b565b610c4f565b005b610377610f58565b005b610393600480360381019061038e9190612fc1565b610f6f565b005b6103af60048036038101906103aa9190612e0c565b6110cb565b005b6103cb60048036038101906103c69190612f20565b6110ea565b005b6103d5611124565b6040516103e291906127f2565b60405180910390f35b610405600480360381019061040091906128ce565b611139565b6040516104129190612938565b60405180910390f35b61043560048036038101906104309190612f20565b61114a565b604051610442919061302a565b60405180910390f35b610453611200565b604051610460919061302a565b60405180910390f35b610471611206565b005b61048d60048036038101906104889190612ee2565b61121d565b60405161049a91906127f2565b60405180910390f35b6104ab611281565b6040516104b8919061287b565b60405180910390f35b6104c9611311565b6040516104d69190612ec9565b60405180910390f35b6104e7611335565b6040516104f49190612ec9565b60405180910390f35b6105176004803603810190610512919061306d565b61133b565b005b610533600480360381019061052e9190612e8f565b611351565b604051610540919061302a565b60405180910390f35b610563600480360381019061055e9190613149565b611366565b005b61057f600480360381019061057a91906128ce565b61138b565b60405161058c919061287b565b60405180910390f35b6105af60048036038101906105aa9190612ee2565b6113f1565b005b6105cb60048036038101906105c691906131c9565b611413565b6040516105d891906127f2565b60405180910390f35b6105fb60048036038101906105f691906128ce565b6114a1565b604051610608919061287b565b60405180910390f35b5f61061b8261153c565b8061062b575061062a8261161d565b5b9050919050565b60605f805461064090613234565b80601f016020809104026020016040519081016040528092919081815260200182805461066c90613234565b80156106b75780601f1061068e576101008083540402835291602001916106b7565b820191905f5260205f20905b81548152906001019060200180831161069a57829003601f168201915b5050505050905090565b5f6106cb82611696565b506106d58261171c565b9050919050565b6106ee82826106e9611755565b61175c565b5050565b60608060605f868051906020012090505f60085f8381526020019081526020015f205490505f8103610759576040517f08c379a0000000000000000000000000000000000000000000000000000000008152600401610750906132ae565b60405180910390fd5b5f600a5f8381526020019081526020015f209050808054905088106107b3576040517f08c379a00000000000000000000000000000000000000000000000000000000081526004016107aa90613316565b60405180910390fd5b5f87896107c09190613361565b905081805490508111156107d657818054905090505b5f89826107e39190613394565b90508067ffffffffffffffff8111156107ff576107fe6129c1565b5b60405190808252806020026020018201604052801561082d5781602001602082028036833780820191505090505b5097508067ffffffffffffffff81111561084a576108496129c1565b5b60405190808252806020026020018201604052801561087d57816020015b60608152602001906001900390816108685790505b5096508067ffffffffffffffff81111561089a576108996129c1565b5b6040519080825280602002602001820160405280156108c85781602001602082028036833780820191505090505b5095505f5b81811015610a4d575f84828d6108e39190613361565b815481106108f4576108f36133c7565b5b905f5260205f2090600302019050805f01548a8381518110610919576109186133c7565b5b60200260200101818152505080600101805461093490613234565b80601f016020809104026020016040519081016040528092919081815260200182805461096090613234565b80156109ab5780601f10610982576101008083540402835291602001916109ab565b820191905f5260205f20905b81548152906001019060200180831161098e57829003601f168201915b50505050508983815181106109c3576109c26133c7565b5b6020026020010181905250806002015f9054906101000a900473ffffffffffffffffffffffffffffffffffffffff16888381518110610a0557610a046133c7565b5b602002602001019073ffffffffffffffffffffffffffffffffffffffff16908173ffffffffffffffffffffffffffffffffffffffff16815250505080806001019150506108cd565b50505050505093509350939050565b5f73ffffffffffffffffffffffffffffffffffffffff168273ffffffffffffffffffffffffffffffffffffffff1603610acc575f6040517f64a0ae92000000000000000000000000000000000000000000000000000000008152600401610ac39190612938565b60405180910390fd5b5f610adf8383610ada611755565b61176e565b90508373ffffffffffffffffffffffffffffffffffffffff168173ffffffffffffffffffffffffffffffffffffffff1614610b55578382826040517f64283d7b000000000000000000000000000000000000000000000000000000008152600401610b4c939291906133f4565b60405180910390fd5b50505050565b5f60065f8381526020019081526020015f20600101549050919050565b610b8182610b5b565b610b8a81611790565b610b9483836117a4565b50505050565b610ba2611755565b73ffffffffffffffffffffffffffffffffffffffff168173ffffffffffffffffffffffffffffffffffffffff1614610c06576040517f6697b23200000000000000000000000000000000000000000000000000000000815260040160405180910390fd5b610c10828261188e565b505050565b5f801b610c2181611790565b610c4b7fd8a7a79547af723ee3e12b59a480111268d8969c634e1a34a144d2c8b91d635b83610b78565b5050565b7fd8a7a79547af723ee3e12b59a480111268d8969c634e1a34a144d2c8b91d635b610c7981611790565b6011835114610cbd576040517f08c379a0000000000000000000000000000000000000000000000000000000008152600401610cb490613473565b60405180910390fd5b5f825111610d00576040517f08c379a0000000000000000000000000000000000000000000000000000000008152600401610cf7906134db565b60405180910390fd5b5f838051906020012090505f60085f8381526020019081526020015f205490505f8103610d62576040517f08c379a0000000000000000000000000000000000000000000000000000000008152600401610d59906132ae565b60405180910390fd5b5f8442604051602001610d76929190613553565b604051602081830303815290604052805190602001209050600b5f8381526020019081526020015f205f8281526020019081526020015f205f9054906101000a900460ff1615610dfb576040517f08c379a0000000000000000000000000000000000000000000000000000000008152600401610df2906135c4565b60405180910390fd5b600a5f8381526020019081526020015f2060405180606001604052804281526020018781526020013373ffffffffffffffffffffffffffffffffffffffff16815250908060018154018082558091505060019003905f5260205f2090600302015f909190919091505f820151815f01556020820151816001019081610e80919061377f565b506040820151816002015f6101000a81548173ffffffffffffffffffffffffffffffffffffffff021916908373ffffffffffffffffffffffffffffffffffffffff16021790555050506001600b5f8481526020019081526020015f205f8381526020019081526020015f205f6101000a81548160ff0219169083151502179055503373ffffffffffffffffffffffffffffffffffffffff16827f4028bbc2891469a8e33f5819d6271936d5db9fc32e50a0bc15f0d24491b160b687604051610f48919061287b565b60405180910390a3505050505050565b5f801b610f6481611790565b610f6c611978565b50565b5f801b610f7b81611790565b6011835114610fbf576040517f08c379a0000000000000000000000000000000000000000000000000000000008152600401610fb690613473565b60405180910390fd5b5f838051906020012090505f60085f8381526020019081526020015f20541461101d576040517f08c379a000000000000000000000000000000000000000000000000000000000815260040161101490613898565b60405180910390fd5b5f600c5f815480929190611030906138b6565b91905055905061104084826119d9565b8060085f8481526020019081526020015f20819055508460095f8381526020019081526020015f209081611074919061377f565b508373ffffffffffffffffffffffffffffffffffffffff16817f5420a1ccc7b253f8a4bbdc9591d9edbd00c606b1d8962fa3292e65f6272a4d09876040516110bc919061287b565b60405180910390a35050505050565b6110e583838360405180602001604052805f815250611366565b505050565b5f801b6110f681611790565b6111207fd8a7a79547af723ee3e12b59a480111268d8969c634e1a34a144d2c8b91d635b836113f1565b5050565b5f60075f9054906101000a900460ff16905090565b5f61114382611696565b9050919050565b5f8073ffffffffffffffffffffffffffffffffffffffff168273ffffffffffffffffffffffffffffffffffffffff16036111bb575f6040517f89c62b640000000000000000000000000000000000000000000000000000000081526004016111b29190612938565b60405180910390fd5b60035f8373ffffffffffffffffffffffffffffffffffffffff1673ffffffffffffffffffffffffffffffffffffffff1681526020019081526020015f20549050919050565b600c5481565b5f801b61121281611790565b61121a611acc565b50565b5f60065f8481526020019081526020015f205f015f8373ffffffffffffffffffffffffffffffffffffffff1673ffffffffffffffffffffffffffffffffffffffff1681526020019081526020015f205f9054906101000a900460ff16905092915050565b60606001805461129090613234565b80601f01602080910402602001604051908101604052809291908181526020018280546112bc90613234565b80156113075780601f106112de57610100808354040283529160200191611307565b820191905f5260205f20905b8154815290600101906020018083116112ea57829003601f168201915b5050505050905090565b7fd8a7a79547af723ee3e12b59a480111268d8969c634e1a34a144d2c8b91d635b81565b5f801b81565b61134d611346611755565b8383611b2e565b5050565b6008602052805f5260405f205f915090505481565b611371848484610a5c565b61138561137c611755565b85858585611c97565b50505050565b606061139682611696565b505f6113a0611e43565b90505f8151116113be5760405180602001604052805f8152506113e9565b806113c884611e59565b6040516020016113d99291906138fd565b6040516020818303038152906040525b915050919050565b6113fa82610b5b565b61140381611790565b61140d838361188e565b50505050565b5f60055f8473ffffffffffffffffffffffffffffffffffffffff1673ffffffffffffffffffffffffffffffffffffffff1681526020019081526020015f205f8373ffffffffffffffffffffffffffffffffffffffff1673ffffffffffffffffffffffffffffffffffffffff1681526020019081526020015f205f9054906101000a900460ff16905092915050565b6009602052805f5260405f205f9150905080546114bd90613234565b80601f01602080910402602001604051908101604052809291908181526020018280546114e990613234565b80156115345780601f1061150b57610100808354040283529160200191611534565b820191905f5260205f20905b81548152906001019060200180831161151757829003601f168201915b505050505081565b5f7f80ac58cd000000000000000000000000000000000000000000000000000000007bffffffffffffffffffffffffffffffffffffffffffffffffffffffff1916827bffffffffffffffffffffffffffffffffffffffffffffffffffffffff1916148061160657507f5b5e139f000000000000000000000000000000000000000000000000000000007bffffffffffffffffffffffffffffffffffffffffffffffffffffffff1916827bffffffffffffffffffffffffffffffffffffffffffffffffffffffff1916145b80611616575061161582611f23565b5b9050919050565b5f7f7965db0b000000000000000000000000000000000000000000000000000000007bffffffffffffffffffffffffffffffffffffffffffffffffffffffff1916827bffffffffffffffffffffffffffffffffffffffffffffffffffffffff1916148061168f575061168e8261153c565b5b9050919050565b5f806116a183611f8c565b90505f73ffffffffffffffffffffffffffffffffffffffff168173ffffffffffffffffffffffffffffffffffffffff160361171357826040517f7e27328900000000000000000000000000000000000000000000000000000000815260040161170a919061302a565b60405180910390fd5b80915050919050565b5f60045f8381526020019081526020015f205f9054906101000a900473ffffffffffffffffffffffffffffffffffffffff169050919050565b5f33905090565b6117698383836001611fc5565b505050565b5f611777612184565b5f6117838585856121ce565b9050809150509392505050565b6117a18161179c611755565b6123d9565b50565b5f6117af838361121d565b61188457600160065f8581526020019081526020015f205f015f8473ffffffffffffffffffffffffffffffffffffffff1673ffffffffffffffffffffffffffffffffffffffff1681526020019081526020015f205f6101000a81548160ff021916908315150217905550611821611755565b73ffffffffffffffffffffffffffffffffffffffff168273ffffffffffffffffffffffffffffffffffffffff16847f2f8788117e7eff1d82e926ec794901d17c78024a50270940304540a733656f0d60405160405180910390a460019050611888565b5f90505b92915050565b5f611899838361121d565b1561196e575f60065f8581526020019081526020015f205f015f8473ffffffffffffffffffffffffffffffffffffffff1673ffffffffffffffffffffffffffffffffffffffff1681526020019081526020015f205f6101000a81548160ff02191690831515021790555061190b611755565b73ffffffffffffffffffffffffffffffffffffffff168273ffffffffffffffffffffffffffffffffffffffff16847ff6391f5c32d9c69d2a47ea670b442974b53935d1edc7fd64eb21e047a839171b60405160405180910390a460019050611972565b5f90505b92915050565b61198061242a565b5f60075f6101000a81548160ff0219169083151502179055507f5db9ee0a495bf2e6ff9c91a7834c1ba4fdd244a5e8aa4e537bd38aeae4b073aa6119c2611755565b6040516119cf9190612938565b60405180910390a1565b5f73ffffffffffffffffffffffffffffffffffffffff168273ffffffffffffffffffffffffffffffffffffffff1603611a49575f6040517f64a0ae92000000000000000000000000000000000000000000000000000000008152600401611a409190612938565b60405180910390fd5b5f611a5583835f61176e565b90505f73ffffffffffffffffffffffffffffffffffffffff168173ffffffffffffffffffffffffffffffffffffffff1614611ac7575f6040517f73c6ac6e000000000000000000000000000000000000000000000000000000008152600401611abe9190612938565b60405180910390fd5b505050565b611ad4612184565b600160075f6101000a81548160ff0219169083151502179055507f62e78cea01bee320cd4e420270b5ea74000d11b0c9f74754ebdbfc544b05a258611b17611755565b604051611b249190612938565b60405180910390a1565b5f73ffffffffffffffffffffffffffffffffffffffff168273ffffffffffffffffffffffffffffffffffffffff1603611b9e57816040517f5b08ba18000000000000000000000000000000000000000000000000000000008152600401611b959190612938565b60405180910390fd5b8060055f8573ffffffffffffffffffffffffffffffffffffffff1673ffffffffffffffffffffffffffffffffffffffff1681526020019081526020015f205f8473ffffffffffffffffffffffffffffffffffffffff1673ffffffffffffffffffffffffffffffffffffffff1681526020019081526020015f205f6101000a81548160ff0219169083151502179055508173ffffffffffffffffffffffffffffffffffffffff168373ffffffffffffffffffffffffffffffffffffffff167f17307eab39ab6107e8899845ad3d59bd9653f200f220920489ca2b5937696c3183604051611c8a91906127f2565b60405180910390a3505050565b5f8373ffffffffffffffffffffffffffffffffffffffff163b1115611e3c578273ffffffffffffffffffffffffffffffffffffffff1663150b7a02868685856040518563ffffffff1660e01b8152600401611cf59493929190613972565b6020604051808303815f875af1925050508015611d3057506040513d601f19601f82011682018060405250810190611d2d91906139d0565b60015b611db1573d805f8114611d5e576040519150601f19603f3d011682016040523d82523d5f602084013e611d63565b606091505b505f815103611da957836040517f64a0ae92000000000000000000000000000000000000000000000000000000008152600401611da09190612938565b60405180910390fd5b805181602001fd5b63150b7a0260e01b7bffffffffffffffffffffffffffffffffffffffffffffffffffffffff1916817bffffffffffffffffffffffffffffffffffffffffffffffffffffffff191614611e3a57836040517f64a0ae92000000000000000000000000000000000000000000000000000000008152600401611e319190612938565b60405180910390fd5b505b5050505050565b606060405180602001604052805f815250905090565b60605f6001611e6784612473565b0190505f8167ffffffffffffffff811115611e8557611e846129c1565b5b6040519080825280601f01601f191660200182016040528015611eb75781602001600182028036833780820191505090505b5090505f82602001820190505b600115611f18578080600190039150507f3031323334353637383961626364656600000000000000000000000000000000600a86061a8153600a8581611f0d57611f0c6139fb565b5b0494505f8503611ec4575b819350505050919050565b5f7f01ffc9a7000000000000000000000000000000000000000000000000000000007bffffffffffffffffffffffffffffffffffffffffffffffffffffffff1916827bffffffffffffffffffffffffffffffffffffffffffffffffffffffff1916149050919050565b5f60025f8381526020019081526020015f205f9054906101000a900473ffffffffffffffffffffffffffffffffffffffff169050919050565b8080611ffd57505f73ffffffffffffffffffffffffffffffffffffffff168273ffffffffffffffffffffffffffffffffffffffff1614155b1561212f575f61200c84611696565b90505f73ffffffffffffffffffffffffffffffffffffffff168373ffffffffffffffffffffffffffffffffffffffff161415801561207657508273ffffffffffffffffffffffffffffffffffffffff168173ffffffffffffffffffffffffffffffffffffffff1614155b801561208957506120878184611413565b155b156120cb57826040517fa9fbf51f0000000000000000000000000000000000000000000000000000000081526004016120c29190612938565b60405180910390fd5b811561212d57838573ffffffffffffffffffffffffffffffffffffffff168273ffffffffffffffffffffffffffffffffffffffff167f8c5be1e5ebec7d5bd14f71427d1e84f3dd0314c0f7b2291e5b200ac8c7c3b92560405160405180910390a45b505b8360045f8581526020019081526020015f205f6101000a81548173ffffffffffffffffffffffffffffffffffffffff021916908373ffffffffffffffffffffffffffffffffffffffff16021790555050505050565b61218c611124565b156121cc576040517f08c379a00000000000000000000000000000000000000000000000000000000081526004016121c390613a72565b60405180910390fd5b565b5f806121d984611f8c565b90505f73ffffffffffffffffffffffffffffffffffffffff168373ffffffffffffffffffffffffffffffffffffffff161461221a576122198184866125c4565b5b5f73ffffffffffffffffffffffffffffffffffffffff168173ffffffffffffffffffffffffffffffffffffffff16146122a5576122595f855f80611fc5565b600160035f8373ffffffffffffffffffffffffffffffffffffffff1673ffffffffffffffffffffffffffffffffffffffff1681526020019081526020015f205f82825403925050819055505b5f73ffffffffffffffffffffffffffffffffffffffff168573ffffffffffffffffffffffffffffffffffffffff161461232457600160035f8773ffffffffffffffffffffffffffffffffffffffff1673ffffffffffffffffffffffffffffffffffffffff1681526020019081526020015f205f82825401925050819055505b8460025f8681526020019081526020015f205f6101000a81548173ffffffffffffffffffffffffffffffffffffffff021916908373ffffffffffffffffffffffffffffffffffffffff160217905550838573ffffffffffffffffffffffffffffffffffffffff168273ffffffffffffffffffffffffffffffffffffffff167fddf252ad1be2c89b69c2b068fc378daa952ba7f163c4a11628f55a4df523b3ef60405160405180910390a4809150509392505050565b6123e3828261121d565b6124265780826040517fe2517d3f00000000000000000000000000000000000000000000000000000000815260040161241d929190613a90565b60405180910390fd5b5050565b612432611124565b612471576040517f08c379a000000000000000000000000000000000000000000000000000000000815260040161246890613b01565b60405180910390fd5b565b5f805f90507a184f03e93ff9f4daa797ed6e38ed64bf6a1f01000000000000000083106124cf577a184f03e93ff9f4daa797ed6e38ed64bf6a1f01000000000000000083816124c5576124c46139fb565b5b0492506040810190505b6d04ee2d6d415b85acef8100000000831061250c576d04ee2d6d415b85acef81000000008381612502576125016139fb565b5b0492506020810190505b662386f26fc10000831061253b57662386f26fc100008381612531576125306139fb565b5b0492506010810190505b6305f5e1008310612564576305f5e100838161255a576125596139fb565b5b0492506008810190505b612710831061258957612710838161257f5761257e6139fb565b5b0492506004810190505b606483106125ac57606483816125a2576125a16139fb565b5b0492506002810190505b600a83106125bb576001810190505b80915050919050565b6125cf838383612687565b612682575f73ffffffffffffffffffffffffffffffffffffffff168373ffffffffffffffffffffffffffffffffffffffff160361264357806040517f7e27328900000000000000000000000000000000000000000000000000000000815260040161263a919061302a565b60405180910390fd5b81816040517f177e802f000000000000000000000000000000000000000000000000000000008152600401612679929190613b1f565b60405180910390fd5b505050565b5f8073ffffffffffffffffffffffffffffffffffffffff168373ffffffffffffffffffffffffffffffffffffffff161415801561273e57508273ffffffffffffffffffffffffffffffffffffffff168473ffffffffffffffffffffffffffffffffffffffff1614806126ff57506126fe8484611413565b5b8061273d57508273ffffffffffffffffffffffffffffffffffffffff166127258361171c565b73ffffffffffffffffffffffffffffffffffffffff16145b5b90509392505050565b5f604051905090565b5f80fd5b5f80fd5b5f7fffffffff0000000000000000000000000000000000000000000000000000000082169050919050565b61278c81612758565b8114612796575f80fd5b50565b5f813590506127a781612783565b92915050565b5f602082840312156127c2576127c1612750565b5b5f6127cf84828501612799565b91505092915050565b5f8115159050919050565b6127ec816127d8565b82525050565b5f6020820190506128055f8301846127e3565b92915050565b5f81519050919050565b5f82825260208201905092915050565b8281835e5f83830152505050565b5f601f19601f8301169050919050565b5f61284d8261280b565b6128578185612815565b9350612867818560208601612825565b61287081612833565b840191505092915050565b5f6020820190508181035f8301526128938184612843565b905092915050565b5f819050919050565b6128ad8161289b565b81146128b7575f80fd5b50565b5f813590506128c8816128a4565b92915050565b5f602082840312156128e3576128e2612750565b5b5f6128f0848285016128ba565b91505092915050565b5f73ffffffffffffffffffffffffffffffffffffffff82169050919050565b5f612922826128f9565b9050919050565b61293281612918565b82525050565b5f60208201905061294b5f830184612929565b92915050565b61295a81612918565b8114612964575f80fd5b50565b5f8135905061297581612951565b92915050565b5f806040838503121561299157612990612750565b5b5f61299e85828601612967565b92505060206129af858286016128ba565b9150509250929050565b5f80fd5b5f80fd5b7f4e487b71000000000000000000000000000000000000000000000000000000005f52604160045260245ffd5b6129f782612833565b810181811067ffffffffffffffff82111715612a1657612a156129c1565b5b80604052505050565b5f612a28612747565b9050612a3482826129ee565b919050565b5f67ffffffffffffffff821115612a5357612a526129c1565b5b612a5c82612833565b9050602081019050919050565b828183375f83830152505050565b5f612a89612a8484612a39565b612a1f565b905082815260208101848484011115612aa557612aa46129bd565b5b612ab0848285612a69565b509392505050565b5f82601f830112612acc57612acb6129b9565b5b8135612adc848260208601612a77565b91505092915050565b5f805f60608486031215612afc57612afb612750565b5b5f84013567ffffffffffffffff811115612b1957612b18612754565b5b612b2586828701612ab8565b9350506020612b36868287016128ba565b9250506040612b47868287016128ba565b9150509250925092565b5f81519050919050565b5f82825260208201905092915050565b5f819050602082019050919050565b612b838161289b565b82525050565b5f612b948383612b7a565b60208301905092915050565b5f602082019050919050565b5f612bb682612b51565b612bc08185612b5b565b9350612bcb83612b6b565b805f5b83811015612bfb578151612be28882612b89565b9750612bed83612ba0565b925050600181019050612bce565b5085935050505092915050565b5f81519050919050565b5f82825260208201905092915050565b5f819050602082019050919050565b5f82825260208201905092915050565b5f612c4b8261280b565b612c558185612c31565b9350612c65818560208601612825565b612c6e81612833565b840191505092915050565b5f612c848383612c41565b905092915050565b5f602082019050919050565b5f612ca282612c08565b612cac8185612c12565b935083602082028501612cbe85612c22565b805f5b85811015612cf95784840389528151612cda8582612c79565b9450612ce583612c8c565b925060208a01995050600181019050612cc1565b50829750879550505050505092915050565b5f81519050919050565b5f82825260208201905092915050565b5f819050602082019050919050565b612d3d81612918565b82525050565b5f612d4e8383612d34565b60208301905092915050565b5f602082019050919050565b5f612d7082612d0b565b612d7a8185612d15565b9350612d8583612d25565b805f5b83811015612db5578151612d9c8882612d43565b9750612da783612d5a565b925050600181019050612d88565b5085935050505092915050565b5f6060820190508181035f830152612dda8186612bac565b90508181036020830152612dee8185612c98565b90508181036040830152612e028184612d66565b9050949350505050565b5f805f60608486031215612e2357612e22612750565b5b5f612e3086828701612967565b9350506020612e4186828701612967565b9250506040612e52868287016128ba565b9150509250925092565b5f819050919050565b612e6e81612e5c565b8114612e78575f80fd5b50565b5f81359050612e8981612e65565b92915050565b5f60208284031215612ea457612ea3612750565b5b5f612eb184828501612e7b565b91505092915050565b612ec381612e5c565b82525050565b5f602082019050612edc5f830184612eba565b92915050565b5f8060408385031215612ef857612ef7612750565b5b5f612f0585828601612e7b565b9250506020612f1685828601612967565b9150509250929050565b5f60208284031215612f3557612f34612750565b5b5f612f4284828501612967565b91505092915050565b5f8060408385031215612f6157612f60612750565b5b5f83013567ffffffffffffffff811115612f7e57612f7d612754565b5b612f8a85828601612ab8565b925050602083013567ffffffffffffffff811115612fab57612faa612754565b5b612fb785828601612ab8565b9150509250929050565b5f8060408385031215612fd757612fd6612750565b5b5f83013567ffffffffffffffff811115612ff457612ff3612754565b5b61300085828601612ab8565b925050602061301185828601612967565b9150509250929050565b6130248161289b565b82525050565b5f60208201905061303d5f83018461301b565b92915050565b61304c816127d8565b8114613056575f80fd5b50565b5f8135905061306781613043565b92915050565b5f806040838503121561308357613082612750565b5b5f61309085828601612967565b92505060206130a185828601613059565b9150509250929050565b5f67ffffffffffffffff8211156130c5576130c46129c1565b5b6130ce82612833565b9050602081019050919050565b5f6130ed6130e8846130ab565b612a1f565b905082815260208101848484011115613109576131086129bd565b5b613114848285612a69565b509392505050565b5f82601f8301126131305761312f6129b9565b5b81356131408482602086016130db565b91505092915050565b5f805f806080858703121561316157613160612750565b5b5f61316e87828801612967565b945050602061317f87828801612967565b9350506040613190878288016128ba565b925050606085013567ffffffffffffffff8111156131b1576131b0612754565b5b6131bd8782880161311c565b91505092959194509250565b5f80604083850312156131df576131de612750565b5b5f6131ec85828601612967565b92505060206131fd85828601612967565b9150509250929050565b7f4e487b71000000000000000000000000000000000000000000000000000000005f52602260045260245ffd5b5f600282049050600182168061324b57607f821691505b60208210810361325e5761325d613207565b5b50919050565b7f436172206e6f74207265676973746572656400000000000000000000000000005f82015250565b5f613298601283612815565b91506132a382613264565b602082019050919050565b5f6020820190508181035f8301526132c58161328c565b9050919050565b7f537461727420696e646578206f7574206f662072616e676500000000000000005f82015250565b5f613300601883612815565b915061330b826132cc565b602082019050919050565b5f6020820190508181035f83015261332d816132f4565b9050919050565b7f4e487b71000000000000000000000000000000000000000000000000000000005f52601160045260245ffd5b5f61336b8261289b565b91506133768361289b565b925082820190508082111561338e5761338d613334565b5b92915050565b5f61339e8261289b565b91506133a98361289b565b92508282039050818111156133c1576133c0613334565b5b92915050565b7f4e487b71000000000000000000000000000000000000000000000000000000005f52603260045260245ffd5b5f6060820190506134075f830186612929565b613414602083018561301b565b6134216040830184612929565b949350505050565b7f496e76616c69642056494e0000000000000000000000000000000000000000005f82015250565b5f61345d600b83612815565b915061346882613429565b602082019050919050565b5f6020820190508181035f83015261348a81613451565b9050919050565b7f456d707479206465736372697074696f6e0000000000000000000000000000005f82015250565b5f6134c5601183612815565b91506134d082613491565b602082019050919050565b5f6020820190508181035f8301526134f2816134b9565b9050919050565b5f81905092915050565b5f61350d8261280b565b61351781856134f9565b9350613527818560208601612825565b80840191505092915050565b5f819050919050565b61354d6135488261289b565b613533565b82525050565b5f61355e8285613503565b915061356a828461353c565b6020820191508190509392505050565b7f4475706c6963617465207265636f7264000000000000000000000000000000005f82015250565b5f6135ae601083612815565b91506135b98261357a565b602082019050919050565b5f6020820190508181035f8301526135db816135a2565b9050919050565b5f819050815f5260205f209050919050565b5f6020601f8301049050919050565b5f82821b905092915050565b5f6008830261363e7fffffffffffffffffffffffffffffffffffffffffffffffffffffffffffffffff82613603565b6136488683613603565b95508019841693508086168417925050509392505050565b5f819050919050565b5f61368361367e6136798461289b565b613660565b61289b565b9050919050565b5f819050919050565b61369c83613669565b6136b06136a88261368a565b84845461360f565b825550505050565b5f90565b6136c46136b8565b6136cf818484613693565b505050565b5b818110156136f2576136e75f826136bc565b6001810190506136d5565b5050565b601f82111561373757613708816135e2565b613711846135f4565b81016020851015613720578190505b61373461372c856135f4565b8301826136d4565b50505b505050565b5f82821c905092915050565b5f6137575f198460080261373c565b1980831691505092915050565b5f61376f8383613748565b9150826002028217905092915050565b6137888261280b565b67ffffffffffffffff8111156137a1576137a06129c1565b5b6137ab8254613234565b6137b68282856136f6565b5f60209050601f8311600181146137e7575f84156137d5578287015190505b6137df8582613764565b865550613846565b601f1984166137f5866135e2565b5f5b8281101561381c578489015182556001820191506020850194506020810190506137f7565b868310156138395784890151613835601f891682613748565b8355505b6001600288020188555050505b505050505050565b7f43617220616c72656164792072656769737465726564000000000000000000005f82015250565b5f613882601683612815565b915061388d8261384e565b602082019050919050565b5f6020820190508181035f8301526138af81613876565b9050919050565b5f6138c08261289b565b91507fffffffffffffffffffffffffffffffffffffffffffffffffffffffffffffffff82036138f2576138f1613334565b5b600182019050919050565b5f6139088285613503565b91506139148284613503565b91508190509392505050565b5f81519050919050565b5f82825260208201905092915050565b5f61394482613920565b61394e818561392a565b935061395e818560208601612825565b61396781612833565b840191505092915050565b5f6080820190506139855f830187612929565b6139926020830186612929565b61399f604083018561301b565b81810360608301526139b1818461393a565b905095945050505050565b5f815190506139ca81612783565b92915050565b5f602082840312156139e5576139e4612750565b5b5f6139f2848285016139bc565b91505092915050565b7f4e487b71000000000000000000000000000000000000000000000000000000005f52601260045260245ffd5b7f5061757361626c653a20706175736564000000000000000000000000000000005f82015250565b5f613a5c601083612815565b9150613a6782613a28565b602082019050919050565b5f6020820190508181035f830152613a8981613a50565b9050919050565b5f604082019050613aa35f830185612929565b613ab06020830184612eba565b9392505050565b7f5061757361626c653a206e6f74207061757365640000000000000000000000005f82015250565b5f613aeb601483612815565b9150613af682613ab7565b602082019050919050565b5f6020820190508181035f830152613b1881613adf565b9050919050565b5f604082019050613b325f830185612929565b613b3f602083018461301b565b939250505056fea264697066735822122009fc90bf12e2ead023b0f1332a9efae769fc96be6eaec04238a0fadf43b536b864736f6c634300081a0033",
			"opcodes": "PUSH1 0x80 PUSH1 0x40 MSTORE PUSH1 0x1 PUSH1 0xC SSTORE CALLVALUE DUP1 ISZERO PUSH2 0x14 JUMPI PUSH0 DUP1 REVERT JUMPDEST POP PUSH1 0x40 MLOAD DUP1 PUSH1 0x40 ADD PUSH1 0x40 MSTORE DUP1 PUSH1 0xA DUP2 MSTORE PUSH1 0x20 ADD PUSH32 0x56656869636C654E465400000000000000000000000000000000000000000000 DUP2 MSTORE POP PUSH1 0x40 MLOAD DUP1 PUSH1 0x40 ADD PUSH1 0x40 MSTORE DUP1 PUSH1 0x4 DUP2 MSTORE PUSH1 0x20 ADD PUSH32 0x5648434C00000000000000000000000000000000000000000000000000000000 DUP2 MSTORE POP DUP2 PUSH0 SWAP1 DUP2 PUSH2 0x8F SWAP2 SWAP1 PUSH2 0x46E JUMP JUMPDEST POP DUP1 PUSH1 0x1 SWAP1 DUP2 PUSH2 0x9F SWAP2 SWAP1 PUSH2 0x46E JUMP JUMPDEST POP POP POP PUSH0 PUSH1 0x7 PUSH0 PUSH2 0x100 EXP DUP2 SLOAD DUP2 PUSH1 0xFF MUL NOT AND SWAP1 DUP4 ISZERO ISZERO MUL OR SWAP1 SSTORE POP PUSH2 0xCD PUSH0 DUP1 SHL CALLER PUSH2 0xD3 PUSH1 0x20 SHL PUSH1 0x20 SHR JUMP JUMPDEST POP PUSH2 0x53D JUMP JUMPDEST PUSH0 PUSH2 0xE4 DUP4 DUP4 PUSH2 0x1C9 PUSH1 0x20 SHL PUSH1 0x20 SHR JUMP JUMPDEST PUSH2 0x1BF JUMPI PUSH1 0x1 PUSH1 0x6 PUSH0 DUP6 DUP2 MSTORE PUSH1 0x20 ADD SWAP1 DUP2 MSTORE PUSH1 0x20 ADD PUSH0 KECCAK256 PUSH0 ADD PUSH0 DUP5 PUSH20 0xFFFFFFFFFFFFFFFFFFFFFFFFFFFFFFFFFFFFFFFF AND PUSH20 0xFFFFFFFFFFFFFFFFFFFFFFFFFFFFFFFFFFFFFFFF AND DUP2 MSTORE PUSH1 0x20 ADD SWAP1 DUP2 MSTORE PUSH1 0x20 ADD PUSH0 KECCAK256 PUSH0 PUSH2 0x100 EXP DUP2 SLOAD DUP2 PUSH1 0xFF MUL NOT AND SWAP1 DUP4 ISZERO ISZERO MUL OR SWAP1 SSTORE POP PUSH2 0x15C PUSH2 0x22D PUSH1 0x20 SHL PUSH1 0x20 SHR JUMP JUMPDEST PUSH20 0xFFFFFFFFFFFFFFFFFFFFFFFFFFFFFFFFFFFFFFFF AND DUP3 PUSH20 0xFFFFFFFFFFFFFFFFFFFFFFFFFFFFFFFFFFFFFFFF AND DUP5 PUSH32 0x2F8788117E7EFF1D82E926EC794901D17C78024A50270940304540A733656F0D PUSH1 0x40 MLOAD PUSH1 0x40 MLOAD DUP1 SWAP2 SUB SWAP1 LOG4 PUSH1 0x1 SWAP1 POP PUSH2 0x1C3 JUMP JUMPDEST PUSH0 SWAP1 POP JUMPDEST SWAP3 SWAP2 POP POP JUMP JUMPDEST PUSH0 PUSH1 0x6 PUSH0 DUP5 DUP2 MSTORE PUSH1 0x20 ADD SWAP1 DUP2 MSTORE PUSH1 0x20 ADD PUSH0 KECCAK256 PUSH0 ADD PUSH0 DUP4 PUSH20 0xFFFFFFFFFFFFFFFFFFFFFFFFFFFFFFFFFFFFFFFF AND PUSH20 0xFFFFFFFFFFFFFFFFFFFFFFFFFFFFFFFFFFFFFFFF AND DUP2 MSTORE PUSH1 0x20 ADD SWAP1 DUP2 MSTORE PUSH1 0x20 ADD PUSH0 KECCAK256 PUSH0 SWAP1 SLOAD SWAP1 PUSH2 0x100 EXP SWAP1 DIV PUSH1 0xFF AND SWAP1 POP SWAP3 SWAP2 POP POP JUMP JUMPDEST PUSH0 CALLER SWAP1 POP SWAP1 JUMP JUMPDEST PUSH0 DUP2 MLOAD SWAP1 POP SWAP2 SWAP1 POP JUMP JUMPDEST PUSH32 0x4E487B7100000000000000000000000000000000000000000000000000000000 PUSH0 MSTORE PUSH1 0x41 PUSH1 0x4 MSTORE PUSH1 0x24 PUSH0 REVERT JUMPDEST PUSH32 0x4E487B7100000000000000000000000000000000000000000000000000000000 PUSH0 MSTORE PUSH1 0x22 PUSH1 0x4 MSTORE PUSH1 0x24 PUSH0 REVERT JUMPDEST PUSH0 PUSH1 0x2 DUP3 DIV SWAP1 POP PUSH1 0x1 DUP3 AND DUP1 PUSH2 0x2AF JUMPI PUSH1 0x7F DUP3 AND SWAP2 POP JUMPDEST PUSH1 0x20 DUP3 LT DUP2 SUB PUSH2 0x2C2 JUMPI PUSH2 0x2C1 PUSH2 0x26B JUMP JUMPDEST JUMPDEST POP SWAP2 SWAP1 POP JUMP JUMPDEST PUSH0 DUP2 SWAP1 POP DUP2 PUSH0 MSTORE PUSH1 0x20 PUSH0 KECCAK256 SWAP1 POP SWAP2 SWAP1 POP JUMP JUMPDEST PUSH0 PUSH1 0x20 PUSH1 0x1F DUP4 ADD DIV SWAP1 POP SWAP2 SWAP1 POP JUMP JUMPDEST PUSH0 DUP3 DUP3 SHL SWAP1 POP SWAP3 SWAP2 POP POP JUMP JUMPDEST PUSH0 PUSH1 0x8 DUP4 MUL PUSH2 0x324 PUSH32 0xFFFFFFFFFFFFFFFFFFFFFFFFFFFFFFFFFFFFFFFFFFFFFFFFFFFFFFFFFFFFFFFF DUP3 PUSH2 0x2E9 JUMP JUMPDEST PUSH2 0x32E DUP7 DUP4 PUSH2 0x2E9 JUMP JUMPDEST SWAP6 POP DUP1 NOT DUP5 AND SWAP4 POP DUP1 DUP7 AND DUP5 OR SWAP3 POP POP POP SWAP4 SWAP3 POP POP POP JUMP JUMPDEST PUSH0 DUP2 SWAP1 POP SWAP2 SWAP1 POP JUMP JUMPDEST PUSH0 DUP2 SWAP1 POP SWAP2 SWAP1 POP JUMP JUMPDEST PUSH0 PUSH2 0x372 PUSH2 0x36D PUSH2 0x368 DUP5 PUSH2 0x346 JUMP JUMPDEST PUSH2 0x34F JUMP JUMPDEST PUSH2 0x346 JUMP JUMPDEST SWAP1 POP SWAP2 SWAP1 POP JUMP JUMPDEST PUSH0 DUP2 SWAP1 POP SWAP2 SWAP1 POP JUMP JUMPDEST PUSH2 0x38B DUP4 PUSH2 0x358 JUMP JUMPDEST PUSH2 0x39F PUSH2 0x397 DUP3 PUSH2 0x379 JUMP JUMPDEST DUP5 DUP5 SLOAD PUSH2 0x2F5 JUMP JUMPDEST DUP3 SSTORE POP POP POP POP JUMP JUMPDEST PUSH0 SWAP1 JUMP JUMPDEST PUSH2 0x3B3 PUSH2 0x3A7 JUMP JUMPDEST PUSH2 0x3BE DUP2 DUP5 DUP5 PUSH2 0x382 JUMP JUMPDEST POP POP POP JUMP JUMPDEST JUMPDEST DUP2 DUP2 LT ISZERO PUSH2 0x3E1 JUMPI PUSH2 0x3D6 PUSH0 DUP3 PUSH2 0x3AB JUMP JUMPDEST PUSH1 0x1 DUP2 ADD SWAP1 POP PUSH2 0x3C4 JUMP JUMPDEST POP POP JUMP JUMPDEST PUSH1 0x1F DUP3 GT ISZERO PUSH2 0x426 JUMPI PUSH2 0x3F7 DUP2 PUSH2 0x2C8 JUMP JUMPDEST PUSH2 0x400 DUP5 PUSH2 0x2DA JUMP JUMPDEST DUP2 ADD PUSH1 0x20 DUP6 LT ISZERO PUSH2 0x40F JUMPI DUP2 SWAP1 POP JUMPDEST PUSH2 0x423 PUSH2 0x41B DUP6 PUSH2 0x2DA JUMP JUMPDEST DUP4 ADD DUP3 PUSH2 0x3C3 JUMP JUMPDEST POP POP JUMPDEST POP POP POP JUMP JUMPDEST PUSH0 DUP3 DUP3 SHR SWAP1 POP SWAP3 SWAP2 POP POP JUMP JUMPDEST PUSH0 PUSH2 0x446 PUSH0 NOT DUP5 PUSH1 0x8 MUL PUSH2 0x42B JUMP JUMPDEST NOT DUP1 DUP4 AND SWAP2 POP POP SWAP3 SWAP2 POP POP JUMP JUMPDEST PUSH0 PUSH2 0x45E DUP4 DUP4 PUSH2 0x437 JUMP JUMPDEST SWAP2 POP DUP3 PUSH1 0x2 MUL DUP3 OR SWAP1 POP SWAP3 SWAP2 POP POP JUMP JUMPDEST PUSH2 0x477 DUP3 PUSH2 0x234 JUMP JUMPDEST PUSH8 0xFFFFFFFFFFFFFFFF DUP2 GT ISZERO PUSH2 0x490 JUMPI PUSH2 0x48F PUSH2 0x23E JUMP JUMPDEST JUMPDEST PUSH2 0x49A DUP3 SLOAD PUSH2 0x298 JUMP JUMPDEST PUSH2 0x4A5 DUP3 DUP3 DUP6 PUSH2 0x3E5 JUMP JUMPDEST PUSH0 PUSH1 0x20 SWAP1 POP PUSH1 0x1F DUP4 GT PUSH1 0x1 DUP2 EQ PUSH2 0x4D6 JUMPI PUSH0 DUP5 ISZERO PUSH2 0x4C4 JUMPI DUP3 DUP8 ADD MLOAD SWAP1 POP JUMPDEST PUSH2 0x4CE DUP6 DUP3 PUSH2 0x453 JUMP JUMPDEST DUP7 SSTORE POP PUSH2 0x535 JUMP JUMPDEST PUSH1 0x1F NOT DUP5 AND PUSH2 0x4E4 DUP7 PUSH2 0x2C8 JUMP JUMPDEST PUSH0 JUMPDEST DUP3 DUP2 LT ISZERO PUSH2 0x50B JUMPI DUP5 DUP10 ADD MLOAD DUP3 SSTORE PUSH1 0x1 DUP3 ADD SWAP2 POP PUSH1 0x20 DUP6 ADD SWAP5 POP PUSH1 0x20 DUP2 ADD SWAP1 POP PUSH2 0x4E6 JUMP JUMPDEST DUP7 DUP4 LT ISZERO PUSH2 0x528 JUMPI DUP5 DUP10 ADD MLOAD PUSH2 0x524 PUSH1 0x1F DUP10 AND DUP3 PUSH2 0x437 JUMP JUMPDEST DUP4 SSTORE POP JUMPDEST PUSH1 0x1 PUSH1 0x2 DUP9 MUL ADD DUP9 SSTORE POP POP POP JUMPDEST POP POP POP POP POP POP JUMP JUMPDEST PUSH2 0x3B7C DUP1 PUSH2 0x54A PUSH0 CODECOPY PUSH0 RETURN INVALID PUSH1 0x80 PUSH1 0x40 MSTORE CALLVALUE DUP1 ISZERO PUSH2 0xF JUMPI PUSH0 DUP1 REVERT JUMPDEST POP PUSH1 0x4 CALLDATASIZE LT PUSH2 0x1E3 JUMPI PUSH0 CALLDATALOAD PUSH1 0xE0 SHR DUP1 PUSH4 0x5C975ABB GT PUSH2 0x10D JUMPI DUP1 PUSH4 0xA217FDDF GT PUSH2 0xA0 JUMPI DUP1 PUSH4 0xC87B56DD GT PUSH2 0x6F JUMPI DUP1 PUSH4 0xC87B56DD EQ PUSH2 0x565 JUMPI DUP1 PUSH4 0xD547741F EQ PUSH2 0x595 JUMPI DUP1 PUSH4 0xE985E9C5 EQ PUSH2 0x5B1 JUMPI DUP1 PUSH4 0xEB1A6E40 EQ PUSH2 0x5E1 JUMPI PUSH2 0x1E3 JUMP JUMPDEST DUP1 PUSH4 0xA217FDDF EQ PUSH2 0x4DF JUMPI DUP1 PUSH4 0xA22CB465 EQ PUSH2 0x4FD JUMPI DUP1 PUSH4 0xAD59EFF3 EQ PUSH2 0x519 JUMPI DUP1 PUSH4 0xB88D4FDE EQ PUSH2 0x549 JUMPI PUSH2 0x1E3 JUMP JUMPDEST DUP1 PUSH4 0x8456CB59 GT PUSH2 0xDC JUMPI DUP1 PUSH4 0x8456CB59 EQ PUSH2 0x469 JUMPI DUP1 PUSH4 0x91D14854 EQ PUSH2 0x473 JUMPI DUP1 PUSH4 0x95D89B41 EQ PUSH2 0x4A3 JUMPI DUP1 PUSH4 0xA20E7D47 EQ PUSH2 0x4C1 JUMPI PUSH2 0x1E3 JUMP JUMPDEST DUP1 PUSH4 0x5C975ABB EQ PUSH2 0x3CD JUMPI DUP1 PUSH4 0x6352211E EQ PUSH2 0x3EB JUMPI DUP1 PUSH4 0x70A08231 EQ PUSH2 0x41B JUMPI DUP1 PUSH4 0x75794A3C EQ PUSH2 0x44B JUMPI PUSH2 0x1E3 JUMP JUMPDEST DUP1 PUSH4 0x2F2FF15D GT PUSH2 0x185 JUMPI DUP1 PUSH4 0x3F4BA83A GT PUSH2 0x154 JUMPI DUP1 PUSH4 0x3F4BA83A EQ PUSH2 0x36F JUMPI DUP1 PUSH4 0x40922420 EQ PUSH2 0x379 JUMPI DUP1 PUSH4 0x42842E0E EQ PUSH2 0x395 JUMPI DUP1 PUSH4 0x459B9BCF EQ PUSH2 0x3B1 JUMPI PUSH2 0x1E3 JUMP JUMPDEST DUP1 PUSH4 0x2F2FF15D EQ PUSH2 0x2FF JUMPI DUP1 PUSH4 0x36568ABE EQ PUSH2 0x31B JUMPI DUP1 PUSH4 0x36DE5996 EQ PUSH2 0x337 JUMPI DUP1 PUSH4 0x37B3D3C7 EQ PUSH2 0x353 JUMPI PUSH2 0x1E3 JUMP JUMPDEST DUP1 PUSH4 0x95EA7B3 GT PUSH2 0x1C1 JUMPI DUP1 PUSH4 0x95EA7B3 EQ PUSH2 0x265 JUMPI DUP1 PUSH4 0x1C2760EE EQ PUSH2 0x281 JUMPI DUP1 PUSH4 0x23B872DD EQ PUSH2 0x2B3 JUMPI DUP1 PUSH4 0x248A9CA3 EQ PUSH2 0x2CF JUMPI PUSH2 0x1E3 JUMP JUMPDEST DUP1 PUSH4 0x1FFC9A7 EQ PUSH2 0x1E7 JUMPI DUP1 PUSH4 0x6FDDE03 EQ PUSH2 0x217 JUMPI DUP1 PUSH4 0x81812FC EQ PUSH2 0x235 JUMPI JUMPDEST PUSH0 DUP1 REVERT JUMPDEST PUSH2 0x201 PUSH1 0x4 DUP1 CALLDATASIZE SUB DUP2 ADD SWAP1 PUSH2 0x1FC SWAP2 SWAP1 PUSH2 0x27AD JUMP JUMPDEST PUSH2 0x611 JUMP JUMPDEST PUSH1 0x40 MLOAD PUSH2 0x20E SWAP2 SWAP1 PUSH2 0x27F2 JUMP JUMPDEST PUSH1 0x40 MLOAD DUP1 SWAP2 SUB SWAP1 RETURN JUMPDEST PUSH2 0x21F PUSH2 0x632 JUMP JUMPDEST PUSH1 0x40 MLOAD PUSH2 0x22C SWAP2 SWAP1 PUSH2 0x287B JUMP JUMPDEST PUSH1 0x40 MLOAD DUP1 SWAP2 SUB SWAP1 RETURN JUMPDEST PUSH2 0x24F PUSH1 0x4 DUP1 CALLDATASIZE SUB DUP2 ADD SWAP1 PUSH2 0x24A SWAP2 SWAP1 PUSH2 0x28CE JUMP JUMPDEST PUSH2 0x6C1 JUMP JUMPDEST PUSH1 0x40 MLOAD PUSH2 0x25C SWAP2 SWAP1 PUSH2 0x2938 JUMP JUMPDEST PUSH1 0x40 MLOAD DUP1 SWAP2 SUB SWAP1 RETURN JUMPDEST PUSH2 0x27F PUSH1 0x4 DUP1 CALLDATASIZE SUB DUP2 ADD SWAP1 PUSH2 0x27A SWAP2 SWAP1 PUSH2 0x297B JUMP JUMPDEST PUSH2 0x6DC JUMP JUMPDEST STOP JUMPDEST PUSH2 0x29B PUSH1 0x4 DUP1 CALLDATASIZE SUB DUP2 ADD SWAP1 PUSH2 0x296 SWAP2 SWAP1 PUSH2 0x2AE5 JUMP JUMPDEST PUSH2 0x6F2 JUMP JUMPDEST PUSH1 0x40 MLOAD PUSH2 0x2AA SWAP4 SWAP3 SWAP2 SWAP1 PUSH2 0x2DC2 JUMP JUMPDEST PUSH1 0x40 MLOAD DUP1 SWAP2 SUB SWAP1 RETURN JUMPDEST PUSH2 0x2CD PUSH1 0x4 DUP1 CALLDATASIZE SUB DUP2 ADD SWAP1 PUSH2 0x2C8 SWAP2 SWAP1 PUSH2 0x2E0C JUMP JUMPDEST PUSH2 0xA5C JUMP JUMPDEST STOP JUMPDEST PUSH2 0x2E9 PUSH1 0x4 DUP1 CALLDATASIZE SUB DUP2 ADD SWAP1 PUSH2 0x2E4 SWAP2 SWAP1 PUSH2 0x2E8F JUMP JUMPDEST PUSH2 0xB5B JUMP JUMPDEST PUSH1 0x40 MLOAD PUSH2 0x2F6 SWAP2 SWAP1 PUSH2 0x2EC9 JUMP JUMPDEST PUSH1 0x40 MLOAD DUP1 SWAP2 SUB SWAP1 RETURN JUMPDEST PUSH2 0x319 PUSH1 0x4 DUP1 CALLDATASIZE SUB DUP2 ADD SWAP1 PUSH2 0x314 SWAP2 SWAP1 PUSH2 0x2EE2 JUMP JUMPDEST PUSH2 0xB78 JUMP JUMPDEST STOP JUMPDEST PUSH2 0x335 PUSH1 0x4 DUP1 CALLDATASIZE SUB DUP2 ADD SWAP1 PUSH2 0x330 SWAP2 SWAP1 PUSH2 0x2EE2 JUMP JUMPDEST PUSH2 0xB9A JUMP JUMPDEST STOP JUMPDEST PUSH2 0x351 PUSH1 0x4 DUP1 CALLDATASIZE SUB DUP2 ADD SWAP1 PUSH2 0x34C SWAP2 SWAP1 PUSH2 0x2F20 JUMP JUMPDEST PUSH2 0xC15 JUMP JUMPDEST STOP JUMPDEST PUSH2 0x36D PUSH1 0x4 DUP1 CALLDATASIZE SUB DUP2 ADD SWAP1 PUSH2 0x368 SWAP2 SWAP1 PUSH2 0x2F4B JUMP JUMPDEST PUSH2 0xC4F JUMP JUMPDEST STOP JUMPDEST PUSH2 0x377 PUSH2 0xF58 JUMP JUMPDEST STOP JUMPDEST PUSH2 0x393 PUSH1 0x4 DUP1 CALLDATASIZE SUB DUP2 ADD SWAP1 PUSH2 0x38E SWAP2 SWAP1 PUSH2 0x2FC1 JUMP JUMPDEST PUSH2 0xF6F JUMP JUMPDEST STOP JUMPDEST PUSH2 0x3AF PUSH1 0x4 DUP1 CALLDATASIZE SUB DUP2 ADD SWAP1 PUSH2 0x3AA SWAP2 SWAP1 PUSH2 0x2E0C JUMP JUMPDEST PUSH2 0x10CB JUMP JUMPDEST STOP JUMPDEST PUSH2 0x3CB PUSH1 0x4 DUP1 CALLDATASIZE SUB DUP2 ADD SWAP1 PUSH2 0x3C6 SWAP2 SWAP1 PUSH2 0x2F20 JUMP JUMPDEST PUSH2 0x10EA JUMP JUMPDEST STOP JUMPDEST PUSH2 0x3D5 PUSH2 0x1124 JUMP JUMPDEST PUSH1 0x40 MLOAD PUSH2 0x3E2 SWAP2 SWAP1 PUSH2 0x27F2 JUMP JUMPDEST PUSH1 0x40 MLOAD DUP1 SWAP2 SUB SWAP1 RETURN JUMPDEST PUSH2 0x405 PUSH1 0x4 DUP1 CALLDATASIZE SUB DUP2 ADD SWAP1 PUSH2 0x400 SWAP2 SWAP1 PUSH2 0x28CE JUMP JUMPDEST PUSH2 0x1139 JUMP JUMPDEST PUSH1 0x40 MLOAD PUSH2 0x412 SWAP2 SWAP1 PUSH2 0x2938 JUMP JUMPDEST PUSH1 0x40 MLOAD DUP1 SWAP2 SUB SWAP1 RETURN JUMPDEST PUSH2 0x435 PUSH1 0x4 DUP1 CALLDATASIZE SUB DUP2 ADD SWAP1 PUSH2 0x430 SWAP2 SWAP1 PUSH2 0x2F20 JUMP JUMPDEST PUSH2 0x114A JUMP JUMPDEST PUSH1 0x40 MLOAD PUSH2 0x442 SWAP2 SWAP1 PUSH2 0x302A JUMP JUMPDEST PUSH1 0x40 MLOAD DUP1 SWAP2 SUB SWAP1 RETURN JUMPDEST PUSH2 0x453 PUSH2 0x1200 JUMP JUMPDEST PUSH1 0x40 MLOAD PUSH2 0x460 SWAP2 SWAP1 PUSH2 0x302A JUMP JUMPDEST PUSH1 0x40 MLOAD DUP1 SWAP2 SUB SWAP1 RETURN JUMPDEST PUSH2 0x471 PUSH2 0x1206 JUMP JUMPDEST STOP JUMPDEST PUSH2 0x48D PUSH1 0x4 DUP1 CALLDATASIZE SUB DUP2 ADD SWAP1 PUSH2 0x488 SWAP2 SWAP1 PUSH2 0x2EE2 JUMP JUMPDEST PUSH2 0x121D JUMP JUMPDEST PUSH1 0x40 MLOAD PUSH2 0x49A SWAP2 SWAP1 PUSH2 0x27F2 JUMP JUMPDEST PUSH1 0x40 MLOAD DUP1 SWAP2 SUB SWAP1 RETURN JUMPDEST PUSH2 0x4AB PUSH2 0x1281 JUMP JUMPDEST PUSH1 0x40 MLOAD PUSH2 0x4B8 SWAP2 SWAP1 PUSH2 0x287B JUMP JUMPDEST PUSH1 0x40 MLOAD DUP1 SWAP2 SUB SWAP1 RETURN JUMPDEST PUSH2 0x4C9 PUSH2 0x1311 JUMP JUMPDEST PUSH1 0x40 MLOAD PUSH2 0x4D6 SWAP2 SWAP1 PUSH2 0x2EC9 JUMP JUMPDEST PUSH1 0x40 MLOAD DUP1 SWAP2 SUB SWAP1 RETURN JUMPDEST PUSH2 0x4E7 PUSH2 0x1335 JUMP JUMPDEST PUSH1 0x40 MLOAD PUSH2 0x4F4 SWAP2 SWAP1 PUSH2 0x2EC9 JUMP JUMPDEST PUSH1 0x40 MLOAD DUP1 SWAP2 SUB SWAP1 RETURN JUMPDEST PUSH2 0x517 PUSH1 0x4 DUP1 CALLDATASIZE SUB DUP2 ADD SWAP1 PUSH2 0x512 SWAP2 SWAP1 PUSH2 0x306D JUMP JUMPDEST PUSH2 0x133B JUMP JUMPDEST STOP JUMPDEST PUSH2 0x533 PUSH1 0x4 DUP1 CALLDATASIZE SUB DUP2 ADD SWAP1 PUSH2 0x52E SWAP2 SWAP1 PUSH2 0x2E8F JUMP JUMPDEST PUSH2 0x1351 JUMP JUMPDEST PUSH1 0x40 MLOAD PUSH2 0x540 SWAP2 SWAP1 PUSH2 0x302A JUMP JUMPDEST PUSH1 0x40 MLOAD DUP1 SWAP2 SUB SWAP1 RETURN JUMPDEST PUSH2 0x563 PUSH1 0x4 DUP1 CALLDATASIZE SUB DUP2 ADD SWAP1 PUSH2 0x55E SWAP2 SWAP1 PUSH2 0x3149 JUMP JUMPDEST PUSH2 0x1366 JUMP JUMPDEST STOP JUMPDEST PUSH2 0x57F PUSH1 0x4 DUP1 CALLDATASIZE SUB DUP2 ADD SWAP1 PUSH2 0x57A SWAP2 SWAP1 PUSH2 0x28CE JUMP JUMPDEST PUSH2 0x138B JUMP JUMPDEST PUSH1 0x40 MLOAD PUSH2 0x58C SWAP2 SWAP1 PUSH2 0x287B JUMP JUMPDEST PUSH1 0x40 MLOAD DUP1 SWAP2 SUB SWAP1 RETURN JUMPDEST PUSH2 0x5AF PUSH1 0x4 DUP1 CALLDATASIZE SUB DUP2 ADD SWAP1 PUSH2 0x5AA SWAP2 SWAP1 PUSH2 0x2EE2 JUMP JUMPDEST PUSH2 0x13F1 JUMP JUMPDEST STOP JUMPDEST PUSH2 0x5CB PUSH1 0x4 DUP1 CALLDATASIZE SUB DUP2 ADD SWAP1 PUSH2 0x5C6 SWAP2 SWAP1 PUSH2 0x31C9 JUMP JUMPDEST PUSH2 0x1413 JUMP JUMPDEST PUSH1 0x40 MLOAD PUSH2 0x5D8 SWAP2 SWAP1 PUSH2 0x27F2 JUMP JUMPDEST PUSH1 0x40 MLOAD DUP1 SWAP2 SUB SWAP1 RETURN JUMPDEST PUSH2 0x5FB PUSH1 0x4 DUP1 CALLDATASIZE SUB DUP2 ADD SWAP1 PUSH2 0x5F6 SWAP2 SWAP1 PUSH2 0x28CE JUMP JUMPDEST PUSH2 0x14A1 JUMP JUMPDEST PUSH1 0x40 MLOAD PUSH2 0x608 SWAP2 SWAP1 PUSH2 0x287B JUMP JUMPDEST PUSH1 0x40 MLOAD DUP1 SWAP2 SUB SWAP1 RETURN JUMPDEST PUSH0 PUSH2 0x61B DUP3 PUSH2 0x153C JUMP JUMPDEST DUP1 PUSH2 0x62B JUMPI POP PUSH2 0x62A DUP3 PUSH2 0x161D JUMP JUMPDEST JUMPDEST SWAP1 POP SWAP2 SWAP1 POP JUMP JUMPDEST PUSH1 0x60 PUSH0 DUP1 SLOAD PUSH2 0x640 SWAP1 PUSH2 0x3234 JUMP JUMPDEST DUP1 PUSH1 0x1F ADD PUSH1 0x20 DUP1 SWAP2 DIV MUL PUSH1 0x20 ADD PUSH1 0x40 MLOAD SWAP1 DUP2 ADD PUSH1 0x40 MSTORE DUP1 SWAP3 SWAP2 SWAP1 DUP2 DUP2 MSTORE PUSH1 0x20 ADD DUP3 DUP1 SLOAD PUSH2 0x66C SWAP1 PUSH2 0x3234 JUMP JUMPDEST DUP1 ISZERO PUSH2 0x6B7 JUMPI DUP1 PUSH1 0x1F LT PUSH2 0x68E JUMPI PUSH2 0x100 DUP1 DUP4 SLOAD DIV MUL DUP4 MSTORE SWAP2 PUSH1 0x20 ADD SWAP2 PUSH2 0x6B7 JUMP JUMPDEST DUP3 ADD SWAP2 SWAP1 PUSH0 MSTORE PUSH1 0x20 PUSH0 KECCAK256 SWAP1 JUMPDEST DUP2 SLOAD DUP2 MSTORE SWAP1 PUSH1 0x1 ADD SWAP1 PUSH1 0x20 ADD DUP1 DUP4 GT PUSH2 0x69A JUMPI DUP3 SWAP1 SUB PUSH1 0x1F AND DUP3 ADD SWAP2 JUMPDEST POP POP POP POP POP SWAP1 POP SWAP1 JUMP JUMPDEST PUSH0 PUSH2 0x6CB DUP3 PUSH2 0x1696 JUMP JUMPDEST POP PUSH2 0x6D5 DUP3 PUSH2 0x171C JUMP JUMPDEST SWAP1 POP SWAP2 SWAP1 POP JUMP JUMPDEST PUSH2 0x6EE DUP3 DUP3 PUSH2 0x6E9 PUSH2 0x1755 JUMP JUMPDEST PUSH2 0x175C JUMP JUMPDEST POP POP JUMP JUMPDEST PUSH1 0x60 DUP1 PUSH1 0x60 PUSH0 DUP7 DUP1 MLOAD SWAP1 PUSH1 0x20 ADD KECCAK256 SWAP1 POP PUSH0 PUSH1 0x8 PUSH0 DUP4 DUP2 MSTORE PUSH1 0x20 ADD SWAP1 DUP2 MSTORE PUSH1 0x20 ADD PUSH0 KECCAK256 SLOAD SWAP1 POP PUSH0 DUP2 SUB PUSH2 0x759 JUMPI PUSH1 0x40 MLOAD PUSH32 0x8C379A000000000000000000000000000000000000000000000000000000000 DUP2 MSTORE PUSH1 0x4 ADD PUSH2 0x750 SWAP1 PUSH2 0x32AE JUMP JUMPDEST PUSH1 0x40 MLOAD DUP1 SWAP2 SUB SWAP1 REVERT JUMPDEST PUSH0 PUSH1 0xA PUSH0 DUP4 DUP2 MSTORE PUSH1 0x20 ADD SWAP1 DUP2 MSTORE PUSH1 0x20 ADD PUSH0 KECCAK256 SWAP1 POP DUP1 DUP1 SLOAD SWAP1 POP DUP9 LT PUSH2 0x7B3 JUMPI PUSH1 0x40 MLOAD PUSH32 0x8C379A000000000000000000000000000000000000000000000000000000000 DUP2 MSTORE PUSH1 0x4 ADD PUSH2 0x7AA SWAP1 PUSH2 0x3316 JUMP JUMPDEST PUSH1 0x40 MLOAD DUP1 SWAP2 SUB SWAP1 REVERT JUMPDEST PUSH0 DUP8 DUP10 PUSH2 0x7C0 SWAP2 SWAP1 PUSH2 0x3361 JUMP JUMPDEST SWAP1 POP DUP2 DUP1 SLOAD SWAP1 POP DUP2 GT ISZERO PUSH2 0x7D6 JUMPI DUP2 DUP1 SLOAD SWAP1 POP SWAP1 POP JUMPDEST PUSH0 DUP10 DUP3 PUSH2 0x7E3 SWAP2 SWAP1 PUSH2 0x3394 JUMP JUMPDEST SWAP1 POP DUP1 PUSH8 0xFFFFFFFFFFFFFFFF DUP2 GT ISZERO PUSH2 0x7FF JUMPI PUSH2 0x7FE PUSH2 0x29C1 JUMP JUMPDEST JUMPDEST PUSH1 0x40 MLOAD SWAP1 DUP1 DUP3 MSTORE DUP1 PUSH1 0x20 MUL PUSH1 0x20 ADD DUP3 ADD PUSH1 0x40 MSTORE DUP1 ISZERO PUSH2 0x82D JUMPI DUP2 PUSH1 0x20 ADD PUSH1 0x20 DUP3 MUL DUP1 CALLDATASIZE DUP4 CALLDATACOPY DUP1 DUP3 ADD SWAP2 POP POP SWAP1 POP JUMPDEST POP SWAP8 POP DUP1 PUSH8 0xFFFFFFFFFFFFFFFF DUP2 GT ISZERO PUSH2 0x84A JUMPI PUSH2 0x849 PUSH2 0x29C1 JUMP JUMPDEST JUMPDEST PUSH1 0x40 MLOAD SWAP1 DUP1 DUP3 MSTORE DUP1 PUSH1 0x20 MUL PUSH1 0x20 ADD DUP3 ADD PUSH1 0x40 MSTORE DUP1 ISZERO PUSH2 0x87D JUMPI DUP2 PUSH1 0x20 ADD JUMPDEST PUSH1 0x60 DUP2 MSTORE PUSH1 0x20 ADD SWAP1 PUSH1 0x1 SWAP1 SUB SWAP1 DUP2 PUSH2 0x868 JUMPI SWAP1 POP JUMPDEST POP SWAP7 POP DUP1 PUSH8 0xFFFFFFFFFFFFFFFF DUP2 GT ISZERO PUSH2 0x89A JUMPI PUSH2 0x899 PUSH2 0x29C1 JUMP JUMPDEST JUMPDEST PUSH1 0x40 MLOAD SWAP1 DUP1 DUP3 MSTORE DUP1 PUSH1 0x20 MUL PUSH1 0x20 ADD DUP3 ADD PUSH1 0x40 MSTORE DUP1 ISZERO PUSH2 0x8C8 JUMPI DUP2 PUSH1 0x20 ADD PUSH1 0x20 DUP3 MUL DUP1 CALLDATASIZE DUP4 CALLDATACOPY DUP1 DUP3 ADD SWAP2 POP POP SWAP1 POP JUMPDEST POP SWAP6 POP PUSH0 JUMPDEST DUP2 DUP2 LT ISZERO PUSH2 0xA4D JUMPI PUSH0 DUP5 DUP3 DUP14 PUSH2 0x8E3 SWAP2 SWAP1 PUSH2 0x3361 JUMP JUMPDEST DUP2 SLOAD DUP2 LT PUSH2 0x8F4 JUMPI PUSH2 0x8F3 PUSH2 0x33C7 JUMP JUMPDEST JUMPDEST SWAP1 PUSH0 MSTORE PUSH1 0x20 PUSH0 KECCAK256 SWAP1 PUSH1 0x3 MUL ADD SWAP1 POP DUP1 PUSH0 ADD SLOAD DUP11 DUP4 DUP2 MLOAD DUP2 LT PUSH2 0x919 JUMPI PUSH2 0x918 PUSH2 0x33C7 JUMP JUMPDEST JUMPDEST PUSH1 0x20 MUL PUSH1 0x20 ADD ADD DUP2 DUP2 MSTORE POP POP DUP1 PUSH1 0x1 ADD DUP1 SLOAD PUSH2 0x934 SWAP1 PUSH2 0x3234 JUMP JUMPDEST DUP1 PUSH1 0x1F ADD PUSH1 0x20 DUP1 SWAP2 DIV MUL PUSH1 0x20 ADD PUSH1 0x40 MLOAD SWAP1 DUP2 ADD PUSH1 0x40 MSTORE DUP1 SWAP3 SWAP2 SWAP1 DUP2 DUP2 MSTORE PUSH1 0x20 ADD DUP3 DUP1 SLOAD PUSH2 0x960 SWAP1 PUSH2 0x3234 JUMP JUMPDEST DUP1 ISZERO PUSH2 0x9AB JUMPI DUP1 PUSH1 0x1F LT PUSH2 0x982 JUMPI PUSH2 0x100 DUP1 DUP4 SLOAD DIV MUL DUP4 MSTORE SWAP2 PUSH1 0x20 ADD SWAP2 PUSH2 0x9AB JUMP JUMPDEST DUP3 ADD SWAP2 SWAP1 PUSH0 MSTORE PUSH1 0x20 PUSH0 KECCAK256 SWAP1 JUMPDEST DUP2 SLOAD DUP2 MSTORE SWAP1 PUSH1 0x1 ADD SWAP1 PUSH1 0x20 ADD DUP1 DUP4 GT PUSH2 0x98E JUMPI DUP3 SWAP1 SUB PUSH1 0x1F AND DUP3 ADD SWAP2 JUMPDEST POP POP POP POP POP DUP10 DUP4 DUP2 MLOAD DUP2 LT PUSH2 0x9C3 JUMPI PUSH2 0x9C2 PUSH2 0x33C7 JUMP JUMPDEST JUMPDEST PUSH1 0x20 MUL PUSH1 0x20 ADD ADD DUP2 SWAP1 MSTORE POP DUP1 PUSH1 0x2 ADD PUSH0 SWAP1 SLOAD SWAP1 PUSH2 0x100 EXP SWAP1 DIV PUSH20 0xFFFFFFFFFFFFFFFFFFFFFFFFFFFFFFFFFFFFFFFF AND DUP9 DUP4 DUP2 MLOAD DUP2 LT PUSH2 0xA05 JUMPI PUSH2 0xA04 PUSH2 0x33C7 JUMP JUMPDEST JUMPDEST PUSH1 0x20 MUL PUSH1 0x20 ADD ADD SWAP1 PUSH20 0xFFFFFFFFFFFFFFFFFFFFFFFFFFFFFFFFFFFFFFFF AND SWAP1 DUP2 PUSH20 0xFFFFFFFFFFFFFFFFFFFFFFFFFFFFFFFFFFFFFFFF AND DUP2 MSTORE POP POP POP DUP1 DUP1 PUSH1 0x1 ADD SWAP2 POP POP PUSH2 0x8CD JUMP JUMPDEST POP POP POP POP POP POP SWAP4 POP SWAP4 POP SWAP4 SWAP1 POP JUMP JUMPDEST PUSH0 PUSH20 0xFFFFFFFFFFFFFFFFFFFFFFFFFFFFFFFFFFFFFFFF AND DUP3 PUSH20 0xFFFFFFFFFFFFFFFFFFFFFFFFFFFFFFFFFFFFFFFF AND SUB PUSH2 0xACC JUMPI PUSH0 PUSH1 0x40 MLOAD PUSH32 0x64A0AE9200000000000000000000000000000000000000000000000000000000 DUP2 MSTORE PUSH1 0x4 ADD PUSH2 0xAC3 SWAP2 SWAP1 PUSH2 0x2938 JUMP JUMPDEST PUSH1 0x40 MLOAD DUP1 SWAP2 SUB SWAP1 REVERT JUMPDEST PUSH0 PUSH2 0xADF DUP4 DUP4 PUSH2 0xADA PUSH2 0x1755 JUMP JUMPDEST PUSH2 0x176E JUMP JUMPDEST SWAP1 POP DUP4 PUSH20 0xFFFFFFFFFFFFFFFFFFFFFFFFFFFFFFFFFFFFFFFF AND DUP2 PUSH20 0xFFFFFFFFFFFFFFFFFFFFFFFFFFFFFFFFFFFFFFFF AND EQ PUSH2 0xB55 JUMPI DUP4 DUP3 DUP3 PUSH1 0x40 MLOAD PUSH32 0x64283D7B00000000000000000000000000000000000000000000000000000000 DUP2 MSTORE PUSH1 0x4 ADD PUSH2 0xB4C SWAP4 SWAP3 SWAP2 SWAP1 PUSH2 0x33F4 JUMP JUMPDEST PUSH1 0x40 MLOAD DUP1 SWAP2 SUB SWAP1 REVERT JUMPDEST POP POP POP POP JUMP JUMPDEST PUSH0 PUSH1 0x6 PUSH0 DUP4 DUP2 MSTORE PUSH1 0x20 ADD SWAP1 DUP2 MSTORE PUSH1 0x20 ADD PUSH0 KECCAK256 PUSH1 0x1 ADD SLOAD SWAP1 POP SWAP2 SWAP1 POP JUMP JUMPDEST PUSH2 0xB81 DUP3 PUSH2 0xB5B JUMP JUMPDEST PUSH2 0xB8A DUP2 PUSH2 0x1790 JUMP JUMPDEST PUSH2 0xB94 DUP4 DUP4 PUSH2 0x17A4 JUMP JUMPDEST POP POP POP POP JUMP JUMPDEST PUSH2 0xBA2 PUSH2 0x1755 JUMP JUMPDEST PUSH20 0xFFFFFFFFFFFFFFFFFFFFFFFFFFFFFFFFFFFFFFFF AND DUP2 PUSH20 0xFFFFFFFFFFFFFFFFFFFFFFFFFFFFFFFFFFFFFFFF AND EQ PUSH2 0xC06 JUMPI PUSH1 0x40 MLOAD PUSH32 0x6697B23200000000000000000000000000000000000000000000000000000000 DUP2 MSTORE PUSH1 0x4 ADD PUSH1 0x40 MLOAD DUP1 SWAP2 SUB SWAP1 REVERT JUMPDEST PUSH2 0xC10 DUP3 DUP3 PUSH2 0x188E JUMP JUMPDEST POP POP POP JUMP JUMPDEST PUSH0 DUP1 SHL PUSH2 0xC21 DUP2 PUSH2 0x1790 JUMP JUMPDEST PUSH2 0xC4B PUSH32 0xD8A7A79547AF723EE3E12B59A480111268D8969C634E1A34A144D2C8B91D635B DUP4 PUSH2 0xB78 JUMP JUMPDEST POP POP JUMP JUMPDEST PUSH32 0xD8A7A79547AF723EE3E12B59A480111268D8969C634E1A34A144D2C8B91D635B PUSH2 0xC79 DUP2 PUSH2 0x1790 JUMP JUMPDEST PUSH1 0x11 DUP4 MLOAD EQ PUSH2 0xCBD JUMPI PUSH1 0x40 MLOAD PUSH32 0x8C379A000000000000000000000000000000000000000000000000000000000 DUP2 MSTORE PUSH1 0x4 ADD PUSH2 0xCB4 SWAP1 PUSH2 0x3473 JUMP JUMPDEST PUSH1 0x40 MLOAD DUP1 SWAP2 SUB SWAP1 REVERT JUMPDEST PUSH0 DUP3 MLOAD GT PUSH2 0xD00 JUMPI PUSH1 0x40 MLOAD PUSH32 0x8C379A000000000000000000000000000000000000000000000000000000000 DUP2 MSTORE PUSH1 0x4 ADD PUSH2 0xCF7 SWAP1 PUSH2 0x34DB JUMP JUMPDEST PUSH1 0x40 MLOAD DUP1 SWAP2 SUB SWAP1 REVERT JUMPDEST PUSH0 DUP4 DUP1 MLOAD SWAP1 PUSH1 0x20 ADD KECCAK256 SWAP1 POP PUSH0 PUSH1 0x8 PUSH0 DUP4 DUP2 MSTORE PUSH1 0x20 ADD SWAP1 DUP2 MSTORE PUSH1 0x20 ADD PUSH0 KECCAK256 SLOAD SWAP1 POP PUSH0 DUP2 SUB PUSH2 0xD62 JUMPI PUSH1 0x40 MLOAD PUSH32 0x8C379A000000000000000000000000000000000000000000000000000000000 DUP2 MSTORE PUSH1 0x4 ADD PUSH2 0xD59 SWAP1 PUSH2 0x32AE JUMP JUMPDEST PUSH1 0x40 MLOAD DUP1 SWAP2 SUB SWAP1 REVERT JUMPDEST PUSH0 DUP5 TIMESTAMP PUSH1 0x40 MLOAD PUSH1 0x20 ADD PUSH2 0xD76 SWAP3 SWAP2 SWAP1 PUSH2 0x3553 JUMP JUMPDEST PUSH1 0x40 MLOAD PUSH1 0x20 DUP2 DUP4 SUB SUB DUP2 MSTORE SWAP1 PUSH1 0x40 MSTORE DUP1 MLOAD SWAP1 PUSH1 0x20 ADD KECCAK256 SWAP1 POP PUSH1 0xB PUSH0 DUP4 DUP2 MSTORE PUSH1 0x20 ADD SWAP1 DUP2 MSTORE PUSH1 0x20 ADD PUSH0 KECCAK256 PUSH0 DUP3 DUP2 MSTORE PUSH1 0x20 ADD SWAP1 DUP2 MSTORE PUSH1 0x20 ADD PUSH0 KECCAK256 PUSH0 SWAP1 SLOAD SWAP1 PUSH2 0x100 EXP SWAP1 DIV PUSH1 0xFF AND ISZERO PUSH2 0xDFB JUMPI PUSH1 0x40 MLOAD PUSH32 0x8C379A000000000000000000000000000000000000000000000000000000000 DUP2 MSTORE PUSH1 0x4 ADD PUSH2 0xDF2 SWAP1 PUSH2 0x35C4 JUMP JUMPDEST PUSH1 0x40 MLOAD DUP1 SWAP2 SUB SWAP1 REVERT JUMPDEST PUSH1 0xA PUSH0 DUP4 DUP2 MSTORE PUSH1 0x20 ADD SWAP1 DUP2 MSTORE PUSH1 0x20 ADD PUSH0 KECCAK256 PUSH1 0x40 MLOAD DUP1 PUSH1 0x60 ADD PUSH1 0x40 MSTORE DUP1 TIMESTAMP DUP2 MSTORE PUSH1 0x20 ADD DUP8 DUP2 MSTORE PUSH1 0x20 ADD CALLER PUSH20 0xFFFFFFFFFFFFFFFFFFFFFFFFFFFFFFFFFFFFFFFF AND DUP2 MSTORE POP SWAP1 DUP1 PUSH1 0x1 DUP2 SLOAD ADD DUP1 DUP3 SSTORE DUP1 SWAP2 POP POP PUSH1 0x1 SWAP1 SUB SWAP1 PUSH0 MSTORE PUSH1 0x20 PUSH0 KECCAK256 SWAP1 PUSH1 0x3 MUL ADD PUSH0 SWAP1 SWAP2 SWAP1 SWAP2 SWAP1 SWAP2 POP PUSH0 DUP3 ADD MLOAD DUP2 PUSH0 ADD SSTORE PUSH1 0x20 DUP3 ADD MLOAD DUP2 PUSH1 0x1 ADD SWAP1 DUP2 PUSH2 0xE80 SWAP2 SWAP1 PUSH2 0x377F JUMP JUMPDEST POP PUSH1 0x40 DUP3 ADD MLOAD DUP2 PUSH1 0x2 ADD PUSH0 PUSH2 0x100 EXP DUP2 SLOAD DUP2 PUSH20 0xFFFFFFFFFFFFFFFFFFFFFFFFFFFFFFFFFFFFFFFF MUL NOT AND SWAP1 DUP4 PUSH20 0xFFFFFFFFFFFFFFFFFFFFFFFFFFFFFFFFFFFFFFFF AND MUL OR SWAP1 SSTORE POP POP POP PUSH1 0x1 PUSH1 0xB PUSH0 DUP5 DUP2 MSTORE PUSH1 0x20 ADD SWAP1 DUP2 MSTORE PUSH1 0x20 ADD PUSH0 KECCAK256 PUSH0 DUP4 DUP2 MSTORE PUSH1 0x20 ADD SWAP1 DUP2 MSTORE PUSH1 0x20 ADD PUSH0 KECCAK256 PUSH0 PUSH2 0x100 EXP DUP2 SLOAD DUP2 PUSH1 0xFF MUL NOT AND SWAP1 DUP4 ISZERO ISZERO MUL OR SWAP1 SSTORE POP CALLER PUSH20 0xFFFFFFFFFFFFFFFFFFFFFFFFFFFFFFFFFFFFFFFF AND DUP3 PUSH32 0x4028BBC2891469A8E33F5819D6271936D5DB9FC32E50A0BC15F0D24491B160B6 DUP8 PUSH1 0x40 MLOAD PUSH2 0xF48 SWAP2 SWAP1 PUSH2 0x287B JUMP JUMPDEST PUSH1 0x40 MLOAD DUP1 SWAP2 SUB SWAP1 LOG3 POP POP POP POP POP POP JUMP JUMPDEST PUSH0 DUP1 SHL PUSH2 0xF64 DUP2 PUSH2 0x1790 JUMP JUMPDEST PUSH2 0xF6C PUSH2 0x1978 JUMP JUMPDEST POP JUMP JUMPDEST PUSH0 DUP1 SHL PUSH2 0xF7B DUP2 PUSH2 0x1790 JUMP JUMPDEST PUSH1 0x11 DUP4 MLOAD EQ PUSH2 0xFBF JUMPI PUSH1 0x40 MLOAD PUSH32 0x8C379A000000000000000000000000000000000000000000000000000000000 DUP2 MSTORE PUSH1 0x4 ADD PUSH2 0xFB6 SWAP1 PUSH2 0x3473 JUMP JUMPDEST PUSH1 0x40 MLOAD DUP1 SWAP2 SUB SWAP1 REVERT JUMPDEST PUSH0 DUP4 DUP1 MLOAD SWAP1 PUSH1 0x20 ADD KECCAK256 SWAP1 POP PUSH0 PUSH1 0x8 PUSH0 DUP4 DUP2 MSTORE PUSH1 0x20 ADD SWAP1 DUP2 MSTORE PUSH1 0x20 ADD PUSH0 KECCAK256 SLOAD EQ PUSH2 0x101D JUMPI PUSH1 0x40 MLOAD PUSH32 0x8C379A000000000000000000000000000000000000000000000000000000000 DUP2 MSTORE PUSH1 0x4 ADD PUSH2 0x1014 SWAP1 PUSH2 0x3898 JUMP JUMPDEST PUSH1 0x40 MLOAD DUP1 SWAP2 SUB SWAP1 REVERT JUMPDEST PUSH0 PUSH1 0xC PUSH0 DUP2 SLOAD DUP1 SWAP3 SWAP2 SWAP1 PUSH2 0x1030 SWAP1 PUSH2 0x38B6 JUMP JUMPDEST SWAP2 SWAP1 POP SSTORE SWAP1 POP PUSH2 0x1040 DUP5 DUP3 PUSH2 0x19D9 JUMP JUMPDEST DUP1 PUSH1 0x8 PUSH0 DUP5 DUP2 MSTORE PUSH1 0x20 ADD SWAP1 DUP2 MSTORE PUSH1 0x20 ADD PUSH0 KECCAK256 DUP2 SWAP1 SSTORE POP DUP5 PUSH1 0x9 PUSH0 DUP4 DUP2 MSTORE PUSH1 0x20 ADD SWAP1 DUP2 MSTORE PUSH1 0x20 ADD PUSH0 KECCAK256 SWAP1 DUP2 PUSH2 0x1074 SWAP2 SWAP1 PUSH2 0x377F JUMP JUMPDEST POP DUP4 PUSH20 0xFFFFFFFFFFFFFFFFFFFFFFFFFFFFFFFFFFFFFFFF AND DUP2 PUSH32 0x5420A1CCC7B253F8A4BBDC9591D9EDBD00C606B1D8962FA3292E65F6272A4D09 DUP8 PUSH1 0x40 MLOAD PUSH2 0x10BC SWAP2 SWAP1 PUSH2 0x287B JUMP JUMPDEST PUSH1 0x40 MLOAD DUP1 SWAP2 SUB SWAP1 LOG3 POP POP POP POP POP JUMP JUMPDEST PUSH2 0x10E5 DUP4 DUP4 DUP4 PUSH1 0x40 MLOAD DUP1 PUSH1 0x20 ADD PUSH1 0x40 MSTORE DUP1 PUSH0 DUP2 MSTORE POP PUSH2 0x1366 JUMP JUMPDEST POP POP POP JUMP JUMPDEST PUSH0 DUP1 SHL PUSH2 0x10F6 DUP2 PUSH2 0x1790 JUMP JUMPDEST PUSH2 0x1120 PUSH32 0xD8A7A79547AF723EE3E12B59A480111268D8969C634E1A34A144D2C8B91D635B DUP4 PUSH2 0x13F1 JUMP JUMPDEST POP POP JUMP JUMPDEST PUSH0 PUSH1 0x7 PUSH0 SWAP1 SLOAD SWAP1 PUSH2 0x100 EXP SWAP1 DIV PUSH1 0xFF AND SWAP1 POP SWAP1 JUMP JUMPDEST PUSH0 PUSH2 0x1143 DUP3 PUSH2 0x1696 JUMP JUMPDEST SWAP1 POP SWAP2 SWAP1 POP JUMP JUMPDEST PUSH0 DUP1 PUSH20 0xFFFFFFFFFFFFFFFFFFFFFFFFFFFFFFFFFFFFFFFF AND DUP3 PUSH20 0xFFFFFFFFFFFFFFFFFFFFFFFFFFFFFFFFFFFFFFFF AND SUB PUSH2 0x11BB JUMPI PUSH0 PUSH1 0x40 MLOAD PUSH32 0x89C62B6400000000000000000000000000000000000000000000000000000000 DUP2 MSTORE PUSH1 0x4 ADD PUSH2 0x11B2 SWAP2 SWAP1 PUSH2 0x2938 JUMP JUMPDEST PUSH1 0x40 MLOAD DUP1 SWAP2 SUB SWAP1 REVERT JUMPDEST PUSH1 0x3 PUSH0 DUP4 PUSH20 0xFFFFFFFFFFFFFFFFFFFFFFFFFFFFFFFFFFFFFFFF AND PUSH20 0xFFFFFFFFFFFFFFFFFFFFFFFFFFFFFFFFFFFFFFFF AND DUP2 MSTORE PUSH1 0x20 ADD SWAP1 DUP2 MSTORE PUSH1 0x20 ADD PUSH0 KECCAK256 SLOAD SWAP1 POP SWAP2 SWAP1 POP JUMP JUMPDEST PUSH1 0xC SLOAD DUP2 JUMP JUMPDEST PUSH0 DUP1 SHL PUSH2 0x1212 DUP2 PUSH2 0x1790 JUMP JUMPDEST PUSH2 0x121A PUSH2 0x1ACC JUMP JUMPDEST POP JUMP JUMPDEST PUSH0 PUSH1 0x6 PUSH0 DUP5 DUP2 MSTORE PUSH1 0x20 ADD SWAP1 DUP2 MSTORE PUSH1 0x20 ADD PUSH0 KECCAK256 PUSH0 ADD PUSH0 DUP4 PUSH20 0xFFFFFFFFFFFFFFFFFFFFFFFFFFFFFFFFFFFFFFFF AND PUSH20 0xFFFFFFFFFFFFFFFFFFFFFFFFFFFFFFFFFFFFFFFF AND DUP2 MSTORE PUSH1 0x20 ADD SWAP1 DUP2 MSTORE PUSH1 0x20 ADD PUSH0 KECCAK256 PUSH0 SWAP1 SLOAD SWAP1 PUSH2 0x100 EXP SWAP1 DIV PUSH1 0xFF AND SWAP1 POP SWAP3 SWAP2 POP POP JUMP JUMPDEST PUSH1 0x60 PUSH1 0x1 DUP1 SLOAD PUSH2 0x1290 SWAP1 PUSH2 0x3234 JUMP JUMPDEST DUP1 PUSH1 0x1F ADD PUSH1 0x20 DUP1 SWAP2 DIV MUL PUSH1 0x20 ADD PUSH1 0x40 MLOAD SWAP1 DUP2 ADD PUSH1 0x40 MSTORE DUP1 SWAP3 SWAP2 SWAP1 DUP2 DUP2 MSTORE PUSH1 0x20 ADD DUP3 DUP1 SLOAD PUSH2 0x12BC SWAP1 PUSH2 0x3234 JUMP JUMPDEST DUP1 ISZERO PUSH2 0x1307 JUMPI DUP1 PUSH1 0x1F LT PUSH2 0x12DE JUMPI PUSH2 0x100 DUP1 DUP4 SLOAD DIV MUL DUP4 MSTORE SWAP2 PUSH1 0x20 ADD SWAP2 PUSH2 0x1307 JUMP JUMPDEST DUP3 ADD SWAP2 SWAP1 PUSH0 MSTORE PUSH1 0x20 PUSH0 KECCAK256 SWAP1 JUMPDEST DUP2 SLOAD DUP2 MSTORE SWAP1 PUSH1 0x1 ADD SWAP1 PUSH1 0x20 ADD DUP1 DUP4 GT PUSH2 0x12EA JUMPI DUP3 SWAP1 SUB PUSH1 0x1F AND DUP3 ADD SWAP2 JUMPDEST POP POP POP POP POP SWAP1 POP SWAP1 JUMP JUMPDEST PUSH32 0xD8A7A79547AF723EE3E12B59A480111268D8969C634E1A34A144D2C8B91D635B DUP2 JUMP JUMPDEST PUSH0 DUP1 SHL DUP2 JUMP JUMPDEST PUSH2 0x134D PUSH2 0x1346 PUSH2 0x1755 JUMP JUMPDEST DUP4 DUP4 PUSH2 0x1B2E JUMP JUMPDEST POP POP JUMP JUMPDEST PUSH1 0x8 PUSH1 0x20 MSTORE DUP1 PUSH0 MSTORE PUSH1 0x40 PUSH0 KECCAK256 PUSH0 SWAP2 POP SWAP1 POP SLOAD DUP2 JUMP JUMPDEST PUSH2 0x1371 DUP5 DUP5 DUP5 PUSH2 0xA5C JUMP JUMPDEST PUSH2 0x1385 PUSH2 0x137C PUSH2 0x1755 JUMP JUMPDEST DUP6 DUP6 DUP6 DUP6 PUSH2 0x1C97 JUMP JUMPDEST POP POP POP POP JUMP JUMPDEST PUSH1 0x60 PUSH2 0x1396 DUP3 PUSH2 0x1696 JUMP JUMPDEST POP PUSH0 PUSH2 0x13A0 PUSH2 0x1E43 JUMP JUMPDEST SWAP1 POP PUSH0 DUP2 MLOAD GT PUSH2 0x13BE JUMPI PUSH1 0x40 MLOAD DUP1 PUSH1 0x20 ADD PUSH1 0x40 MSTORE DUP1 PUSH0 DUP2 MSTORE POP PUSH2 0x13E9 JUMP JUMPDEST DUP1 PUSH2 0x13C8 DUP5 PUSH2 0x1E59 JUMP JUMPDEST PUSH1 0x40 MLOAD PUSH1 0x20 ADD PUSH2 0x13D9 SWAP3 SWAP2 SWAP1 PUSH2 0x38FD JUMP JUMPDEST PUSH1 0x40 MLOAD PUSH1 0x20 DUP2 DUP4 SUB SUB DUP2 MSTORE SWAP1 PUSH1 0x40 MSTORE JUMPDEST SWAP2 POP POP SWAP2 SWAP1 POP JUMP JUMPDEST PUSH2 0x13FA DUP3 PUSH2 0xB5B JUMP JUMPDEST PUSH2 0x1403 DUP2 PUSH2 0x1790 JUMP JUMPDEST PUSH2 0x140D DUP4 DUP4 PUSH2 0x188E JUMP JUMPDEST POP POP POP POP JUMP JUMPDEST PUSH0 PUSH1 0x5 PUSH0 DUP5 PUSH20 0xFFFFFFFFFFFFFFFFFFFFFFFFFFFFFFFFFFFFFFFF AND PUSH20 0xFFFFFFFFFFFFFFFFFFFFFFFFFFFFFFFFFFFFFFFF AND DUP2 MSTORE PUSH1 0x20 ADD SWAP1 DUP2 MSTORE PUSH1 0x20 ADD PUSH0 KECCAK256 PUSH0 DUP4 PUSH20 0xFFFFFFFFFFFFFFFFFFFFFFFFFFFFFFFFFFFFFFFF AND PUSH20 0xFFFFFFFFFFFFFFFFFFFFFFFFFFFFFFFFFFFFFFFF AND DUP2 MSTORE PUSH1 0x20 ADD SWAP1 DUP2 MSTORE PUSH1 0x20 ADD PUSH0 KECCAK256 PUSH0 SWAP1 SLOAD SWAP1 PUSH2 0x100 EXP SWAP1 DIV PUSH1 0xFF AND SWAP1 POP SWAP3 SWAP2 POP POP JUMP JUMPDEST PUSH1 0x9 PUSH1 0x20 MSTORE DUP1 PUSH0 MSTORE PUSH1 0x40 PUSH0 KECCAK256 PUSH0 SWAP2 POP SWAP1 POP DUP1 SLOAD PUSH2 0x14BD SWAP1 PUSH2 0x3234 JUMP JUMPDEST DUP1 PUSH1 0x1F ADD PUSH1 0x20 DUP1 SWAP2 DIV MUL PUSH1 0x20 ADD PUSH1 0x40 MLOAD SWAP1 DUP2 ADD PUSH1 0x40 MSTORE DUP1 SWAP3 SWAP2 SWAP1 DUP2 DUP2 MSTORE PUSH1 0x20 ADD DUP3 DUP1 SLOAD PUSH2 0x14E9 SWAP1 PUSH2 0x3234 JUMP JUMPDEST DUP1 ISZERO PUSH2 0x1534 JUMPI DUP1 PUSH1 0x1F LT PUSH2 0x150B JUMPI PUSH2 0x100 DUP1 DUP4 SLOAD DIV MUL DUP4 MSTORE SWAP2 PUSH1 0x20 ADD SWAP2 PUSH2 0x1534 JUMP JUMPDEST DUP3 ADD SWAP2 SWAP1 PUSH0 MSTORE PUSH1 0x20 PUSH0 KECCAK256 SWAP1 JUMPDEST DUP2 SLOAD DUP2 MSTORE SWAP1 PUSH1 0x1 ADD SWAP1 PUSH1 0x20 ADD DUP1 DUP4 GT PUSH2 0x1517 JUMPI DUP3 SWAP1 SUB PUSH1 0x1F AND DUP3 ADD SWAP2 JUMPDEST POP POP POP POP POP DUP2 JUMP JUMPDEST PUSH0 PUSH32 0x80AC58CD00000000000000000000000000000000000000000000000000000000 PUSH28 0xFFFFFFFFFFFFFFFFFFFFFFFFFFFFFFFFFFFFFFFFFFFFFFFFFFFFFFFF NOT AND DUP3 PUSH28 0xFFFFFFFFFFFFFFFFFFFFFFFFFFFFFFFFFFFFFFFFFFFFFFFFFFFFFFFF NOT AND EQ DUP1 PUSH2 0x1606 JUMPI POP PUSH32 0x5B5E139F00000000000000000000000000000000000000000000000000000000 PUSH28 0xFFFFFFFFFFFFFFFFFFFFFFFFFFFFFFFFFFFFFFFFFFFFFFFFFFFFFFFF NOT AND DUP3 PUSH28 0xFFFFFFFFFFFFFFFFFFFFFFFFFFFFFFFFFFFFFFFFFFFFFFFFFFFFFFFF NOT AND EQ JUMPDEST DUP1 PUSH2 0x1616 JUMPI POP PUSH2 0x1615 DUP3 PUSH2 0x1F23 JUMP JUMPDEST JUMPDEST SWAP1 POP SWAP2 SWAP1 POP JUMP JUMPDEST PUSH0 PUSH32 0x7965DB0B00000000000000000000000000000000000000000000000000000000 PUSH28 0xFFFFFFFFFFFFFFFFFFFFFFFFFFFFFFFFFFFFFFFFFFFFFFFFFFFFFFFF NOT AND DUP3 PUSH28 0xFFFFFFFFFFFFFFFFFFFFFFFFFFFFFFFFFFFFFFFFFFFFFFFFFFFFFFFF NOT AND EQ DUP1 PUSH2 0x168F JUMPI POP PUSH2 0x168E DUP3 PUSH2 0x153C JUMP JUMPDEST JUMPDEST SWAP1 POP SWAP2 SWAP1 POP JUMP JUMPDEST PUSH0 DUP1 PUSH2 0x16A1 DUP4 PUSH2 0x1F8C JUMP JUMPDEST SWAP1 POP PUSH0 PUSH20 0xFFFFFFFFFFFFFFFFFFFFFFFFFFFFFFFFFFFFFFFF AND DUP2 PUSH20 0xFFFFFFFFFFFFFFFFFFFFFFFFFFFFFFFFFFFFFFFF AND SUB PUSH2 0x1713 JUMPI DUP3 PUSH1 0x40 MLOAD PUSH32 0x7E27328900000000000000000000000000000000000000000000000000000000 DUP2 MSTORE PUSH1 0x4 ADD PUSH2 0x170A SWAP2 SWAP1 PUSH2 0x302A JUMP JUMPDEST PUSH1 0x40 MLOAD DUP1 SWAP2 SUB SWAP1 REVERT JUMPDEST DUP1 SWAP2 POP POP SWAP2 SWAP1 POP JUMP JUMPDEST PUSH0 PUSH1 0x4 PUSH0 DUP4 DUP2 MSTORE PUSH1 0x20 ADD SWAP1 DUP2 MSTORE PUSH1 0x20 ADD PUSH0 KECCAK256 PUSH0 SWAP1 SLOAD SWAP1 PUSH2 0x100 EXP SWAP1 DIV PUSH20 0xFFFFFFFFFFFFFFFFFFFFFFFFFFFFFFFFFFFFFFFF AND SWAP1 POP SWAP2 SWAP1 POP JUMP JUMPDEST PUSH0 CALLER SWAP1 POP SWAP1 JUMP JUMPDEST PUSH2 0x1769 DUP4 DUP4 DUP4 PUSH1 0x1 PUSH2 0x1FC5 JUMP JUMPDEST POP POP POP JUMP JUMPDEST PUSH0 PUSH2 0x1777 PUSH2 0x2184 JUMP JUMPDEST PUSH0 PUSH2 0x1783 DUP6 DUP6 DUP6 PUSH2 0x21CE JUMP JUMPDEST SWAP1 POP DUP1 SWAP2 POP POP SWAP4 SWAP3 POP POP POP JUMP JUMPDEST PUSH2 0x17A1 DUP2 PUSH2 0x179C PUSH2 0x1755 JUMP JUMPDEST PUSH2 0x23D9 JUMP JUMPDEST POP JUMP JUMPDEST PUSH0 PUSH2 0x17AF DUP4 DUP4 PUSH2 0x121D JUMP JUMPDEST PUSH2 0x1884 JUMPI PUSH1 0x1 PUSH1 0x6 PUSH0 DUP6 DUP2 MSTORE PUSH1 0x20 ADD SWAP1 DUP2 MSTORE PUSH1 0x20 ADD PUSH0 KECCAK256 PUSH0 ADD PUSH0 DUP5 PUSH20 0xFFFFFFFFFFFFFFFFFFFFFFFFFFFFFFFFFFFFFFFF AND PUSH20 0xFFFFFFFFFFFFFFFFFFFFFFFFFFFFFFFFFFFFFFFF AND DUP2 MSTORE PUSH1 0x20 ADD SWAP1 DUP2 MSTORE PUSH1 0x20 ADD PUSH0 KECCAK256 PUSH0 PUSH2 0x100 EXP DUP2 SLOAD DUP2 PUSH1 0xFF MUL NOT AND SWAP1 DUP4 ISZERO ISZERO MUL OR SWAP1 SSTORE POP PUSH2 0x1821 PUSH2 0x1755 JUMP JUMPDEST PUSH20 0xFFFFFFFFFFFFFFFFFFFFFFFFFFFFFFFFFFFFFFFF AND DUP3 PUSH20 0xFFFFFFFFFFFFFFFFFFFFFFFFFFFFFFFFFFFFFFFF AND DUP5 PUSH32 0x2F8788117E7EFF1D82E926EC794901D17C78024A50270940304540A733656F0D PUSH1 0x40 MLOAD PUSH1 0x40 MLOAD DUP1 SWAP2 SUB SWAP1 LOG4 PUSH1 0x1 SWAP1 POP PUSH2 0x1888 JUMP JUMPDEST PUSH0 SWAP1 POP JUMPDEST SWAP3 SWAP2 POP POP JUMP JUMPDEST PUSH0 PUSH2 0x1899 DUP4 DUP4 PUSH2 0x121D JUMP JUMPDEST ISZERO PUSH2 0x196E JUMPI PUSH0 PUSH1 0x6 PUSH0 DUP6 DUP2 MSTORE PUSH1 0x20 ADD SWAP1 DUP2 MSTORE PUSH1 0x20 ADD PUSH0 KECCAK256 PUSH0 ADD PUSH0 DUP5 PUSH20 0xFFFFFFFFFFFFFFFFFFFFFFFFFFFFFFFFFFFFFFFF AND PUSH20 0xFFFFFFFFFFFFFFFFFFFFFFFFFFFFFFFFFFFFFFFF AND DUP2 MSTORE PUSH1 0x20 ADD SWAP1 DUP2 MSTORE PUSH1 0x20 ADD PUSH0 KECCAK256 PUSH0 PUSH2 0x100 EXP DUP2 SLOAD DUP2 PUSH1 0xFF MUL NOT AND SWAP1 DUP4 ISZERO ISZERO MUL OR SWAP1 SSTORE POP PUSH2 0x190B PUSH2 0x1755 JUMP JUMPDEST PUSH20 0xFFFFFFFFFFFFFFFFFFFFFFFFFFFFFFFFFFFFFFFF AND DUP3 PUSH20 0xFFFFFFFFFFFFFFFFFFFFFFFFFFFFFFFFFFFFFFFF AND DUP5 PUSH32 0xF6391F5C32D9C69D2A47EA670B442974B53935D1EDC7FD64EB21E047A839171B PUSH1 0x40 MLOAD PUSH1 0x40 MLOAD DUP1 SWAP2 SUB SWAP1 LOG4 PUSH1 0x1 SWAP1 POP PUSH2 0x1972 JUMP JUMPDEST PUSH0 SWAP1 POP JUMPDEST SWAP3 SWAP2 POP POP JUMP JUMPDEST PUSH2 0x1980 PUSH2 0x242A JUMP JUMPDEST PUSH0 PUSH1 0x7 PUSH0 PUSH2 0x100 EXP DUP2 SLOAD DUP2 PUSH1 0xFF MUL NOT AND SWAP1 DUP4 ISZERO ISZERO MUL OR SWAP1 SSTORE POP PUSH32 0x5DB9EE0A495BF2E6FF9C91A7834C1BA4FDD244A5E8AA4E537BD38AEAE4B073AA PUSH2 0x19C2 PUSH2 0x1755 JUMP JUMPDEST PUSH1 0x40 MLOAD PUSH2 0x19CF SWAP2 SWAP1 PUSH2 0x2938 JUMP JUMPDEST PUSH1 0x40 MLOAD DUP1 SWAP2 SUB SWAP1 LOG1 JUMP JUMPDEST PUSH0 PUSH20 0xFFFFFFFFFFFFFFFFFFFFFFFFFFFFFFFFFFFFFFFF AND DUP3 PUSH20 0xFFFFFFFFFFFFFFFFFFFFFFFFFFFFFFFFFFFFFFFF AND SUB PUSH2 0x1A49 JUMPI PUSH0 PUSH1 0x40 MLOAD PUSH32 0x64A0AE9200000000000000000000000000000000000000000000000000000000 DUP2 MSTORE PUSH1 0x4 ADD PUSH2 0x1A40 SWAP2 SWAP1 PUSH2 0x2938 JUMP JUMPDEST PUSH1 0x40 MLOAD DUP1 SWAP2 SUB SWAP1 REVERT JUMPDEST PUSH0 PUSH2 0x1A55 DUP4 DUP4 PUSH0 PUSH2 0x176E JUMP JUMPDEST SWAP1 POP PUSH0 PUSH20 0xFFFFFFFFFFFFFFFFFFFFFFFFFFFFFFFFFFFFFFFF AND DUP2 PUSH20 0xFFFFFFFFFFFFFFFFFFFFFFFFFFFFFFFFFFFFFFFF AND EQ PUSH2 0x1AC7 JUMPI PUSH0 PUSH1 0x40 MLOAD PUSH32 0x73C6AC6E00000000000000000000000000000000000000000000000000000000 DUP2 MSTORE PUSH1 0x4 ADD PUSH2 0x1ABE SWAP2 SWAP1 PUSH2 0x2938 JUMP JUMPDEST PUSH1 0x40 MLOAD DUP1 SWAP2 SUB SWAP1 REVERT JUMPDEST POP POP POP JUMP JUMPDEST PUSH2 0x1AD4 PUSH2 0x2184 JUMP JUMPDEST PUSH1 0x1 PUSH1 0x7 PUSH0 PUSH2 0x100 EXP DUP2 SLOAD DUP2 PUSH1 0xFF MUL NOT AND SWAP1 DUP4 ISZERO ISZERO MUL OR SWAP1 SSTORE POP PUSH32 0x62E78CEA01BEE320CD4E420270B5EA74000D11B0C9F74754EBDBFC544B05A258 PUSH2 0x1B17 PUSH2 0x1755 JUMP JUMPDEST PUSH1 0x40 MLOAD PUSH2 0x1B24 SWAP2 SWAP1 PUSH2 0x2938 JUMP JUMPDEST PUSH1 0x40 MLOAD DUP1 SWAP2 SUB SWAP1 LOG1 JUMP JUMPDEST PUSH0 PUSH20 0xFFFFFFFFFFFFFFFFFFFFFFFFFFFFFFFFFFFFFFFF AND DUP3 PUSH20 0xFFFFFFFFFFFFFFFFFFFFFFFFFFFFFFFFFFFFFFFF AND SUB PUSH2 0x1B9E JUMPI DUP2 PUSH1 0x40 MLOAD PUSH32 0x5B08BA1800000000000000000000000000000000000000000000000000000000 DUP2 MSTORE PUSH1 0x4 ADD PUSH2 0x1B95 SWAP2 SWAP1 PUSH2 0x2938 JUMP JUMPDEST PUSH1 0x40 MLOAD DUP1 SWAP2 SUB SWAP1 REVERT JUMPDEST DUP1 PUSH1 0x5 PUSH0 DUP6 PUSH20 0xFFFFFFFFFFFFFFFFFFFFFFFFFFFFFFFFFFFFFFFF AND PUSH20 0xFFFFFFFFFFFFFFFFFFFFFFFFFFFFFFFFFFFFFFFF AND DUP2 MSTORE PUSH1 0x20 ADD SWAP1 DUP2 MSTORE PUSH1 0x20 ADD PUSH0 KECCAK256 PUSH0 DUP5 PUSH20 0xFFFFFFFFFFFFFFFFFFFFFFFFFFFFFFFFFFFFFFFF AND PUSH20 0xFFFFFFFFFFFFFFFFFFFFFFFFFFFFFFFFFFFFFFFF AND DUP2 MSTORE PUSH1 0x20 ADD SWAP1 DUP2 MSTORE PUSH1 0x20 ADD PUSH0 KECCAK256 PUSH0 PUSH2 0x100 EXP DUP2 SLOAD DUP2 PUSH1 0xFF MUL NOT AND SWAP1 DUP4 ISZERO ISZERO MUL OR SWAP1 SSTORE POP DUP2 PUSH20 0xFFFFFFFFFFFFFFFFFFFFFFFFFFFFFFFFFFFFFFFF AND DUP4 PUSH20 0xFFFFFFFFFFFFFFFFFFFFFFFFFFFFFFFFFFFFFFFF AND PUSH32 0x17307EAB39AB6107E8899845AD3D59BD9653F200F220920489CA2B5937696C31 DUP4 PUSH1 0x40 MLOAD PUSH2 0x1C8A SWAP2 SWAP1 PUSH2 0x27F2 JUMP JUMPDEST PUSH1 0x40 MLOAD DUP1 SWAP2 SUB SWAP1 LOG3 POP POP POP JUMP JUMPDEST PUSH0 DUP4 PUSH20 0xFFFFFFFFFFFFFFFFFFFFFFFFFFFFFFFFFFFFFFFF AND EXTCODESIZE GT ISZERO PUSH2 0x1E3C JUMPI DUP3 PUSH20 0xFFFFFFFFFFFFFFFFFFFFFFFFFFFFFFFFFFFFFFFF AND PUSH4 0x150B7A02 DUP7 DUP7 DUP6 DUP6 PUSH1 0x40 MLOAD DUP6 PUSH4 0xFFFFFFFF AND PUSH1 0xE0 SHL DUP2 MSTORE PUSH1 0x4 ADD PUSH2 0x1CF5 SWAP5 SWAP4 SWAP3 SWAP2 SWAP1 PUSH2 0x3972 JUMP JUMPDEST PUSH1 0x20 PUSH1 0x40 MLOAD DUP1 DUP4 SUB DUP2 PUSH0 DUP8 GAS CALL SWAP3 POP POP POP DUP1 ISZERO PUSH2 0x1D30 JUMPI POP PUSH1 0x40 MLOAD RETURNDATASIZE PUSH1 0x1F NOT PUSH1 0x1F DUP3 ADD AND DUP3 ADD DUP1 PUSH1 0x40 MSTORE POP DUP2 ADD SWAP1 PUSH2 0x1D2D SWAP2 SWAP1 PUSH2 0x39D0 JUMP JUMPDEST PUSH1 0x1 JUMPDEST PUSH2 0x1DB1 JUMPI RETURNDATASIZE DUP1 PUSH0 DUP2 EQ PUSH2 0x1D5E JUMPI PUSH1 0x40 MLOAD SWAP2 POP PUSH1 0x1F NOT PUSH1 0x3F RETURNDATASIZE ADD AND DUP3 ADD PUSH1 0x40 MSTORE RETURNDATASIZE DUP3 MSTORE RETURNDATASIZE PUSH0 PUSH1 0x20 DUP5 ADD RETURNDATACOPY PUSH2 0x1D63 JUMP JUMPDEST PUSH1 0x60 SWAP2 POP JUMPDEST POP PUSH0 DUP2 MLOAD SUB PUSH2 0x1DA9 JUMPI DUP4 PUSH1 0x40 MLOAD PUSH32 0x64A0AE9200000000000000000000000000000000000000000000000000000000 DUP2 MSTORE PUSH1 0x4 ADD PUSH2 0x1DA0 SWAP2 SWAP1 PUSH2 0x2938 JUMP JUMPDEST PUSH1 0x40 MLOAD DUP1 SWAP2 SUB SWAP1 REVERT JUMPDEST DUP1 MLOAD DUP2 PUSH1 0x20 ADD REVERT JUMPDEST PUSH4 0x150B7A02 PUSH1 0xE0 SHL PUSH28 0xFFFFFFFFFFFFFFFFFFFFFFFFFFFFFFFFFFFFFFFFFFFFFFFFFFFFFFFF NOT AND DUP2 PUSH28 0xFFFFFFFFFFFFFFFFFFFFFFFFFFFFFFFFFFFFFFFFFFFFFFFFFFFFFFFF NOT AND EQ PUSH2 0x1E3A JUMPI DUP4 PUSH1 0x40 MLOAD PUSH32 0x64A0AE9200000000000000000000000000000000000000000000000000000000 DUP2 MSTORE PUSH1 0x4 ADD PUSH2 0x1E31 SWAP2 SWAP1 PUSH2 0x2938 JUMP JUMPDEST PUSH1 0x40 MLOAD DUP1 SWAP2 SUB SWAP1 REVERT JUMPDEST POP JUMPDEST POP POP POP POP POP JUMP JUMPDEST PUSH1 0x60 PUSH1 0x40 MLOAD DUP1 PUSH1 0x20 ADD PUSH1 0x40 MSTORE DUP1 PUSH0 DUP2 MSTORE POP SWAP1 POP SWAP1 JUMP JUMPDEST PUSH1 0x60 PUSH0 PUSH1 0x1 PUSH2 0x1E67 DUP5 PUSH2 0x2473 JUMP JUMPDEST ADD SWAP1 POP PUSH0 DUP2 PUSH8 0xFFFFFFFFFFFFFFFF DUP2 GT ISZERO PUSH2 0x1E85 JUMPI PUSH2 0x1E84 PUSH2 0x29C1 JUMP JUMPDEST JUMPDEST PUSH1 0x40 MLOAD SWAP1 DUP1 DUP3 MSTORE DUP1 PUSH1 0x1F ADD PUSH1 0x1F NOT AND PUSH1 0x20 ADD DUP3 ADD PUSH1 0x40 MSTORE DUP1 ISZERO PUSH2 0x1EB7 JUMPI DUP2 PUSH1 0x20 ADD PUSH1 0x1 DUP3 MUL DUP1 CALLDATASIZE DUP4 CALLDATACOPY DUP1 DUP3 ADD SWAP2 POP POP SWAP1 POP JUMPDEST POP SWAP1 POP PUSH0 DUP3 PUSH1 0x20 ADD DUP3 ADD SWAP1 POP JUMPDEST PUSH1 0x1 ISZERO PUSH2 0x1F18 JUMPI DUP1 DUP1 PUSH1 0x1 SWAP1 SUB SWAP2 POP POP PUSH32 0x3031323334353637383961626364656600000000000000000000000000000000 PUSH1 0xA DUP7 MOD BYTE DUP2 MSTORE8 PUSH1 0xA DUP6 DUP2 PUSH2 0x1F0D JUMPI PUSH2 0x1F0C PUSH2 0x39FB JUMP JUMPDEST JUMPDEST DIV SWAP5 POP PUSH0 DUP6 SUB PUSH2 0x1EC4 JUMPI JUMPDEST DUP2 SWAP4 POP POP POP POP SWAP2 SWAP1 POP JUMP JUMPDEST PUSH0 PUSH32 0x1FFC9A700000000000000000000000000000000000000000000000000000000 PUSH28 0xFFFFFFFFFFFFFFFFFFFFFFFFFFFFFFFFFFFFFFFFFFFFFFFFFFFFFFFF NOT AND DUP3 PUSH28 0xFFFFFFFFFFFFFFFFFFFFFFFFFFFFFFFFFFFFFFFFFFFFFFFFFFFFFFFF NOT AND EQ SWAP1 POP SWAP2 SWAP1 POP JUMP JUMPDEST PUSH0 PUSH1 0x2 PUSH0 DUP4 DUP2 MSTORE PUSH1 0x20 ADD SWAP1 DUP2 MSTORE PUSH1 0x20 ADD PUSH0 KECCAK256 PUSH0 SWAP1 SLOAD SWAP1 PUSH2 0x100 EXP SWAP1 DIV PUSH20 0xFFFFFFFFFFFFFFFFFFFFFFFFFFFFFFFFFFFFFFFF AND SWAP1 POP SWAP2 SWAP1 POP JUMP JUMPDEST DUP1 DUP1 PUSH2 0x1FFD JUMPI POP PUSH0 PUSH20 0xFFFFFFFFFFFFFFFFFFFFFFFFFFFFFFFFFFFFFFFF AND DUP3 PUSH20 0xFFFFFFFFFFFFFFFFFFFFFFFFFFFFFFFFFFFFFFFF AND EQ ISZERO JUMPDEST ISZERO PUSH2 0x212F JUMPI PUSH0 PUSH2 0x200C DUP5 PUSH2 0x1696 JUMP JUMPDEST SWAP1 POP PUSH0 PUSH20 0xFFFFFFFFFFFFFFFFFFFFFFFFFFFFFFFFFFFFFFFF AND DUP4 PUSH20 0xFFFFFFFFFFFFFFFFFFFFFFFFFFFFFFFFFFFFFFFF AND EQ ISZERO DUP1 ISZERO PUSH2 0x2076 JUMPI POP DUP3 PUSH20 0xFFFFFFFFFFFFFFFFFFFFFFFFFFFFFFFFFFFFFFFF AND DUP2 PUSH20 0xFFFFFFFFFFFFFFFFFFFFFFFFFFFFFFFFFFFFFFFF AND EQ ISZERO JUMPDEST DUP1 ISZERO PUSH2 0x2089 JUMPI POP PUSH2 0x2087 DUP2 DUP5 PUSH2 0x1413 JUMP JUMPDEST ISZERO JUMPDEST ISZERO PUSH2 0x20CB JUMPI DUP3 PUSH1 0x40 MLOAD PUSH32 0xA9FBF51F00000000000000000000000000000000000000000000000000000000 DUP2 MSTORE PUSH1 0x4 ADD PUSH2 0x20C2 SWAP2 SWAP1 PUSH2 0x2938 JUMP JUMPDEST PUSH1 0x40 MLOAD DUP1 SWAP2 SUB SWAP1 REVERT JUMPDEST DUP2 ISZERO PUSH2 0x212D JUMPI DUP4 DUP6 PUSH20 0xFFFFFFFFFFFFFFFFFFFFFFFFFFFFFFFFFFFFFFFF AND DUP3 PUSH20 0xFFFFFFFFFFFFFFFFFFFFFFFFFFFFFFFFFFFFFFFF AND PUSH32 0x8C5BE1E5EBEC7D5BD14F71427D1E84F3DD0314C0F7B2291E5B200AC8C7C3B925 PUSH1 0x40 MLOAD PUSH1 0x40 MLOAD DUP1 SWAP2 SUB SWAP1 LOG4 JUMPDEST POP JUMPDEST DUP4 PUSH1 0x4 PUSH0 DUP6 DUP2 MSTORE PUSH1 0x20 ADD SWAP1 DUP2 MSTORE PUSH1 0x20 ADD PUSH0 KECCAK256 PUSH0 PUSH2 0x100 EXP DUP2 SLOAD DUP2 PUSH20 0xFFFFFFFFFFFFFFFFFFFFFFFFFFFFFFFFFFFFFFFF MUL NOT AND SWAP1 DUP4 PUSH20 0xFFFFFFFFFFFFFFFFFFFFFFFFFFFFFFFFFFFFFFFF AND MUL OR SWAP1 SSTORE POP POP POP POP POP JUMP JUMPDEST PUSH2 0x218C PUSH2 0x1124 JUMP JUMPDEST ISZERO PUSH2 0x21CC JUMPI PUSH1 0x40 MLOAD PUSH32 0x8C379A000000000000000000000000000000000000000000000000000000000 DUP2 MSTORE PUSH1 0x4 ADD PUSH2 0x21C3 SWAP1 PUSH2 0x3A72 JUMP JUMPDEST PUSH1 0x40 MLOAD DUP1 SWAP2 SUB SWAP1 REVERT JUMPDEST JUMP JUMPDEST PUSH0 DUP1 PUSH2 0x21D9 DUP5 PUSH2 0x1F8C JUMP JUMPDEST SWAP1 POP PUSH0 PUSH20 0xFFFFFFFFFFFFFFFFFFFFFFFFFFFFFFFFFFFFFFFF AND DUP4 PUSH20 0xFFFFFFFFFFFFFFFFFFFFFFFFFFFFFFFFFFFFFFFF AND EQ PUSH2 0x221A JUMPI PUSH2 0x2219 DUP2 DUP5 DUP7 PUSH2 0x25C4 JUMP JUMPDEST JUMPDEST PUSH0 PUSH20 0xFFFFFFFFFFFFFFFFFFFFFFFFFFFFFFFFFFFFFFFF AND DUP2 PUSH20 0xFFFFFFFFFFFFFFFFFFFFFFFFFFFFFFFFFFFFFFFF AND EQ PUSH2 0x22A5 JUMPI PUSH2 0x2259 PUSH0 DUP6 PUSH0 DUP1 PUSH2 0x1FC5 JUMP JUMPDEST PUSH1 0x1 PUSH1 0x3 PUSH0 DUP4 PUSH20 0xFFFFFFFFFFFFFFFFFFFFFFFFFFFFFFFFFFFFFFFF AND PUSH20 0xFFFFFFFFFFFFFFFFFFFFFFFFFFFFFFFFFFFFFFFF AND DUP2 MSTORE PUSH1 0x20 ADD SWAP1 DUP2 MSTORE PUSH1 0x20 ADD PUSH0 KECCAK256 PUSH0 DUP3 DUP3 SLOAD SUB SWAP3 POP POP DUP2 SWAP1 SSTORE POP JUMPDEST PUSH0 PUSH20 0xFFFFFFFFFFFFFFFFFFFFFFFFFFFFFFFFFFFFFFFF AND DUP6 PUSH20 0xFFFFFFFFFFFFFFFFFFFFFFFFFFFFFFFFFFFFFFFF AND EQ PUSH2 0x2324 JUMPI PUSH1 0x1 PUSH1 0x3 PUSH0 DUP8 PUSH20 0xFFFFFFFFFFFFFFFFFFFFFFFFFFFFFFFFFFFFFFFF AND PUSH20 0xFFFFFFFFFFFFFFFFFFFFFFFFFFFFFFFFFFFFFFFF AND DUP2 MSTORE PUSH1 0x20 ADD SWAP1 DUP2 MSTORE PUSH1 0x20 ADD PUSH0 KECCAK256 PUSH0 DUP3 DUP3 SLOAD ADD SWAP3 POP POP DUP2 SWAP1 SSTORE POP JUMPDEST DUP5 PUSH1 0x2 PUSH0 DUP7 DUP2 MSTORE PUSH1 0x20 ADD SWAP1 DUP2 MSTORE PUSH1 0x20 ADD PUSH0 KECCAK256 PUSH0 PUSH2 0x100 EXP DUP2 SLOAD DUP2 PUSH20 0xFFFFFFFFFFFFFFFFFFFFFFFFFFFFFFFFFFFFFFFF MUL NOT AND SWAP1 DUP4 PUSH20 0xFFFFFFFFFFFFFFFFFFFFFFFFFFFFFFFFFFFFFFFF AND MUL OR SWAP1 SSTORE POP DUP4 DUP6 PUSH20 0xFFFFFFFFFFFFFFFFFFFFFFFFFFFFFFFFFFFFFFFF AND DUP3 PUSH20 0xFFFFFFFFFFFFFFFFFFFFFFFFFFFFFFFFFFFFFFFF AND PUSH32 0xDDF252AD1BE2C89B69C2B068FC378DAA952BA7F163C4A11628F55A4DF523B3EF PUSH1 0x40 MLOAD PUSH1 0x40 MLOAD DUP1 SWAP2 SUB SWAP1 LOG4 DUP1 SWAP2 POP POP SWAP4 SWAP3 POP POP POP JUMP JUMPDEST PUSH2 0x23E3 DUP3 DUP3 PUSH2 0x121D JUMP JUMPDEST PUSH2 0x2426 JUMPI DUP1 DUP3 PUSH1 0x40 MLOAD PUSH32 0xE2517D3F00000000000000000000000000000000000000000000000000000000 DUP2 MSTORE PUSH1 0x4 ADD PUSH2 0x241D SWAP3 SWAP2 SWAP1 PUSH2 0x3A90 JUMP JUMPDEST PUSH1 0x40 MLOAD DUP1 SWAP2 SUB SWAP1 REVERT JUMPDEST POP POP JUMP JUMPDEST PUSH2 0x2432 PUSH2 0x1124 JUMP JUMPDEST PUSH2 0x2471 JUMPI PUSH1 0x40 MLOAD PUSH32 0x8C379A000000000000000000000000000000000000000000000000000000000 DUP2 MSTORE PUSH1 0x4 ADD PUSH2 0x2468 SWAP1 PUSH2 0x3B01 JUMP JUMPDEST PUSH1 0x40 MLOAD DUP1 SWAP2 SUB SWAP1 REVERT JUMPDEST JUMP JUMPDEST PUSH0 DUP1 PUSH0 SWAP1 POP PUSH27 0x184F03E93FF9F4DAA797ED6E38ED64BF6A1F010000000000000000 DUP4 LT PUSH2 0x24CF JUMPI PUSH27 0x184F03E93FF9F4DAA797ED6E38ED64BF6A1F010000000000000000 DUP4 DUP2 PUSH2 0x24C5 JUMPI PUSH2 0x24C4 PUSH2 0x39FB JUMP JUMPDEST JUMPDEST DIV SWAP3 POP PUSH1 0x40 DUP2 ADD SWAP1 POP JUMPDEST PUSH14 0x4EE2D6D415B85ACEF8100000000 DUP4 LT PUSH2 0x250C JUMPI PUSH14 0x4EE2D6D415B85ACEF8100000000 DUP4 DUP2 PUSH2 0x2502 JUMPI PUSH2 0x2501 PUSH2 0x39FB JUMP JUMPDEST JUMPDEST DIV SWAP3 POP PUSH1 0x20 DUP2 ADD SWAP1 POP JUMPDEST PUSH7 0x2386F26FC10000 DUP4 LT PUSH2 0x253B JUMPI PUSH7 0x2386F26FC10000 DUP4 DUP2 PUSH2 0x2531 JUMPI PUSH2 0x2530 PUSH2 0x39FB JUMP JUMPDEST JUMPDEST DIV SWAP3 POP PUSH1 0x10 DUP2 ADD SWAP1 POP JUMPDEST PUSH4 0x5F5E100 DUP4 LT PUSH2 0x2564 JUMPI PUSH4 0x5F5E100 DUP4 DUP2 PUSH2 0x255A JUMPI PUSH2 0x2559 PUSH2 0x39FB JUMP JUMPDEST JUMPDEST DIV SWAP3 POP PUSH1 0x8 DUP2 ADD SWAP1 POP JUMPDEST PUSH2 0x2710 DUP4 LT PUSH2 0x2589 JUMPI PUSH2 0x2710 DUP4 DUP2 PUSH2 0x257F JUMPI PUSH2 0x257E PUSH2 0x39FB JUMP JUMPDEST JUMPDEST DIV SWAP3 POP PUSH1 0x4 DUP2 ADD SWAP1 POP JUMPDEST PUSH1 0x64 DUP4 LT PUSH2 0x25AC JUMPI PUSH1 0x64 DUP4 DUP2 PUSH2 0x25A2 JUMPI PUSH2 0x25A1 PUSH2 0x39FB JUMP JUMPDEST JUMPDEST DIV SWAP3 POP PUSH1 0x2 DUP2 ADD SWAP1 POP JUMPDEST PUSH1 0xA DUP4 LT PUSH2 0x25BB JUMPI PUSH1 0x1 DUP2 ADD SWAP1 POP JUMPDEST DUP1 SWAP2 POP POP SWAP2 SWAP1 POP JUMP JUMPDEST PUSH2 0x25CF DUP4 DUP4 DUP4 PUSH2 0x2687 JUMP JUMPDEST PUSH2 0x2682 JUMPI PUSH0 PUSH20 0xFFFFFFFFFFFFFFFFFFFFFFFFFFFFFFFFFFFFFFFF AND DUP4 PUSH20 0xFFFFFFFFFFFFFFFFFFFFFFFFFFFFFFFFFFFFFFFF AND SUB PUSH2 0x2643 JUMPI DUP1 PUSH1 0x40 MLOAD PUSH32 0x7E27328900000000000000000000000000000000000000000000000000000000 DUP2 MSTORE PUSH1 0x4 ADD PUSH2 0x263A SWAP2 SWAP1 PUSH2 0x302A JUMP JUMPDEST PUSH1 0x40 MLOAD DUP1 SWAP2 SUB SWAP1 REVERT JUMPDEST DUP2 DUP2 PUSH1 0x40 MLOAD PUSH32 0x177E802F00000000000000000000000000000000000000000000000000000000 DUP2 MSTORE PUSH1 0x4 ADD PUSH2 0x2679 SWAP3 SWAP2 SWAP1 PUSH2 0x3B1F JUMP JUMPDEST PUSH1 0x40 MLOAD DUP1 SWAP2 SUB SWAP1 REVERT JUMPDEST POP POP POP JUMP JUMPDEST PUSH0 DUP1 PUSH20 0xFFFFFFFFFFFFFFFFFFFFFFFFFFFFFFFFFFFFFFFF AND DUP4 PUSH20 0xFFFFFFFFFFFFFFFFFFFFFFFFFFFFFFFFFFFFFFFF AND EQ ISZERO DUP1 ISZERO PUSH2 0x273E JUMPI POP DUP3 PUSH20 0xFFFFFFFFFFFFFFFFFFFFFFFFFFFFFFFFFFFFFFFF AND DUP5 PUSH20 0xFFFFFFFFFFFFFFFFFFFFFFFFFFFFFFFFFFFFFFFF AND EQ DUP1 PUSH2 0x26FF JUMPI POP PUSH2 0x26FE DUP5 DUP5 PUSH2 0x1413 JUMP JUMPDEST JUMPDEST DUP1 PUSH2 0x273D JUMPI POP DUP3 PUSH20 0xFFFFFFFFFFFFFFFFFFFFFFFFFFFFFFFFFFFFFFFF AND PUSH2 0x2725 DUP4 PUSH2 0x171C JUMP JUMPDEST PUSH20 0xFFFFFFFFFFFFFFFFFFFFFFFFFFFFFFFFFFFFFFFF AND EQ JUMPDEST JUMPDEST SWAP1 POP SWAP4 SWAP3 POP POP POP JUMP JUMPDEST PUSH0 PUSH1 0x40 MLOAD SWAP1 POP SWAP1 JUMP JUMPDEST PUSH0 DUP1 REVERT JUMPDEST PUSH0 DUP1 REVERT JUMPDEST PUSH0 PUSH32 0xFFFFFFFF00000000000000000000000000000000000000000000000000000000 DUP3 AND SWAP1 POP SWAP2 SWAP1 POP JUMP JUMPDEST PUSH2 0x278C DUP2 PUSH2 0x2758 JUMP JUMPDEST DUP2 EQ PUSH2 0x2796 JUMPI PUSH0 DUP1 REVERT JUMPDEST POP JUMP JUMPDEST PUSH0 DUP2 CALLDATALOAD SWAP1 POP PUSH2 0x27A7 DUP2 PUSH2 0x2783 JUMP JUMPDEST SWAP3 SWAP2 POP POP JUMP JUMPDEST PUSH0 PUSH1 0x20 DUP3 DUP5 SUB SLT ISZERO PUSH2 0x27C2 JUMPI PUSH2 0x27C1 PUSH2 0x2750 JUMP JUMPDEST JUMPDEST PUSH0 PUSH2 0x27CF DUP5 DUP3 DUP6 ADD PUSH2 0x2799 JUMP JUMPDEST SWAP2 POP POP SWAP3 SWAP2 POP POP JUMP JUMPDEST PUSH0 DUP2 ISZERO ISZERO SWAP1 POP SWAP2 SWAP1 POP JUMP JUMPDEST PUSH2 0x27EC DUP2 PUSH2 0x27D8 JUMP JUMPDEST DUP3 MSTORE POP POP JUMP JUMPDEST PUSH0 PUSH1 0x20 DUP3 ADD SWAP1 POP PUSH2 0x2805 PUSH0 DUP4 ADD DUP5 PUSH2 0x27E3 JUMP JUMPDEST SWAP3 SWAP2 POP POP JUMP JUMPDEST PUSH0 DUP2 MLOAD SWAP1 POP SWAP2 SWAP1 POP JUMP JUMPDEST PUSH0 DUP3 DUP3 MSTORE PUSH1 0x20 DUP3 ADD SWAP1 POP SWAP3 SWAP2 POP POP JUMP JUMPDEST DUP3 DUP2 DUP4 MCOPY PUSH0 DUP4 DUP4 ADD MSTORE POP POP POP JUMP JUMPDEST PUSH0 PUSH1 0x1F NOT PUSH1 0x1F DUP4 ADD AND SWAP1 POP SWAP2 SWAP1 POP JUMP JUMPDEST PUSH0 PUSH2 0x284D DUP3 PUSH2 0x280B JUMP JUMPDEST PUSH2 0x2857 DUP2 DUP6 PUSH2 0x2815 JUMP JUMPDEST SWAP4 POP PUSH2 0x2867 DUP2 DUP6 PUSH1 0x20 DUP7 ADD PUSH2 0x2825 JUMP JUMPDEST PUSH2 0x2870 DUP2 PUSH2 0x2833 JUMP JUMPDEST DUP5 ADD SWAP2 POP POP SWAP3 SWAP2 POP POP JUMP JUMPDEST PUSH0 PUSH1 0x20 DUP3 ADD SWAP1 POP DUP2 DUP2 SUB PUSH0 DUP4 ADD MSTORE PUSH2 0x2893 DUP2 DUP5 PUSH2 0x2843 JUMP JUMPDEST SWAP1 POP SWAP3 SWAP2 POP POP JUMP JUMPDEST PUSH0 DUP2 SWAP1 POP SWAP2 SWAP1 POP JUMP JUMPDEST PUSH2 0x28AD DUP2 PUSH2 0x289B JUMP JUMPDEST DUP2 EQ PUSH2 0x28B7 JUMPI PUSH0 DUP1 REVERT JUMPDEST POP JUMP JUMPDEST PUSH0 DUP2 CALLDATALOAD SWAP1 POP PUSH2 0x28C8 DUP2 PUSH2 0x28A4 JUMP JUMPDEST SWAP3 SWAP2 POP POP JUMP JUMPDEST PUSH0 PUSH1 0x20 DUP3 DUP5 SUB SLT ISZERO PUSH2 0x28E3 JUMPI PUSH2 0x28E2 PUSH2 0x2750 JUMP JUMPDEST JUMPDEST PUSH0 PUSH2 0x28F0 DUP5 DUP3 DUP6 ADD PUSH2 0x28BA JUMP JUMPDEST SWAP2 POP POP SWAP3 SWAP2 POP POP JUMP JUMPDEST PUSH0 PUSH20 0xFFFFFFFFFFFFFFFFFFFFFFFFFFFFFFFFFFFFFFFF DUP3 AND SWAP1 POP SWAP2 SWAP1 POP JUMP JUMPDEST PUSH0 PUSH2 0x2922 DUP3 PUSH2 0x28F9 JUMP JUMPDEST SWAP1 POP SWAP2 SWAP1 POP JUMP JUMPDEST PUSH2 0x2932 DUP2 PUSH2 0x2918 JUMP JUMPDEST DUP3 MSTORE POP POP JUMP JUMPDEST PUSH0 PUSH1 0x20 DUP3 ADD SWAP1 POP PUSH2 0x294B PUSH0 DUP4 ADD DUP5 PUSH2 0x2929 JUMP JUMPDEST SWAP3 SWAP2 POP POP JUMP JUMPDEST PUSH2 0x295A DUP2 PUSH2 0x2918 JUMP JUMPDEST DUP2 EQ PUSH2 0x2964 JUMPI PUSH0 DUP1 REVERT JUMPDEST POP JUMP JUMPDEST PUSH0 DUP2 CALLDATALOAD SWAP1 POP PUSH2 0x2975 DUP2 PUSH2 0x2951 JUMP JUMPDEST SWAP3 SWAP2 POP POP JUMP JUMPDEST PUSH0 DUP1 PUSH1 0x40 DUP4 DUP6 SUB SLT ISZERO PUSH2 0x2991 JUMPI PUSH2 0x2990 PUSH2 0x2750 JUMP JUMPDEST JUMPDEST PUSH0 PUSH2 0x299E DUP6 DUP3 DUP7 ADD PUSH2 0x2967 JUMP JUMPDEST SWAP3 POP POP PUSH1 0x20 PUSH2 0x29AF DUP6 DUP3 DUP7 ADD PUSH2 0x28BA JUMP JUMPDEST SWAP2 POP POP SWAP3 POP SWAP3 SWAP1 POP JUMP JUMPDEST PUSH0 DUP1 REVERT JUMPDEST PUSH0 DUP1 REVERT JUMPDEST PUSH32 0x4E487B7100000000000000000000000000000000000000000000000000000000 PUSH0 MSTORE PUSH1 0x41 PUSH1 0x4 MSTORE PUSH1 0x24 PUSH0 REVERT JUMPDEST PUSH2 0x29F7 DUP3 PUSH2 0x2833 JUMP JUMPDEST DUP2 ADD DUP2 DUP2 LT PUSH8 0xFFFFFFFFFFFFFFFF DUP3 GT OR ISZERO PUSH2 0x2A16 JUMPI PUSH2 0x2A15 PUSH2 0x29C1 JUMP JUMPDEST JUMPDEST DUP1 PUSH1 0x40 MSTORE POP POP POP JUMP JUMPDEST PUSH0 PUSH2 0x2A28 PUSH2 0x2747 JUMP JUMPDEST SWAP1 POP PUSH2 0x2A34 DUP3 DUP3 PUSH2 0x29EE JUMP JUMPDEST SWAP2 SWAP1 POP JUMP JUMPDEST PUSH0 PUSH8 0xFFFFFFFFFFFFFFFF DUP3 GT ISZERO PUSH2 0x2A53 JUMPI PUSH2 0x2A52 PUSH2 0x29C1 JUMP JUMPDEST JUMPDEST PUSH2 0x2A5C DUP3 PUSH2 0x2833 JUMP JUMPDEST SWAP1 POP PUSH1 0x20 DUP2 ADD SWAP1 POP SWAP2 SWAP1 POP JUMP JUMPDEST DUP3 DUP2 DUP4 CALLDATACOPY PUSH0 DUP4 DUP4 ADD MSTORE POP POP POP JUMP JUMPDEST PUSH0 PUSH2 0x2A89 PUSH2 0x2A84 DUP5 PUSH2 0x2A39 JUMP JUMPDEST PUSH2 0x2A1F JUMP JUMPDEST SWAP1 POP DUP3 DUP2 MSTORE PUSH1 0x20 DUP2 ADD DUP5 DUP5 DUP5 ADD GT ISZERO PUSH2 0x2AA5 JUMPI PUSH2 0x2AA4 PUSH2 0x29BD JUMP JUMPDEST JUMPDEST PUSH2 0x2AB0 DUP5 DUP3 DUP6 PUSH2 0x2A69 JUMP JUMPDEST POP SWAP4 SWAP3 POP POP POP JUMP JUMPDEST PUSH0 DUP3 PUSH1 0x1F DUP4 ADD SLT PUSH2 0x2ACC JUMPI PUSH2 0x2ACB PUSH2 0x29B9 JUMP JUMPDEST JUMPDEST DUP2 CALLDATALOAD PUSH2 0x2ADC DUP5 DUP3 PUSH1 0x20 DUP7 ADD PUSH2 0x2A77 JUMP JUMPDEST SWAP2 POP POP SWAP3 SWAP2 POP POP JUMP JUMPDEST PUSH0 DUP1 PUSH0 PUSH1 0x60 DUP5 DUP7 SUB SLT ISZERO PUSH2 0x2AFC JUMPI PUSH2 0x2AFB PUSH2 0x2750 JUMP JUMPDEST JUMPDEST PUSH0 DUP5 ADD CALLDATALOAD PUSH8 0xFFFFFFFFFFFFFFFF DUP2 GT ISZERO PUSH2 0x2B19 JUMPI PUSH2 0x2B18 PUSH2 0x2754 JUMP JUMPDEST JUMPDEST PUSH2 0x2B25 DUP7 DUP3 DUP8 ADD PUSH2 0x2AB8 JUMP JUMPDEST SWAP4 POP POP PUSH1 0x20 PUSH2 0x2B36 DUP7 DUP3 DUP8 ADD PUSH2 0x28BA JUMP JUMPDEST SWAP3 POP POP PUSH1 0x40 PUSH2 0x2B47 DUP7 DUP3 DUP8 ADD PUSH2 0x28BA JUMP JUMPDEST SWAP2 POP POP SWAP3 POP SWAP3 POP SWAP3 JUMP JUMPDEST PUSH0 DUP2 MLOAD SWAP1 POP SWAP2 SWAP1 POP JUMP JUMPDEST PUSH0 DUP3 DUP3 MSTORE PUSH1 0x20 DUP3 ADD SWAP1 POP SWAP3 SWAP2 POP POP JUMP JUMPDEST PUSH0 DUP2 SWAP1 POP PUSH1 0x20 DUP3 ADD SWAP1 POP SWAP2 SWAP1 POP JUMP JUMPDEST PUSH2 0x2B83 DUP2 PUSH2 0x289B JUMP JUMPDEST DUP3 MSTORE POP POP JUMP JUMPDEST PUSH0 PUSH2 0x2B94 DUP4 DUP4 PUSH2 0x2B7A JUMP JUMPDEST PUSH1 0x20 DUP4 ADD SWAP1 POP SWAP3 SWAP2 POP POP JUMP JUMPDEST PUSH0 PUSH1 0x20 DUP3 ADD SWAP1 POP SWAP2 SWAP1 POP JUMP JUMPDEST PUSH0 PUSH2 0x2BB6 DUP3 PUSH2 0x2B51 JUMP JUMPDEST PUSH2 0x2BC0 DUP2 DUP6 PUSH2 0x2B5B JUMP JUMPDEST SWAP4 POP PUSH2 0x2BCB DUP4 PUSH2 0x2B6B JUMP JUMPDEST DUP1 PUSH0 JUMPDEST DUP4 DUP2 LT ISZERO PUSH2 0x2BFB JUMPI DUP2 MLOAD PUSH2 0x2BE2 DUP9 DUP3 PUSH2 0x2B89 JUMP JUMPDEST SWAP8 POP PUSH2 0x2BED DUP4 PUSH2 0x2BA0 JUMP JUMPDEST SWAP3 POP POP PUSH1 0x1 DUP2 ADD SWAP1 POP PUSH2 0x2BCE JUMP JUMPDEST POP DUP6 SWAP4 POP POP POP POP SWAP3 SWAP2 POP POP JUMP JUMPDEST PUSH0 DUP2 MLOAD SWAP1 POP SWAP2 SWAP1 POP JUMP JUMPDEST PUSH0 DUP3 DUP3 MSTORE PUSH1 0x20 DUP3 ADD SWAP1 POP SWAP3 SWAP2 POP POP JUMP JUMPDEST PUSH0 DUP2 SWAP1 POP PUSH1 0x20 DUP3 ADD SWAP1 POP SWAP2 SWAP1 POP JUMP JUMPDEST PUSH0 DUP3 DUP3 MSTORE PUSH1 0x20 DUP3 ADD SWAP1 POP SWAP3 SWAP2 POP POP JUMP JUMPDEST PUSH0 PUSH2 0x2C4B DUP3 PUSH2 0x280B JUMP JUMPDEST PUSH2 0x2C55 DUP2 DUP6 PUSH2 0x2C31 JUMP JUMPDEST SWAP4 POP PUSH2 0x2C65 DUP2 DUP6 PUSH1 0x20 DUP7 ADD PUSH2 0x2825 JUMP JUMPDEST PUSH2 0x2C6E DUP2 PUSH2 0x2833 JUMP JUMPDEST DUP5 ADD SWAP2 POP POP SWAP3 SWAP2 POP POP JUMP JUMPDEST PUSH0 PUSH2 0x2C84 DUP4 DUP4 PUSH2 0x2C41 JUMP JUMPDEST SWAP1 POP SWAP3 SWAP2 POP POP JUMP JUMPDEST PUSH0 PUSH1 0x20 DUP3 ADD SWAP1 POP SWAP2 SWAP1 POP JUMP JUMPDEST PUSH0 PUSH2 0x2CA2 DUP3 PUSH2 0x2C08 JUMP JUMPDEST PUSH2 0x2CAC DUP2 DUP6 PUSH2 0x2C12 JUMP JUMPDEST SWAP4 POP DUP4 PUSH1 0x20 DUP3 MUL DUP6 ADD PUSH2 0x2CBE DUP6 PUSH2 0x2C22 JUMP JUMPDEST DUP1 PUSH0 JUMPDEST DUP6 DUP2 LT ISZERO PUSH2 0x2CF9 JUMPI DUP5 DUP5 SUB DUP10 MSTORE DUP2 MLOAD PUSH2 0x2CDA DUP6 DUP3 PUSH2 0x2C79 JUMP JUMPDEST SWAP5 POP PUSH2 0x2CE5 DUP4 PUSH2 0x2C8C JUMP JUMPDEST SWAP3 POP PUSH1 0x20 DUP11 ADD SWAP10 POP POP PUSH1 0x1 DUP2 ADD SWAP1 POP PUSH2 0x2CC1 JUMP JUMPDEST POP DUP3 SWAP8 POP DUP8 SWAP6 POP POP POP POP POP POP SWAP3 SWAP2 POP POP JUMP JUMPDEST PUSH0 DUP2 MLOAD SWAP1 POP SWAP2 SWAP1 POP JUMP JUMPDEST PUSH0 DUP3 DUP3 MSTORE PUSH1 0x20 DUP3 ADD SWAP1 POP SWAP3 SWAP2 POP POP JUMP JUMPDEST PUSH0 DUP2 SWAP1 POP PUSH1 0x20 DUP3 ADD SWAP1 POP SWAP2 SWAP1 POP JUMP JUMPDEST PUSH2 0x2D3D DUP2 PUSH2 0x2918 JUMP JUMPDEST DUP3 MSTORE POP POP JUMP JUMPDEST PUSH0 PUSH2 0x2D4E DUP4 DUP4 PUSH2 0x2D34 JUMP JUMPDEST PUSH1 0x20 DUP4 ADD SWAP1 POP SWAP3 SWAP2 POP POP JUMP JUMPDEST PUSH0 PUSH1 0x20 DUP3 ADD SWAP1 POP SWAP2 SWAP1 POP JUMP JUMPDEST PUSH0 PUSH2 0x2D70 DUP3 PUSH2 0x2D0B JUMP JUMPDEST PUSH2 0x2D7A DUP2 DUP6 PUSH2 0x2D15 JUMP JUMPDEST SWAP4 POP PUSH2 0x2D85 DUP4 PUSH2 0x2D25 JUMP JUMPDEST DUP1 PUSH0 JUMPDEST DUP4 DUP2 LT ISZERO PUSH2 0x2DB5 JUMPI DUP2 MLOAD PUSH2 0x2D9C DUP9 DUP3 PUSH2 0x2D43 JUMP JUMPDEST SWAP8 POP PUSH2 0x2DA7 DUP4 PUSH2 0x2D5A JUMP JUMPDEST SWAP3 POP POP PUSH1 0x1 DUP2 ADD SWAP1 POP PUSH2 0x2D88 JUMP JUMPDEST POP DUP6 SWAP4 POP POP POP POP SWAP3 SWAP2 POP POP JUMP JUMPDEST PUSH0 PUSH1 0x60 DUP3 ADD SWAP1 POP DUP2 DUP2 SUB PUSH0 DUP4 ADD MSTORE PUSH2 0x2DDA DUP2 DUP7 PUSH2 0x2BAC JUMP JUMPDEST SWAP1 POP DUP2 DUP2 SUB PUSH1 0x20 DUP4 ADD MSTORE PUSH2 0x2DEE DUP2 DUP6 PUSH2 0x2C98 JUMP JUMPDEST SWAP1 POP DUP2 DUP2 SUB PUSH1 0x40 DUP4 ADD MSTORE PUSH2 0x2E02 DUP2 DUP5 PUSH2 0x2D66 JUMP JUMPDEST SWAP1 POP SWAP5 SWAP4 POP POP POP POP JUMP JUMPDEST PUSH0 DUP1 PUSH0 PUSH1 0x60 DUP5 DUP7 SUB SLT ISZERO PUSH2 0x2E23 JUMPI PUSH2 0x2E22 PUSH2 0x2750 JUMP JUMPDEST JUMPDEST PUSH0 PUSH2 0x2E30 DUP7 DUP3 DUP8 ADD PUSH2 0x2967 JUMP JUMPDEST SWAP4 POP POP PUSH1 0x20 PUSH2 0x2E41 DUP7 DUP3 DUP8 ADD PUSH2 0x2967 JUMP JUMPDEST SWAP3 POP POP PUSH1 0x40 PUSH2 0x2E52 DUP7 DUP3 DUP8 ADD PUSH2 0x28BA JUMP JUMPDEST SWAP2 POP POP SWAP3 POP SWAP3 POP SWAP3 JUMP JUMPDEST PUSH0 DUP2 SWAP1 POP SWAP2 SWAP1 POP JUMP JUMPDEST PUSH2 0x2E6E DUP2 PUSH2 0x2E5C JUMP JUMPDEST DUP2 EQ PUSH2 0x2E78 JUMPI PUSH0 DUP1 REVERT JUMPDEST POP JUMP JUMPDEST PUSH0 DUP2 CALLDATALOAD SWAP1 POP PUSH2 0x2E89 DUP2 PUSH2 0x2E65 JUMP JUMPDEST SWAP3 SWAP2 POP POP JUMP JUMPDEST PUSH0 PUSH1 0x20 DUP3 DUP5 SUB SLT ISZERO PUSH2 0x2EA4 JUMPI PUSH2 0x2EA3 PUSH2 0x2750 JUMP JUMPDEST JUMPDEST PUSH0 PUSH2 0x2EB1 DUP5 DUP3 DUP6 ADD PUSH2 0x2E7B JUMP JUMPDEST SWAP2 POP POP SWAP3 SWAP2 POP POP JUMP JUMPDEST PUSH2 0x2EC3 DUP2 PUSH2 0x2E5C JUMP JUMPDEST DUP3 MSTORE POP POP JUMP JUMPDEST PUSH0 PUSH1 0x20 DUP3 ADD SWAP1 POP PUSH2 0x2EDC PUSH0 DUP4 ADD DUP5 PUSH2 0x2EBA JUMP JUMPDEST SWAP3 SWAP2 POP POP JUMP JUMPDEST PUSH0 DUP1 PUSH1 0x40 DUP4 DUP6 SUB SLT ISZERO PUSH2 0x2EF8 JUMPI PUSH2 0x2EF7 PUSH2 0x2750 JUMP JUMPDEST JUMPDEST PUSH0 PUSH2 0x2F05 DUP6 DUP3 DUP7 ADD PUSH2 0x2E7B JUMP JUMPDEST SWAP3 POP POP PUSH1 0x20 PUSH2 0x2F16 DUP6 DUP3 DUP7 ADD PUSH2 0x2967 JUMP JUMPDEST SWAP2 POP POP SWAP3 POP SWAP3 SWAP1 POP JUMP JUMPDEST PUSH0 PUSH1 0x20 DUP3 DUP5 SUB SLT ISZERO PUSH2 0x2F35 JUMPI PUSH2 0x2F34 PUSH2 0x2750 JUMP JUMPDEST JUMPDEST PUSH0 PUSH2 0x2F42 DUP5 DUP3 DUP6 ADD PUSH2 0x2967 JUMP JUMPDEST SWAP2 POP POP SWAP3 SWAP2 POP POP JUMP JUMPDEST PUSH0 DUP1 PUSH1 0x40 DUP4 DUP6 SUB SLT ISZERO PUSH2 0x2F61 JUMPI PUSH2 0x2F60 PUSH2 0x2750 JUMP JUMPDEST JUMPDEST PUSH0 DUP4 ADD CALLDATALOAD PUSH8 0xFFFFFFFFFFFFFFFF DUP2 GT ISZERO PUSH2 0x2F7E JUMPI PUSH2 0x2F7D PUSH2 0x2754 JUMP JUMPDEST JUMPDEST PUSH2 0x2F8A DUP6 DUP3 DUP7 ADD PUSH2 0x2AB8 JUMP JUMPDEST SWAP3 POP POP PUSH1 0x20 DUP4 ADD CALLDATALOAD PUSH8 0xFFFFFFFFFFFFFFFF DUP2 GT ISZERO PUSH2 0x2FAB JUMPI PUSH2 0x2FAA PUSH2 0x2754 JUMP JUMPDEST JUMPDEST PUSH2 0x2FB7 DUP6 DUP3 DUP7 ADD PUSH2 0x2AB8 JUMP JUMPDEST SWAP2 POP POP SWAP3 POP SWAP3 SWAP1 POP JUMP JUMPDEST PUSH0 DUP1 PUSH1 0x40 DUP4 DUP6 SUB SLT ISZERO PUSH2 0x2FD7 JUMPI PUSH2 0x2FD6 PUSH2 0x2750 JUMP JUMPDEST JUMPDEST PUSH0 DUP4 ADD CALLDATALOAD PUSH8 0xFFFFFFFFFFFFFFFF DUP2 GT ISZERO PUSH2 0x2FF4 JUMPI PUSH2 0x2FF3 PUSH2 0x2754 JUMP JUMPDEST JUMPDEST PUSH2 0x3000 DUP6 DUP3 DUP7 ADD PUSH2 0x2AB8 JUMP JUMPDEST SWAP3 POP POP PUSH1 0x20 PUSH2 0x3011 DUP6 DUP3 DUP7 ADD PUSH2 0x2967 JUMP JUMPDEST SWAP2 POP POP SWAP3 POP SWAP3 SWAP1 POP JUMP JUMPDEST PUSH2 0x3024 DUP2 PUSH2 0x289B JUMP JUMPDEST DUP3 MSTORE POP POP JUMP JUMPDEST PUSH0 PUSH1 0x20 DUP3 ADD SWAP1 POP PUSH2 0x303D PUSH0 DUP4 ADD DUP5 PUSH2 0x301B JUMP JUMPDEST SWAP3 SWAP2 POP POP JUMP JUMPDEST PUSH2 0x304C DUP2 PUSH2 0x27D8 JUMP JUMPDEST DUP2 EQ PUSH2 0x3056 JUMPI PUSH0 DUP1 REVERT JUMPDEST POP JUMP JUMPDEST PUSH0 DUP2 CALLDATALOAD SWAP1 POP PUSH2 0x3067 DUP2 PUSH2 0x3043 JUMP JUMPDEST SWAP3 SWAP2 POP POP JUMP JUMPDEST PUSH0 DUP1 PUSH1 0x40 DUP4 DUP6 SUB SLT ISZERO PUSH2 0x3083 JUMPI PUSH2 0x3082 PUSH2 0x2750 JUMP JUMPDEST JUMPDEST PUSH0 PUSH2 0x3090 DUP6 DUP3 DUP7 ADD PUSH2 0x2967 JUMP JUMPDEST SWAP3 POP POP PUSH1 0x20 PUSH2 0x30A1 DUP6 DUP3 DUP7 ADD PUSH2 0x3059 JUMP JUMPDEST SWAP2 POP POP SWAP3 POP SWAP3 SWAP1 POP JUMP JUMPDEST PUSH0 PUSH8 0xFFFFFFFFFFFFFFFF DUP3 GT ISZERO PUSH2 0x30C5 JUMPI PUSH2 0x30C4 PUSH2 0x29C1 JUMP JUMPDEST JUMPDEST PUSH2 0x30CE DUP3 PUSH2 0x2833 JUMP JUMPDEST SWAP1 POP PUSH1 0x20 DUP2 ADD SWAP1 POP SWAP2 SWAP1 POP JUMP JUMPDEST PUSH0 PUSH2 0x30ED PUSH2 0x30E8 DUP5 PUSH2 0x30AB JUMP JUMPDEST PUSH2 0x2A1F JUMP JUMPDEST SWAP1 POP DUP3 DUP2 MSTORE PUSH1 0x20 DUP2 ADD DUP5 DUP5 DUP5 ADD GT ISZERO PUSH2 0x3109 JUMPI PUSH2 0x3108 PUSH2 0x29BD JUMP JUMPDEST JUMPDEST PUSH2 0x3114 DUP5 DUP3 DUP6 PUSH2 0x2A69 JUMP JUMPDEST POP SWAP4 SWAP3 POP POP POP JUMP JUMPDEST PUSH0 DUP3 PUSH1 0x1F DUP4 ADD SLT PUSH2 0x3130 JUMPI PUSH2 0x312F PUSH2 0x29B9 JUMP JUMPDEST JUMPDEST DUP2 CALLDATALOAD PUSH2 0x3140 DUP5 DUP3 PUSH1 0x20 DUP7 ADD PUSH2 0x30DB JUMP JUMPDEST SWAP2 POP POP SWAP3 SWAP2 POP POP JUMP JUMPDEST PUSH0 DUP1 PUSH0 DUP1 PUSH1 0x80 DUP6 DUP8 SUB SLT ISZERO PUSH2 0x3161 JUMPI PUSH2 0x3160 PUSH2 0x2750 JUMP JUMPDEST JUMPDEST PUSH0 PUSH2 0x316E DUP8 DUP3 DUP9 ADD PUSH2 0x2967 JUMP JUMPDEST SWAP5 POP POP PUSH1 0x20 PUSH2 0x317F DUP8 DUP3 DUP9 ADD PUSH2 0x2967 JUMP JUMPDEST SWAP4 POP POP PUSH1 0x40 PUSH2 0x3190 DUP8 DUP3 DUP9 ADD PUSH2 0x28BA JUMP JUMPDEST SWAP3 POP POP PUSH1 0x60 DUP6 ADD CALLDATALOAD PUSH8 0xFFFFFFFFFFFFFFFF DUP2 GT ISZERO PUSH2 0x31B1 JUMPI PUSH2 0x31B0 PUSH2 0x2754 JUMP JUMPDEST JUMPDEST PUSH2 0x31BD DUP8 DUP3 DUP9 ADD PUSH2 0x311C JUMP JUMPDEST SWAP2 POP POP SWAP3 SWAP6 SWAP2 SWAP5 POP SWAP3 POP JUMP JUMPDEST PUSH0 DUP1 PUSH1 0x40 DUP4 DUP6 SUB SLT ISZERO PUSH2 0x31DF JUMPI PUSH2 0x31DE PUSH2 0x2750 JUMP JUMPDEST JUMPDEST PUSH0 PUSH2 0x31EC DUP6 DUP3 DUP7 ADD PUSH2 0x2967 JUMP JUMPDEST SWAP3 POP POP PUSH1 0x20 PUSH2 0x31FD DUP6 DUP3 DUP7 ADD PUSH2 0x2967 JUMP JUMPDEST SWAP2 POP POP SWAP3 POP SWAP3 SWAP1 POP JUMP JUMPDEST PUSH32 0x4E487B7100000000000000000000000000000000000000000000000000000000 PUSH0 MSTORE PUSH1 0x22 PUSH1 0x4 MSTORE PUSH1 0x24 PUSH0 REVERT JUMPDEST PUSH0 PUSH1 0x2 DUP3 DIV SWAP1 POP PUSH1 0x1 DUP3 AND DUP1 PUSH2 0x324B JUMPI PUSH1 0x7F DUP3 AND SWAP2 POP JUMPDEST PUSH1 0x20 DUP3 LT DUP2 SUB PUSH2 0x325E JUMPI PUSH2 0x325D PUSH2 0x3207 JUMP JUMPDEST JUMPDEST POP SWAP2 SWAP1 POP JUMP JUMPDEST PUSH32 0x436172206E6F7420726567697374657265640000000000000000000000000000 PUSH0 DUP3 ADD MSTORE POP JUMP JUMPDEST PUSH0 PUSH2 0x3298 PUSH1 0x12 DUP4 PUSH2 0x2815 JUMP JUMPDEST SWAP2 POP PUSH2 0x32A3 DUP3 PUSH2 0x3264 JUMP JUMPDEST PUSH1 0x20 DUP3 ADD SWAP1 POP SWAP2 SWAP1 POP JUMP JUMPDEST PUSH0 PUSH1 0x20 DUP3 ADD SWAP1 POP DUP2 DUP2 SUB PUSH0 DUP4 ADD MSTORE PUSH2 0x32C5 DUP2 PUSH2 0x328C JUMP JUMPDEST SWAP1 POP SWAP2 SWAP1 POP JUMP JUMPDEST PUSH32 0x537461727420696E646578206F7574206F662072616E67650000000000000000 PUSH0 DUP3 ADD MSTORE POP JUMP JUMPDEST PUSH0 PUSH2 0x3300 PUSH1 0x18 DUP4 PUSH2 0x2815 JUMP JUMPDEST SWAP2 POP PUSH2 0x330B DUP3 PUSH2 0x32CC JUMP JUMPDEST PUSH1 0x20 DUP3 ADD SWAP1 POP SWAP2 SWAP1 POP JUMP JUMPDEST PUSH0 PUSH1 0x20 DUP3 ADD SWAP1 POP DUP2 DUP2 SUB PUSH0 DUP4 ADD MSTORE PUSH2 0x332D DUP2 PUSH2 0x32F4 JUMP JUMPDEST SWAP1 POP SWAP2 SWAP1 POP JUMP JUMPDEST PUSH32 0x4E487B7100000000000000000000000000000000000000000000000000000000 PUSH0 MSTORE PUSH1 0x11 PUSH1 0x4 MSTORE PUSH1 0x24 PUSH0 REVERT JUMPDEST PUSH0 PUSH2 0x336B DUP3 PUSH2 0x289B JUMP JUMPDEST SWAP2 POP PUSH2 0x3376 DUP4 PUSH2 0x289B JUMP JUMPDEST SWAP3 POP DUP3 DUP3 ADD SWAP1 POP DUP1 DUP3 GT ISZERO PUSH2 0x338E JUMPI PUSH2 0x338D PUSH2 0x3334 JUMP JUMPDEST JUMPDEST SWAP3 SWAP2 POP POP JUMP JUMPDEST PUSH0 PUSH2 0x339E DUP3 PUSH2 0x289B JUMP JUMPDEST SWAP2 POP PUSH2 0x33A9 DUP4 PUSH2 0x289B JUMP JUMPDEST SWAP3 POP DUP3 DUP3 SUB SWAP1 POP DUP2 DUP2 GT ISZERO PUSH2 0x33C1 JUMPI PUSH2 0x33C0 PUSH2 0x3334 JUMP JUMPDEST JUMPDEST SWAP3 SWAP2 POP POP JUMP JUMPDEST PUSH32 0x4E487B7100000000000000000000000000000000000000000000000000000000 PUSH0 MSTORE PUSH1 0x32 PUSH1 0x4 MSTORE PUSH1 0x24 PUSH0 REVERT JUMPDEST PUSH0 PUSH1 0x60 DUP3 ADD SWAP1 POP PUSH2 0x3407 PUSH0 DUP4 ADD DUP7 PUSH2 0x2929 JUMP JUMPDEST PUSH2 0x3414 PUSH1 0x20 DUP4 ADD DUP6 PUSH2 0x301B JUMP JUMPDEST PUSH2 0x3421 PUSH1 0x40 DUP4 ADD DUP5 PUSH2 0x2929 JUMP JUMPDEST SWAP5 SWAP4 POP POP POP POP JUMP JUMPDEST PUSH32 0x496E76616C69642056494E000000000000000000000000000000000000000000 PUSH0 DUP3 ADD MSTORE POP JUMP JUMPDEST PUSH0 PUSH2 0x345D PUSH1 0xB DUP4 PUSH2 0x2815 JUMP JUMPDEST SWAP2 POP PUSH2 0x3468 DUP3 PUSH2 0x3429 JUMP JUMPDEST PUSH1 0x20 DUP3 ADD SWAP1 POP SWAP2 SWAP1 POP JUMP JUMPDEST PUSH0 PUSH1 0x20 DUP3 ADD SWAP1 POP DUP2 DUP2 SUB PUSH0 DUP4 ADD MSTORE PUSH2 0x348A DUP2 PUSH2 0x3451 JUMP JUMPDEST SWAP1 POP SWAP2 SWAP1 POP JUMP JUMPDEST PUSH32 0x456D707479206465736372697074696F6E000000000000000000000000000000 PUSH0 DUP3 ADD MSTORE POP JUMP JUMPDEST PUSH0 PUSH2 0x34C5 PUSH1 0x11 DUP4 PUSH2 0x2815 JUMP JUMPDEST SWAP2 POP PUSH2 0x34D0 DUP3 PUSH2 0x3491 JUMP JUMPDEST PUSH1 0x20 DUP3 ADD SWAP1 POP SWAP2 SWAP1 POP JUMP JUMPDEST PUSH0 PUSH1 0x20 DUP3 ADD SWAP1 POP DUP2 DUP2 SUB PUSH0 DUP4 ADD MSTORE PUSH2 0x34F2 DUP2 PUSH2 0x34B9 JUMP JUMPDEST SWAP1 POP SWAP2 SWAP1 POP JUMP JUMPDEST PUSH0 DUP2 SWAP1 POP SWAP3 SWAP2 POP POP JUMP JUMPDEST PUSH0 PUSH2 0x350D DUP3 PUSH2 0x280B JUMP JUMPDEST PUSH2 0x3517 DUP2 DUP6 PUSH2 0x34F9 JUMP JUMPDEST SWAP4 POP PUSH2 0x3527 DUP2 DUP6 PUSH1 0x20 DUP7 ADD PUSH2 0x2825 JUMP JUMPDEST DUP1 DUP5 ADD SWAP2 POP POP SWAP3 SWAP2 POP POP JUMP JUMPDEST PUSH0 DUP2 SWAP1 POP SWAP2 SWAP1 POP JUMP JUMPDEST PUSH2 0x354D PUSH2 0x3548 DUP3 PUSH2 0x289B JUMP JUMPDEST PUSH2 0x3533 JUMP JUMPDEST DUP3 MSTORE POP POP JUMP JUMPDEST PUSH0 PUSH2 0x355E DUP3 DUP6 PUSH2 0x3503 JUMP JUMPDEST SWAP2 POP PUSH2 0x356A DUP3 DUP5 PUSH2 0x353C JUMP JUMPDEST PUSH1 0x20 DUP3 ADD SWAP2 POP DUP2 SWAP1 POP SWAP4 SWAP3 POP POP POP JUMP JUMPDEST PUSH32 0x4475706C6963617465207265636F726400000000000000000000000000000000 PUSH0 DUP3 ADD MSTORE POP JUMP JUMPDEST PUSH0 PUSH2 0x35AE PUSH1 0x10 DUP4 PUSH2 0x2815 JUMP JUMPDEST SWAP2 POP PUSH2 0x35B9 DUP3 PUSH2 0x357A JUMP JUMPDEST PUSH1 0x20 DUP3 ADD SWAP1 POP SWAP2 SWAP1 POP JUMP JUMPDEST PUSH0 PUSH1 0x20 DUP3 ADD SWAP1 POP DUP2 DUP2 SUB PUSH0 DUP4 ADD MSTORE PUSH2 0x35DB DUP2 PUSH2 0x35A2 JUMP JUMPDEST SWAP1 POP SWAP2 SWAP1 POP JUMP JUMPDEST PUSH0 DUP2 SWAP1 POP DUP2 PUSH0 MSTORE PUSH1 0x20 PUSH0 KECCAK256 SWAP1 POP SWAP2 SWAP1 POP JUMP JUMPDEST PUSH0 PUSH1 0x20 PUSH1 0x1F DUP4 ADD DIV SWAP1 POP SWAP2 SWAP1 POP JUMP JUMPDEST PUSH0 DUP3 DUP3 SHL SWAP1 POP SWAP3 SWAP2 POP POP JUMP JUMPDEST PUSH0 PUSH1 0x8 DUP4 MUL PUSH2 0x363E PUSH32 0xFFFFFFFFFFFFFFFFFFFFFFFFFFFFFFFFFFFFFFFFFFFFFFFFFFFFFFFFFFFFFFFF DUP3 PUSH2 0x3603 JUMP JUMPDEST PUSH2 0x3648 DUP7 DUP4 PUSH2 0x3603 JUMP JUMPDEST SWAP6 POP DUP1 NOT DUP5 AND SWAP4 POP DUP1 DUP7 AND DUP5 OR SWAP3 POP POP POP SWAP4 SWAP3 POP POP POP JUMP JUMPDEST PUSH0 DUP2 SWAP1 POP SWAP2 SWAP1 POP JUMP JUMPDEST PUSH0 PUSH2 0x3683 PUSH2 0x367E PUSH2 0x3679 DUP5 PUSH2 0x289B JUMP JUMPDEST PUSH2 0x3660 JUMP JUMPDEST PUSH2 0x289B JUMP JUMPDEST SWAP1 POP SWAP2 SWAP1 POP JUMP JUMPDEST PUSH0 DUP2 SWAP1 POP SWAP2 SWAP1 POP JUMP JUMPDEST PUSH2 0x369C DUP4 PUSH2 0x3669 JUMP JUMPDEST PUSH2 0x36B0 PUSH2 0x36A8 DUP3 PUSH2 0x368A JUMP JUMPDEST DUP5 DUP5 SLOAD PUSH2 0x360F JUMP JUMPDEST DUP3 SSTORE POP POP POP POP JUMP JUMPDEST PUSH0 SWAP1 JUMP JUMPDEST PUSH2 0x36C4 PUSH2 0x36B8 JUMP JUMPDEST PUSH2 0x36CF DUP2 DUP5 DUP5 PUSH2 0x3693 JUMP JUMPDEST POP POP POP JUMP JUMPDEST JUMPDEST DUP2 DUP2 LT ISZERO PUSH2 0x36F2 JUMPI PUSH2 0x36E7 PUSH0 DUP3 PUSH2 0x36BC JUMP JUMPDEST PUSH1 0x1 DUP2 ADD SWAP1 POP PUSH2 0x36D5 JUMP JUMPDEST POP POP JUMP JUMPDEST PUSH1 0x1F DUP3 GT ISZERO PUSH2 0x3737 JUMPI PUSH2 0x3708 DUP2 PUSH2 0x35E2 JUMP JUMPDEST PUSH2 0x3711 DUP5 PUSH2 0x35F4 JUMP JUMPDEST DUP2 ADD PUSH1 0x20 DUP6 LT ISZERO PUSH2 0x3720 JUMPI DUP2 SWAP1 POP JUMPDEST PUSH2 0x3734 PUSH2 0x372C DUP6 PUSH2 0x35F4 JUMP JUMPDEST DUP4 ADD DUP3 PUSH2 0x36D4 JUMP JUMPDEST POP POP JUMPDEST POP POP POP JUMP JUMPDEST PUSH0 DUP3 DUP3 SHR SWAP1 POP SWAP3 SWAP2 POP POP JUMP JUMPDEST PUSH0 PUSH2 0x3757 PUSH0 NOT DUP5 PUSH1 0x8 MUL PUSH2 0x373C JUMP JUMPDEST NOT DUP1 DUP4 AND SWAP2 POP POP SWAP3 SWAP2 POP POP JUMP JUMPDEST PUSH0 PUSH2 0x376F DUP4 DUP4 PUSH2 0x3748 JUMP JUMPDEST SWAP2 POP DUP3 PUSH1 0x2 MUL DUP3 OR SWAP1 POP SWAP3 SWAP2 POP POP JUMP JUMPDEST PUSH2 0x3788 DUP3 PUSH2 0x280B JUMP JUMPDEST PUSH8 0xFFFFFFFFFFFFFFFF DUP2 GT ISZERO PUSH2 0x37A1 JUMPI PUSH2 0x37A0 PUSH2 0x29C1 JUMP JUMPDEST JUMPDEST PUSH2 0x37AB DUP3 SLOAD PUSH2 0x3234 JUMP JUMPDEST PUSH2 0x37B6 DUP3 DUP3 DUP6 PUSH2 0x36F6 JUMP JUMPDEST PUSH0 PUSH1 0x20 SWAP1 POP PUSH1 0x1F DUP4 GT PUSH1 0x1 DUP2 EQ PUSH2 0x37E7 JUMPI PUSH0 DUP5 ISZERO PUSH2 0x37D5 JUMPI DUP3 DUP8 ADD MLOAD SWAP1 POP JUMPDEST PUSH2 0x37DF DUP6 DUP3 PUSH2 0x3764 JUMP JUMPDEST DUP7 SSTORE POP PUSH2 0x3846 JUMP JUMPDEST PUSH1 0x1F NOT DUP5 AND PUSH2 0x37F5 DUP7 PUSH2 0x35E2 JUMP JUMPDEST PUSH0 JUMPDEST DUP3 DUP2 LT ISZERO PUSH2 0x381C JUMPI DUP5 DUP10 ADD MLOAD DUP3 SSTORE PUSH1 0x1 DUP3 ADD SWAP2 POP PUSH1 0x20 DUP6 ADD SWAP5 POP PUSH1 0x20 DUP2 ADD SWAP1 POP PUSH2 0x37F7 JUMP JUMPDEST DUP7 DUP4 LT ISZERO PUSH2 0x3839 JUMPI DUP5 DUP10 ADD MLOAD PUSH2 0x3835 PUSH1 0x1F DUP10 AND DUP3 PUSH2 0x3748 JUMP JUMPDEST DUP4 SSTORE POP JUMPDEST PUSH1 0x1 PUSH1 0x2 DUP9 MUL ADD DUP9 SSTORE POP POP POP JUMPDEST POP POP POP POP POP POP JUMP JUMPDEST PUSH32 0x43617220616C7265616479207265676973746572656400000000000000000000 PUSH0 DUP3 ADD MSTORE POP JUMP JUMPDEST PUSH0 PUSH2 0x3882 PUSH1 0x16 DUP4 PUSH2 0x2815 JUMP JUMPDEST SWAP2 POP PUSH2 0x388D DUP3 PUSH2 0x384E JUMP JUMPDEST PUSH1 0x20 DUP3 ADD SWAP1 POP SWAP2 SWAP1 POP JUMP JUMPDEST PUSH0 PUSH1 0x20 DUP3 ADD SWAP1 POP DUP2 DUP2 SUB PUSH0 DUP4 ADD MSTORE PUSH2 0x38AF DUP2 PUSH2 0x3876 JUMP JUMPDEST SWAP1 POP SWAP2 SWAP1 POP JUMP JUMPDEST PUSH0 PUSH2 0x38C0 DUP3 PUSH2 0x289B JUMP JUMPDEST SWAP2 POP PUSH32 0xFFFFFFFFFFFFFFFFFFFFFFFFFFFFFFFFFFFFFFFFFFFFFFFFFFFFFFFFFFFFFFFF DUP3 SUB PUSH2 0x38F2 JUMPI PUSH2 0x38F1 PUSH2 0x3334 JUMP JUMPDEST JUMPDEST PUSH1 0x1 DUP3 ADD SWAP1 POP SWAP2 SWAP1 POP JUMP JUMPDEST PUSH0 PUSH2 0x3908 DUP3 DUP6 PUSH2 0x3503 JUMP JUMPDEST SWAP2 POP PUSH2 0x3914 DUP3 DUP5 PUSH2 0x3503 JUMP JUMPDEST SWAP2 POP DUP2 SWAP1 POP SWAP4 SWAP3 POP POP POP JUMP JUMPDEST PUSH0 DUP2 MLOAD SWAP1 POP SWAP2 SWAP1 POP JUMP JUMPDEST PUSH0 DUP3 DUP3 MSTORE PUSH1 0x20 DUP3 ADD SWAP1 POP SWAP3 SWAP2 POP POP JUMP JUMPDEST PUSH0 PUSH2 0x3944 DUP3 PUSH2 0x3920 JUMP JUMPDEST PUSH2 0x394E DUP2 DUP6 PUSH2 0x392A JUMP JUMPDEST SWAP4 POP PUSH2 0x395E DUP2 DUP6 PUSH1 0x20 DUP7 ADD PUSH2 0x2825 JUMP JUMPDEST PUSH2 0x3967 DUP2 PUSH2 0x2833 JUMP JUMPDEST DUP5 ADD SWAP2 POP POP SWAP3 SWAP2 POP POP JUMP JUMPDEST PUSH0 PUSH1 0x80 DUP3 ADD SWAP1 POP PUSH2 0x3985 PUSH0 DUP4 ADD DUP8 PUSH2 0x2929 JUMP JUMPDEST PUSH2 0x3992 PUSH1 0x20 DUP4 ADD DUP7 PUSH2 0x2929 JUMP JUMPDEST PUSH2 0x399F PUSH1 0x40 DUP4 ADD DUP6 PUSH2 0x301B JUMP JUMPDEST DUP2 DUP2 SUB PUSH1 0x60 DUP4 ADD MSTORE PUSH2 0x39B1 DUP2 DUP5 PUSH2 0x393A JUMP JUMPDEST SWAP1 POP SWAP6 SWAP5 POP POP POP POP POP JUMP JUMPDEST PUSH0 DUP2 MLOAD SWAP1 POP PUSH2 0x39CA DUP2 PUSH2 0x2783 JUMP JUMPDEST SWAP3 SWAP2 POP POP JUMP JUMPDEST PUSH0 PUSH1 0x20 DUP3 DUP5 SUB SLT ISZERO PUSH2 0x39E5 JUMPI PUSH2 0x39E4 PUSH2 0x2750 JUMP JUMPDEST JUMPDEST PUSH0 PUSH2 0x39F2 DUP5 DUP3 DUP6 ADD PUSH2 0x39BC JUMP JUMPDEST SWAP2 POP POP SWAP3 SWAP2 POP POP JUMP JUMPDEST PUSH32 0x4E487B7100000000000000000000000000000000000000000000000000000000 PUSH0 MSTORE PUSH1 0x12 PUSH1 0x4 MSTORE PUSH1 0x24 PUSH0 REVERT JUMPDEST PUSH32 0x5061757361626C653A2070617573656400000000000000000000000000000000 PUSH0 DUP3 ADD MSTORE POP JUMP JUMPDEST PUSH0 PUSH2 0x3A5C PUSH1 0x10 DUP4 PUSH2 0x2815 JUMP JUMPDEST SWAP2 POP PUSH2 0x3A67 DUP3 PUSH2 0x3A28 JUMP JUMPDEST PUSH1 0x20 DUP3 ADD SWAP1 POP SWAP2 SWAP1 POP JUMP JUMPDEST PUSH0 PUSH1 0x20 DUP3 ADD SWAP1 POP DUP2 DUP2 SUB PUSH0 DUP4 ADD MSTORE PUSH2 0x3A89 DUP2 PUSH2 0x3A50 JUMP JUMPDEST SWAP1 POP SWAP2 SWAP1 POP JUMP JUMPDEST PUSH0 PUSH1 0x40 DUP3 ADD SWAP1 POP PUSH2 0x3AA3 PUSH0 DUP4 ADD DUP6 PUSH2 0x2929 JUMP JUMPDEST PUSH2 0x3AB0 PUSH1 0x20 DUP4 ADD DUP5 PUSH2 0x2EBA JUMP JUMPDEST SWAP4 SWAP3 POP POP POP JUMP JUMPDEST PUSH32 0x5061757361626C653A206E6F7420706175736564000000000000000000000000 PUSH0 DUP3 ADD MSTORE POP JUMP JUMPDEST PUSH0 PUSH2 0x3AEB PUSH1 0x14 DUP4 PUSH2 0x2815 JUMP JUMPDEST SWAP2 POP PUSH2 0x3AF6 DUP3 PUSH2 0x3AB7 JUMP JUMPDEST PUSH1 0x20 DUP3 ADD SWAP1 POP SWAP2 SWAP1 POP JUMP JUMPDEST PUSH0 PUSH1 0x20 DUP3 ADD SWAP1 POP DUP2 DUP2 SUB PUSH0 DUP4 ADD MSTORE PUSH2 0x3B18 DUP2 PUSH2 0x3ADF JUMP JUMPDEST SWAP1 POP SWAP2 SWAP1 POP JUMP JUMPDEST PUSH0 PUSH1 0x40 DUP3 ADD SWAP1 POP PUSH2 0x3B32 PUSH0 DUP4 ADD DUP6 PUSH2 0x2929 JUMP JUMPDEST PUSH2 0x3B3F PUSH1 0x20 DUP4 ADD DUP5 PUSH2 0x301B JUMP JUMPDEST SWAP4 SWAP3 POP POP POP JUMP INVALID LOG2 PUSH5 0x6970667358 0x22 SLT KECCAK256 MULMOD 0xFC SWAP1 0xBF SLT 0xE2 0xEA 0xD0 0x23 0xB0 CALL CALLER 0x2A SWAP15 STATICCALL 0xE7 PUSH10 0xFC96BE6EAEC04238A0FA 0xDF NUMBER 0xB5 CALLDATASIZE 0xB8 PUSH5 0x736F6C6343 STOP ADDMOD BYTE STOP CALLER "
		},
		"gasEstimates": {
			"creation": {
				"codeDepositCost": "3045600",
				"executionCost": "infinite",
				"totalCost": "infinite"
			},
			"external": {
				"DEFAULT_ADMIN_ROLE()": "375",
				"SERVICE_ROLE()": "436",
				"addServiceRecord(string,string)": "infinite",
				"approve(address,uint256)": "infinite",
				"balanceOf(address)": "infinite",
				"getApproved(uint256)": "infinite",
				"getRoleAdmin(bytes32)": "infinite",
				"getServiceHistory(string,uint256,uint256)": "infinite",
				"grantRole(bytes32,address)": "infinite",
				"grantServiceRole(address)": "infinite",
				"hasRole(bytes32,address)": "3189",
				"isApprovedForAll(address,address)": "infinite",
				"name()": "infinite",
				"nextTokenId()": "2537",
				"ownerOf(uint256)": "infinite",
				"pause()": "infinite",
				"paused()": "2519",
				"registerCar(string,address)": "infinite",
				"renounceRole(bytes32,address)": "infinite",
				"revokeRole(bytes32,address)": "infinite",
				"revokeServiceRole(address)": "infinite",
				"safeTransferFrom(address,address,uint256)": "infinite",
				"safeTransferFrom(address,address,uint256,bytes)": "infinite",
				"setApprovalForAll(address,bool)": "infinite",
				"supportsInterface(bytes4)": "infinite",
				"symbol()": "infinite",
				"tokenIdToVin(uint256)": "infinite",
				"tokenURI(uint256)": "infinite",
				"transferFrom(address,address,uint256)": "infinite",
				"unpause()": "infinite",
				"vinToTokenId(bytes32)": "2843"
			},
			"internal": {
				"_update(address,uint256,address)": "infinite"
			}
		},
		"methodIdentifiers": {
			"DEFAULT_ADMIN_ROLE()": "a217fddf",
			"SERVICE_ROLE()": "a20e7d47",
			"addServiceRecord(string,string)": "37b3d3c7",
			"approve(address,uint256)": "095ea7b3",
			"balanceOf(address)": "70a08231",
			"getApproved(uint256)": "081812fc",
			"getRoleAdmin(bytes32)": "248a9ca3",
			"getServiceHistory(string,uint256,uint256)": "1c2760ee",
			"grantRole(bytes32,address)": "2f2ff15d",
			"grantServiceRole(address)": "36de5996",
			"hasRole(bytes32,address)": "91d14854",
			"isApprovedForAll(address,address)": "e985e9c5",
			"name()": "06fdde03",
			"nextTokenId()": "75794a3c",
			"ownerOf(uint256)": "6352211e",
			"pause()": "8456cb59",
			"paused()": "5c975abb",
			"registerCar(string,address)": "40922420",
			"renounceRole(bytes32,address)": "36568abe",
			"revokeRole(bytes32,address)": "d547741f",
			"revokeServiceRole(address)": "459b9bcf",
			"safeTransferFrom(address,address,uint256)": "42842e0e",
			"safeTransferFrom(address,address,uint256,bytes)": "b88d4fde",
			"setApprovalForAll(address,bool)": "a22cb465",
			"supportsInterface(bytes4)": "01ffc9a7",
			"symbol()": "95d89b41",
			"tokenIdToVin(uint256)": "eb1a6e40",
			"tokenURI(uint256)": "c87b56dd",
			"transferFrom(address,address,uint256)": "23b872dd",
			"unpause()": "3f4ba83a",
			"vinToTokenId(bytes32)": "ad59eff3"
		}
	},
	"abi": [
		{
			"inputs": [],
			"stateMutability": "nonpayable",
			"type": "constructor"
		},
		{
			"inputs": [],
			"name": "AccessControlBadConfirmation",
			"type": "error"
		},
		{
			"inputs": [
				{
					"internalType": "address",
					"name": "account",
					"type": "address"
				},
				{
					"internalType": "bytes32",
					"name": "neededRole",
					"type": "bytes32"
				}
			],
			"name": "AccessControlUnauthorizedAccount",
			"type": "error"
		},
		{
			"inputs": [
				{
					"internalType": "address",
					"name": "sender",
					"type": "address"
				},
				{
					"internalType": "uint256",
					"name": "tokenId",
					"type": "uint256"
				},
				{
					"internalType": "address",
					"name": "owner",
					"type": "address"
				}
			],
			"name": "ERC721IncorrectOwner",
			"type": "error"
		},
		{
			"inputs": [
				{
					"internalType": "address",
					"name": "operator",
					"type": "address"
				},
				{
					"internalType": "uint256",
					"name": "tokenId",
					"type": "uint256"
				}
			],
			"name": "ERC721InsufficientApproval",
			"type": "error"
		},
		{
			"inputs": [
				{
					"internalType": "address",
					"name": "approver",
					"type": "address"
				}
			],
			"name": "ERC721InvalidApprover",
			"type": "error"
		},
		{
			"inputs": [
				{
					"internalType": "address",
					"name": "operator",
					"type": "address"
				}
			],
			"name": "ERC721InvalidOperator",
			"type": "error"
		},
		{
			"inputs": [
				{
					"internalType": "address",
					"name": "owner",
					"type": "address"
				}
			],
			"name": "ERC721InvalidOwner",
			"type": "error"
		},
		{
			"inputs": [
				{
					"internalType": "address",
					"name": "receiver",
					"type": "address"
				}
			],
			"name": "ERC721InvalidReceiver",
			"type": "error"
		},
		{
			"inputs": [
				{
					"internalType": "address",
					"name": "sender",
					"type": "address"
				}
			],
			"name": "ERC721InvalidSender",
			"type": "error"
		},
		{
			"inputs": [
				{
					"internalType": "uint256",
					"name": "tokenId",
					"type": "uint256"
				}
			],
			"name": "ERC721NonexistentToken",
			"type": "error"
		},
		{
			"anonymous": false,
			"inputs": [
				{
					"indexed": true,
					"internalType": "address",
					"name": "owner",
					"type": "address"
				},
				{
					"indexed": true,
					"internalType": "address",
					"name": "approved",
					"type": "address"
				},
				{
					"indexed": true,
					"internalType": "uint256",
					"name": "tokenId",
					"type": "uint256"
				}
			],
			"name": "Approval",
			"type": "event"
		},
		{
			"anonymous": false,
			"inputs": [
				{
					"indexed": true,
					"internalType": "address",
					"name": "owner",
					"type": "address"
				},
				{
					"indexed": true,
					"internalType": "address",
					"name": "operator",
					"type": "address"
				},
				{
					"indexed": false,
					"internalType": "bool",
					"name": "approved",
					"type": "bool"
				}
			],
			"name": "ApprovalForAll",
			"type": "event"
		},
		{
			"anonymous": false,
			"inputs": [
				{
					"indexed": true,
					"internalType": "uint256",
					"name": "tokenId",
					"type": "uint256"
				},
				{
					"indexed": false,
					"internalType": "string",
					"name": "vin",
					"type": "string"
				},
				{
					"indexed": true,
					"internalType": "address",
					"name": "owner",
					"type": "address"
				}
			],
			"name": "CarRegistered",
			"type": "event"
		},
		{
			"anonymous": false,
			"inputs": [
				{
					"indexed": false,
					"internalType": "address",
					"name": "account",
					"type": "address"
				}
			],
			"name": "Paused",
			"type": "event"
		},
		{
			"anonymous": false,
			"inputs": [
				{
					"indexed": true,
					"internalType": "bytes32",
					"name": "role",
					"type": "bytes32"
				},
				{
					"indexed": true,
					"internalType": "bytes32",
					"name": "previousAdminRole",
					"type": "bytes32"
				},
				{
					"indexed": true,
					"internalType": "bytes32",
					"name": "newAdminRole",
					"type": "bytes32"
				}
			],
			"name": "RoleAdminChanged",
			"type": "event"
		},
		{
			"anonymous": false,
			"inputs": [
				{
					"indexed": true,
					"internalType": "bytes32",
					"name": "role",
					"type": "bytes32"
				},
				{
					"indexed": true,
					"internalType": "address",
					"name": "account",
					"type": "address"
				},
				{
					"indexed": true,
					"internalType": "address",
					"name": "sender",
					"type": "address"
				}
			],
			"name": "RoleGranted",
			"type": "event"
		},
		{
			"anonymous": false,
			"inputs": [
				{
					"indexed": true,
					"internalType": "bytes32",
					"name": "role",
					"type": "bytes32"
				},
				{
					"indexed": true,
					"internalType": "address",
					"name": "account",
					"type": "address"
				},
				{
					"indexed": true,
					"internalType": "address",
					"name": "sender",
					"type": "address"
				}
			],
			"name": "RoleRevoked",
			"type": "event"
		},
		{
			"anonymous": false,
			"inputs": [
				{
					"indexed": true,
					"internalType": "uint256",
					"name": "tokenId",
					"type": "uint256"
				},
				{
					"indexed": false,
					"internalType": "string",
					"name": "description",
					"type": "string"
				},
				{
					"indexed": true,
					"internalType": "address",
					"name": "serviceCenter",
					"type": "address"
				}
			],
			"name": "ServiceRecordAdded",
			"type": "event"
		},
		{
			"anonymous": false,
			"inputs": [
				{
					"indexed": true,
					"internalType": "address",
					"name": "from",
					"type": "address"
				},
				{
					"indexed": true,
					"internalType": "address",
					"name": "to",
					"type": "address"
				},
				{
					"indexed": true,
					"internalType": "uint256",
					"name": "tokenId",
					"type": "uint256"
				}
			],
			"name": "Transfer",
			"type": "event"
		},
		{
			"anonymous": false,
			"inputs": [
				{
					"indexed": false,
					"internalType": "address",
					"name": "account",
					"type": "address"
				}
			],
			"name": "Unpaused",
			"type": "event"
		},
		{
			"inputs": [],
			"name": "DEFAULT_ADMIN_ROLE",
			"outputs": [
				{
					"internalType": "bytes32",
					"name": "",
					"type": "bytes32"
				}
			],
			"stateMutability": "view",
			"type": "function"
		},
		{
			"inputs": [],
			"name": "SERVICE_ROLE",
			"outputs": [
				{
					"internalType": "bytes32",
					"name": "",
					"type": "bytes32"
				}
			],
			"stateMutability": "view",
			"type": "function"
		},
		{
			"inputs": [
				{
					"internalType": "string",
					"name": "vin",
					"type": "string"
				},
				{
					"internalType": "string",
					"name": "description",
					"type": "string"
				}
			],
			"name": "addServiceRecord",
			"outputs": [],
			"stateMutability": "nonpayable",
			"type": "function"
		},
		{
			"inputs": [
				{
					"internalType": "address",
					"name": "to",
					"type": "address"
				},
				{
					"internalType": "uint256",
					"name": "tokenId",
					"type": "uint256"
				}
			],
			"name": "approve",
			"outputs": [],
			"stateMutability": "nonpayable",
			"type": "function"
		},
		{
			"inputs": [
				{
					"internalType": "address",
					"name": "owner",
					"type": "address"
				}
			],
			"name": "balanceOf",
			"outputs": [
				{
					"internalType": "uint256",
					"name": "",
					"type": "uint256"
				}
			],
			"stateMutability": "view",
			"type": "function"
		},
		{
			"inputs": [
				{
					"internalType": "uint256",
					"name": "tokenId",
					"type": "uint256"
				}
			],
			"name": "getApproved",
			"outputs": [
				{
					"internalType": "address",
					"name": "",
					"type": "address"
				}
			],
			"stateMutability": "view",
			"type": "function"
		},
		{
			"inputs": [
				{
					"internalType": "bytes32",
					"name": "role",
					"type": "bytes32"
				}
			],
			"name": "getRoleAdmin",
			"outputs": [
				{
					"internalType": "bytes32",
					"name": "",
					"type": "bytes32"
				}
			],
			"stateMutability": "view",
			"type": "function"
		},
		{
			"inputs": [
				{
					"internalType": "string",
					"name": "vin",
					"type": "string"
				},
				{
					"internalType": "uint256",
					"name": "start",
					"type": "uint256"
				},
				{
					"internalType": "uint256",
					"name": "limit",
					"type": "uint256"
				}
			],
			"name": "getServiceHistory",
			"outputs": [
				{
					"internalType": "uint256[]",
					"name": "timestamps",
					"type": "uint256[]"
				},
				{
					"internalType": "string[]",
					"name": "descriptions",
					"type": "string[]"
				},
				{
					"internalType": "address[]",
					"name": "serviceCenters",
					"type": "address[]"
				}
			],
			"stateMutability": "view",
			"type": "function"
		},
		{
			"inputs": [
				{
					"internalType": "bytes32",
					"name": "role",
					"type": "bytes32"
				},
				{
					"internalType": "address",
					"name": "account",
					"type": "address"
				}
			],
			"name": "grantRole",
			"outputs": [],
			"stateMutability": "nonpayable",
			"type": "function"
		},
		{
			"inputs": [
				{
					"internalType": "address",
					"name": "account",
					"type": "address"
				}
			],
			"name": "grantServiceRole",
			"outputs": [],
			"stateMutability": "nonpayable",
			"type": "function"
		},
		{
			"inputs": [
				{
					"internalType": "bytes32",
					"name": "role",
					"type": "bytes32"
				},
				{
					"internalType": "address",
					"name": "account",
					"type": "address"
				}
			],
			"name": "hasRole",
			"outputs": [
				{
					"internalType": "bool",
					"name": "",
					"type": "bool"
				}
			],
			"stateMutability": "view",
			"type": "function"
		},
		{
			"inputs": [
				{
					"internalType": "address",
					"name": "owner",
					"type": "address"
				},
				{
					"internalType": "address",
					"name": "operator",
					"type": "address"
				}
			],
			"name": "isApprovedForAll",
			"outputs": [
				{
					"internalType": "bool",
					"name": "",
					"type": "bool"
				}
			],
			"stateMutability": "view",
			"type": "function"
		},
		{
			"inputs": [],
			"name": "name",
			"outputs": [
				{
					"internalType": "string",
					"name": "",
					"type": "string"
				}
			],
			"stateMutability": "view",
			"type": "function"
		},
		{
			"inputs": [],
			"name": "nextTokenId",
			"outputs": [
				{
					"internalType": "uint256",
					"name": "",
					"type": "uint256"
				}
			],
			"stateMutability": "view",
			"type": "function"
		},
		{
			"inputs": [
				{
					"internalType": "uint256",
					"name": "tokenId",
					"type": "uint256"
				}
			],
			"name": "ownerOf",
			"outputs": [
				{
					"internalType": "address",
					"name": "",
					"type": "address"
				}
			],
			"stateMutability": "view",
			"type": "function"
		},
		{
			"inputs": [],
			"name": "pause",
			"outputs": [],
			"stateMutability": "nonpayable",
			"type": "function"
		},
		{
			"inputs": [],
			"name": "paused",
			"outputs": [
				{
					"internalType": "bool",
					"name": "",
					"type": "bool"
				}
			],
			"stateMutability": "view",
			"type": "function"
		},
		{
			"inputs": [
				{
					"internalType": "string",
					"name": "vin",
					"type": "string"
				},
				{
					"internalType": "address",
					"name": "owner",
					"type": "address"
				}
			],
			"name": "registerCar",
			"outputs": [],
			"stateMutability": "nonpayable",
			"type": "function"
		},
		{
			"inputs": [
				{
					"internalType": "bytes32",
					"name": "role",
					"type": "bytes32"
				},
				{
					"internalType": "address",
					"name": "callerConfirmation",
					"type": "address"
				}
			],
			"name": "renounceRole",
			"outputs": [],
			"stateMutability": "nonpayable",
			"type": "function"
		},
		{
			"inputs": [
				{
					"internalType": "bytes32",
					"name": "role",
					"type": "bytes32"
				},
				{
					"internalType": "address",
					"name": "account",
					"type": "address"
				}
			],
			"name": "revokeRole",
			"outputs": [],
			"stateMutability": "nonpayable",
			"type": "function"
		},
		{
			"inputs": [
				{
					"internalType": "address",
					"name": "account",
					"type": "address"
				}
			],
			"name": "revokeServiceRole",
			"outputs": [],
			"stateMutability": "nonpayable",
			"type": "function"
		},
		{
			"inputs": [
				{
					"internalType": "address",
					"name": "from",
					"type": "address"
				},
				{
					"internalType": "address",
					"name": "to",
					"type": "address"
				},
				{
					"internalType": "uint256",
					"name": "tokenId",
					"type": "uint256"
				}
			],
			"name": "safeTransferFrom",
			"outputs": [],
			"stateMutability": "nonpayable",
			"type": "function"
		},
		{
			"inputs": [
				{
					"internalType": "address",
					"name": "from",
					"type": "address"
				},
				{
					"internalType": "address",
					"name": "to",
					"type": "address"
				},
				{
					"internalType": "uint256",
					"name": "tokenId",
					"type": "uint256"
				},
				{
					"internalType": "bytes",
					"name": "data",
					"type": "bytes"
				}
			],
			"name": "safeTransferFrom",
			"outputs": [],
			"stateMutability": "nonpayable",
			"type": "function"
		},
		{
			"inputs": [
				{
					"internalType": "address",
					"name": "operator",
					"type": "address"
				},
				{
					"internalType": "bool",
					"name": "approved",
					"type": "bool"
				}
			],
			"name": "setApprovalForAll",
			"outputs": [],
			"stateMutability": "nonpayable",
			"type": "function"
		},
		{
			"inputs": [
				{
					"internalType": "bytes4",
					"name": "interfaceId",
					"type": "bytes4"
				}
			],
			"name": "supportsInterface",
			"outputs": [
				{
					"internalType": "bool",
					"name": "",
					"type": "bool"
				}
			],
			"stateMutability": "view",
			"type": "function"
		},
		{
			"inputs": [],
			"name": "symbol",
			"outputs": [
				{
					"internalType": "string",
					"name": "",
					"type": "string"
				}
			],
			"stateMutability": "view",
			"type": "function"
		},
		{
			"inputs": [
				{
					"internalType": "uint256",
					"name": "",
					"type": "uint256"
				}
			],
			"name": "tokenIdToVin",
			"outputs": [
				{
					"internalType": "string",
					"name": "",
					"type": "string"
				}
			],
			"stateMutability": "view",
			"type": "function"
		},
		{
			"inputs": [
				{
					"internalType": "uint256",
					"name": "tokenId",
					"type": "uint256"
				}
			],
			"name": "tokenURI",
			"outputs": [
				{
					"internalType": "string",
					"name": "",
					"type": "string"
				}
			],
			"stateMutability": "view",
			"type": "function"
		},
		{
			"inputs": [
				{
					"internalType": "address",
					"name": "from",
					"type": "address"
				},
				{
					"internalType": "address",
					"name": "to",
					"type": "address"
				},
				{
					"internalType": "uint256",
					"name": "tokenId",
					"type": "uint256"
				}
			],
			"name": "transferFrom",
			"outputs": [],
			"stateMutability": "nonpayable",
			"type": "function"
		},
		{
			"inputs": [],
			"name": "unpause",
			"outputs": [],
			"stateMutability": "nonpayable",
			"type": "function"
		},
		{
			"inputs": [
				{
					"internalType": "bytes32",
					"name": "",
					"type": "bytes32"
				}
			],
			"name": "vinToTokenId",
			"outputs": [
				{
					"internalType": "uint256",
					"name": "",
					"type": "uint256"
				}
			],
			"stateMutability": "view",
			"type": "function"
		}
	]
}